{
  "_format": "hh-sol-artifact-1",
  "contractName": "PlayToEarnX",
  "sourceName": "contracts/Play2EarnX.sol",
  "abi": [
    {
      "inputs": [
        {
          "internalType": "uint256",
          "name": "_pct",
          "type": "uint256"
        }
      ],
      "stateMutability": "nonpayable",
      "type": "constructor"
    },
    {
      "anonymous": false,
      "inputs": [
        {
          "indexed": true,
          "internalType": "address",
          "name": "owner",
          "type": "address"
        },
        {
          "indexed": true,
          "internalType": "address",
          "name": "spender",
          "type": "address"
        },
        {
          "indexed": false,
          "internalType": "uint256",
          "name": "value",
          "type": "uint256"
        }
      ],
      "name": "Approval",
      "type": "event"
    },
    {
      "anonymous": false,
      "inputs": [
        {
          "indexed": true,
          "internalType": "address",
          "name": "previousOwner",
          "type": "address"
        },
        {
          "indexed": true,
          "internalType": "address",
          "name": "newOwner",
          "type": "address"
        }
      ],
      "name": "OwnershipTransferred",
      "type": "event"
    },
    {
      "anonymous": false,
      "inputs": [
        {
          "indexed": true,
          "internalType": "address",
          "name": "from",
          "type": "address"
        },
        {
          "indexed": true,
          "internalType": "address",
          "name": "to",
          "type": "address"
        },
        {
          "indexed": false,
          "internalType": "uint256",
          "name": "value",
          "type": "uint256"
        }
      ],
      "name": "Transfer",
      "type": "event"
    },
    {
      "inputs": [
        {
          "internalType": "uint256",
          "name": "gameId",
          "type": "uint256"
        },
        {
          "internalType": "uint256",
          "name": "index",
          "type": "uint256"
        }
      ],
      "name": "acceptInvitation",
      "outputs": [],
      "stateMutability": "payable",
      "type": "function"
    },
    {
      "inputs": [
        {
          "internalType": "address",
          "name": "owner",
          "type": "address"
        },
        {
          "internalType": "address",
          "name": "spender",
          "type": "address"
        }
      ],
      "name": "allowance",
      "outputs": [
        {
          "internalType": "uint256",
          "name": "",
          "type": "uint256"
        }
      ],
      "stateMutability": "view",
      "type": "function"
    },
    {
      "inputs": [
        {
          "internalType": "address",
          "name": "spender",
          "type": "address"
        },
        {
          "internalType": "uint256",
          "name": "amount",
          "type": "uint256"
        }
      ],
      "name": "approve",
      "outputs": [
        {
          "internalType": "bool",
          "name": "",
          "type": "bool"
        }
      ],
      "stateMutability": "nonpayable",
      "type": "function"
    },
    {
      "inputs": [
        {
          "internalType": "address",
          "name": "account",
          "type": "address"
        }
      ],
      "name": "balanceOf",
      "outputs": [
        {
          "internalType": "uint256",
          "name": "",
          "type": "uint256"
        }
      ],
      "stateMutability": "view",
      "type": "function"
    },
    {
      "inputs": [
        {
          "internalType": "string",
          "name": "title",
          "type": "string"
        },
        {
          "internalType": "string",
          "name": "description",
          "type": "string"
        },
        {
          "internalType": "uint256",
          "name": "participants",
          "type": "uint256"
        },
        {
          "internalType": "uint256",
          "name": "numberOfWinners",
          "type": "uint256"
        },
        {
          "internalType": "uint256",
          "name": "startDate",
          "type": "uint256"
        },
        {
          "internalType": "uint256",
          "name": "endDate",
          "type": "uint256"
        }
      ],
      "name": "createGame",
      "outputs": [],
      "stateMutability": "payable",
      "type": "function"
    },
    {
      "inputs": [],
      "name": "decimals",
      "outputs": [
        {
          "internalType": "uint8",
          "name": "",
          "type": "uint8"
        }
      ],
      "stateMutability": "view",
      "type": "function"
    },
    {
      "inputs": [
        {
          "internalType": "address",
          "name": "spender",
          "type": "address"
        },
        {
          "internalType": "uint256",
          "name": "subtractedValue",
          "type": "uint256"
        }
      ],
      "name": "decreaseAllowance",
      "outputs": [
        {
          "internalType": "bool",
          "name": "",
          "type": "bool"
        }
      ],
      "stateMutability": "nonpayable",
      "type": "function"
    },
    {
      "inputs": [
        {
          "internalType": "uint256",
          "name": "gameId",
          "type": "uint256"
        }
      ],
      "name": "deleteGame",
      "outputs": [],
      "stateMutability": "nonpayable",
      "type": "function"
    },
    {
      "inputs": [
        {
          "internalType": "uint256",
          "name": "gameId",
          "type": "uint256"
        }
      ],
      "name": "getGame",
      "outputs": [
        {
          "components": [
            {
              "internalType": "uint256",
              "name": "id",
              "type": "uint256"
            },
            {
              "internalType": "string",
              "name": "title",
              "type": "string"
            },
            {
              "internalType": "string",
              "name": "description",
              "type": "string"
            },
            {
              "internalType": "address",
              "name": "owner",
              "type": "address"
            },
            {
              "internalType": "uint256",
              "name": "participants",
              "type": "uint256"
            },
            {
              "internalType": "uint256",
              "name": "numberOfWinners",
              "type": "uint256"
            },
            {
              "internalType": "uint256",
              "name": "acceptees",
              "type": "uint256"
            },
            {
              "internalType": "uint256",
              "name": "stake",
              "type": "uint256"
            },
            {
              "internalType": "uint256",
              "name": "startDate",
              "type": "uint256"
            },
            {
              "internalType": "uint256",
              "name": "endDate",
              "type": "uint256"
            },
            {
              "internalType": "uint256",
              "name": "timestamp",
              "type": "uint256"
            },
            {
              "internalType": "bool",
              "name": "deleted",
              "type": "bool"
            },
            {
              "internalType": "bool",
              "name": "paidOut",
              "type": "bool"
            }
          ],
          "internalType": "struct PlayToEarnX.GameStruct",
          "name": "",
          "type": "tuple"
        }
      ],
      "stateMutability": "view",
      "type": "function"
    },
    {
      "inputs": [],
      "name": "getGames",
      "outputs": [
        {
          "components": [
            {
              "internalType": "uint256",
              "name": "id",
              "type": "uint256"
            },
            {
              "internalType": "string",
              "name": "title",
              "type": "string"
            },
            {
              "internalType": "string",
              "name": "description",
              "type": "string"
            },
            {
              "internalType": "address",
              "name": "owner",
              "type": "address"
            },
            {
              "internalType": "uint256",
              "name": "participants",
              "type": "uint256"
            },
            {
              "internalType": "uint256",
              "name": "numberOfWinners",
              "type": "uint256"
            },
            {
              "internalType": "uint256",
              "name": "acceptees",
              "type": "uint256"
            },
            {
              "internalType": "uint256",
              "name": "stake",
              "type": "uint256"
            },
            {
              "internalType": "uint256",
              "name": "startDate",
              "type": "uint256"
            },
            {
              "internalType": "uint256",
              "name": "endDate",
              "type": "uint256"
            },
            {
              "internalType": "uint256",
              "name": "timestamp",
              "type": "uint256"
            },
            {
              "internalType": "bool",
              "name": "deleted",
              "type": "bool"
            },
            {
              "internalType": "bool",
              "name": "paidOut",
              "type": "bool"
            }
          ],
          "internalType": "struct PlayToEarnX.GameStruct[]",
          "name": "Games",
          "type": "tuple[]"
        }
      ],
      "stateMutability": "view",
      "type": "function"
    },
    {
      "inputs": [
        {
          "internalType": "uint256",
          "name": "gameId",
          "type": "uint256"
        }
      ],
      "name": "getInvitations",
      "outputs": [
        {
          "components": [
            {
              "internalType": "uint256",
              "name": "id",
              "type": "uint256"
            },
            {
              "internalType": "string",
              "name": "title",
              "type": "string"
            },
            {
              "internalType": "uint256",
              "name": "gameId",
              "type": "uint256"
            },
            {
              "internalType": "address",
              "name": "receiver",
              "type": "address"
            },
            {
              "internalType": "address",
              "name": "sender",
              "type": "address"
            },
            {
              "internalType": "bool",
              "name": "responded",
              "type": "bool"
            },
            {
              "internalType": "bool",
              "name": "accepted",
              "type": "bool"
            },
            {
              "internalType": "uint256",
              "name": "stake",
              "type": "uint256"
            },
            {
              "internalType": "uint256",
              "name": "timestamp",
              "type": "uint256"
            }
          ],
          "internalType": "struct PlayToEarnX.InvitationStruct[]",
          "name": "",
          "type": "tuple[]"
        }
      ],
      "stateMutability": "view",
      "type": "function"
    },
    {
      "inputs": [],
      "name": "getMyGames",
      "outputs": [
        {
          "components": [
            {
              "internalType": "uint256",
              "name": "id",
              "type": "uint256"
            },
            {
              "internalType": "string",
              "name": "title",
              "type": "string"
            },
            {
              "internalType": "string",
              "name": "description",
              "type": "string"
            },
            {
              "internalType": "address",
              "name": "owner",
              "type": "address"
            },
            {
              "internalType": "uint256",
              "name": "participants",
              "type": "uint256"
            },
            {
              "internalType": "uint256",
              "name": "numberOfWinners",
              "type": "uint256"
            },
            {
              "internalType": "uint256",
              "name": "acceptees",
              "type": "uint256"
            },
            {
              "internalType": "uint256",
              "name": "stake",
              "type": "uint256"
            },
            {
              "internalType": "uint256",
              "name": "startDate",
              "type": "uint256"
            },
            {
              "internalType": "uint256",
              "name": "endDate",
              "type": "uint256"
            },
            {
              "internalType": "uint256",
              "name": "timestamp",
              "type": "uint256"
            },
            {
              "internalType": "bool",
              "name": "deleted",
              "type": "bool"
            },
            {
              "internalType": "bool",
              "name": "paidOut",
              "type": "bool"
            }
          ],
          "internalType": "struct PlayToEarnX.GameStruct[]",
          "name": "Games",
          "type": "tuple[]"
        }
      ],
      "stateMutability": "view",
      "type": "function"
    },
    {
      "inputs": [],
      "name": "getMyInvitations",
      "outputs": [
        {
          "components": [
            {
              "internalType": "uint256",
              "name": "id",
              "type": "uint256"
            },
            {
              "internalType": "string",
              "name": "title",
              "type": "string"
            },
            {
              "internalType": "uint256",
              "name": "gameId",
              "type": "uint256"
            },
            {
              "internalType": "address",
              "name": "receiver",
              "type": "address"
            },
            {
              "internalType": "address",
              "name": "sender",
              "type": "address"
            },
            {
              "internalType": "bool",
              "name": "responded",
              "type": "bool"
            },
            {
              "internalType": "bool",
              "name": "accepted",
              "type": "bool"
            },
            {
              "internalType": "uint256",
              "name": "stake",
              "type": "uint256"
            },
            {
              "internalType": "uint256",
              "name": "timestamp",
              "type": "uint256"
            }
          ],
          "internalType": "struct PlayToEarnX.InvitationStruct[]",
          "name": "Invitations",
          "type": "tuple[]"
        }
      ],
      "stateMutability": "view",
      "type": "function"
    },
    {
      "inputs": [],
      "name": "getPaidOutGames",
      "outputs": [
        {
          "components": [
            {
              "internalType": "uint256",
              "name": "id",
              "type": "uint256"
            },
            {
              "internalType": "string",
              "name": "title",
              "type": "string"
            },
            {
              "internalType": "string",
              "name": "description",
              "type": "string"
            },
            {
              "internalType": "address",
              "name": "owner",
              "type": "address"
            },
            {
              "internalType": "uint256",
              "name": "participants",
              "type": "uint256"
            },
            {
              "internalType": "uint256",
              "name": "numberOfWinners",
              "type": "uint256"
            },
            {
              "internalType": "uint256",
              "name": "acceptees",
              "type": "uint256"
            },
            {
              "internalType": "uint256",
              "name": "stake",
              "type": "uint256"
            },
            {
              "internalType": "uint256",
              "name": "startDate",
              "type": "uint256"
            },
            {
              "internalType": "uint256",
              "name": "endDate",
              "type": "uint256"
            },
            {
              "internalType": "uint256",
              "name": "timestamp",
              "type": "uint256"
            },
            {
              "internalType": "bool",
              "name": "deleted",
              "type": "bool"
            },
            {
              "internalType": "bool",
              "name": "paidOut",
              "type": "bool"
            }
          ],
          "internalType": "struct PlayToEarnX.GameStruct[]",
          "name": "Games",
          "type": "tuple[]"
        }
      ],
      "stateMutability": "view",
      "type": "function"
    },
    {
      "inputs": [
        {
          "internalType": "uint256",
          "name": "gameId",
          "type": "uint256"
        }
      ],
      "name": "getScores",
      "outputs": [
        {
          "components": [
            {
              "internalType": "uint256",
              "name": "id",
              "type": "uint256"
            },
            {
              "internalType": "uint256",
              "name": "gameId",
              "type": "uint256"
            },
            {
              "internalType": "address",
              "name": "player",
              "type": "address"
            },
            {
              "internalType": "uint256",
              "name": "score",
              "type": "uint256"
            },
            {
              "internalType": "uint256",
              "name": "prize",
              "type": "uint256"
            },
            {
              "internalType": "bool",
              "name": "played",
              "type": "bool"
            }
          ],
          "internalType": "struct PlayToEarnX.ScoreStruct[]",
          "name": "",
          "type": "tuple[]"
        }
      ],
      "stateMutability": "view",
      "type": "function"
    },
    {
      "inputs": [
        {
          "internalType": "address",
          "name": "spender",
          "type": "address"
        },
        {
          "internalType": "uint256",
          "name": "addedValue",
          "type": "uint256"
        }
      ],
      "name": "increaseAllowance",
      "outputs": [
        {
          "internalType": "bool",
          "name": "",
          "type": "bool"
        }
      ],
      "stateMutability": "nonpayable",
      "type": "function"
    },
    {
      "inputs": [
        {
          "internalType": "address",
          "name": "receiver",
          "type": "address"
        },
        {
          "internalType": "uint256",
          "name": "gameId",
          "type": "uint256"
        }
      ],
      "name": "invitePlayer",
      "outputs": [],
      "stateMutability": "nonpayable",
      "type": "function"
    },
    {
      "inputs": [],
      "name": "name",
      "outputs": [
        {
          "internalType": "string",
          "name": "",
          "type": "string"
        }
      ],
      "stateMutability": "view",
      "type": "function"
    },
    {
      "inputs": [],
      "name": "owner",
      "outputs": [
        {
          "internalType": "address",
          "name": "",
          "type": "address"
        }
      ],
      "stateMutability": "view",
      "type": "function"
    },
    {
      "inputs": [
        {
          "internalType": "uint256",
          "name": "gameId",
          "type": "uint256"
        }
      ],
      "name": "payout",
      "outputs": [],
      "stateMutability": "nonpayable",
      "type": "function"
    },
    {
      "inputs": [
        {
          "internalType": "uint256",
          "name": "gameId",
          "type": "uint256"
        },
        {
          "internalType": "uint256",
          "name": "index",
          "type": "uint256"
        },
        {
          "internalType": "uint256",
          "name": "score",
          "type": "uint256"
        }
      ],
      "name": "playGame",
      "outputs": [],
      "stateMutability": "nonpayable",
      "type": "function"
    },
    {
      "inputs": [
        {
          "internalType": "uint256",
          "name": "gameId",
          "type": "uint256"
        },
        {
          "internalType": "uint256",
          "name": "index",
          "type": "uint256"
        }
      ],
      "name": "rejectInvitation",
      "outputs": [],
      "stateMutability": "nonpayable",
      "type": "function"
    },
    {
      "inputs": [],
      "name": "renounceOwnership",
      "outputs": [],
      "stateMutability": "nonpayable",
      "type": "function"
    },
    {
      "inputs": [
        {
          "internalType": "uint256",
          "name": "_pct",
          "type": "uint256"
        }
      ],
      "name": "setFeePercent",
      "outputs": [],
      "stateMutability": "nonpayable",
      "type": "function"
    },
    {
      "inputs": [],
      "name": "symbol",
      "outputs": [
        {
          "internalType": "string",
          "name": "",
          "type": "string"
        }
      ],
      "stateMutability": "view",
      "type": "function"
    },
    {
      "inputs": [],
      "name": "totalSupply",
      "outputs": [
        {
          "internalType": "uint256",
          "name": "",
          "type": "uint256"
        }
      ],
      "stateMutability": "view",
      "type": "function"
    },
    {
      "inputs": [
        {
          "internalType": "address",
          "name": "to",
          "type": "address"
        },
        {
          "internalType": "uint256",
          "name": "amount",
          "type": "uint256"
        }
      ],
      "name": "transfer",
      "outputs": [
        {
          "internalType": "bool",
          "name": "",
          "type": "bool"
        }
      ],
      "stateMutability": "nonpayable",
      "type": "function"
    },
    {
      "inputs": [
        {
          "internalType": "address",
          "name": "from",
          "type": "address"
        },
        {
          "internalType": "address",
          "name": "to",
          "type": "address"
        },
        {
          "internalType": "uint256",
          "name": "amount",
          "type": "uint256"
        }
      ],
      "name": "transferFrom",
      "outputs": [
        {
          "internalType": "bool",
          "name": "",
          "type": "bool"
        }
      ],
      "stateMutability": "nonpayable",
      "type": "function"
    },
    {
      "inputs": [
        {
          "internalType": "address",
          "name": "newOwner",
          "type": "address"
        }
      ],
      "name": "transferOwnership",
      "outputs": [],
      "stateMutability": "nonpayable",
      "type": "function"
    }
  ],
  "bytecode": "0x60806040523480156200001157600080fd5b50604051620042603803806200426083398101604081905262000034916200010d565b60405180604001604052806009815260200168283630bc9922b0b93760b91b8152506040518060400160405280600381526020016250324560e81b8152506200008c62000086620000b960201b60201c565b620000bd565b6001805560056200009e8382620001cc565b506006620000ad8282620001cc565b505050600b5562000298565b3390565b600080546001600160a01b038381166001600160a01b0319831681178455604051919092169283917f8be0079c531659141344cd1fd0a4f28419497f9722a3daafe3b4186f6b6457e09190a35050565b6000602082840312156200012057600080fd5b5051919050565b634e487b7160e01b600052604160045260246000fd5b600181811c908216806200015257607f821691505b6020821081036200017357634e487b7160e01b600052602260045260246000fd5b50919050565b601f821115620001c757600081815260208120601f850160051c81016020861015620001a25750805b601f850160051c820191505b81811015620001c357828155600101620001ae565b5050505b505050565b81516001600160401b03811115620001e857620001e862000127565b6200020081620001f984546200013d565b8462000179565b602080601f8311600181146200023857600084156200021f5750858301515b600019600386901b1c1916600185901b178555620001c3565b600085815260208120601f198616915b82811015620002695788860151825594840194600190910190840162000248565b5085821015620002885787850151600019600388901b60f8161c191681555b5050505050600190811b01905550565b613fb880620002a86000396000f3fe6080604052600436106101c25760003560e01c8063715018a6116100f7578063a09621c711610095578063c04c594711610064578063c04c594714610500578063dd62ed3e14610515578063e115234314610535578063f2fde38b1461055557600080fd5b8063a09621c714610473578063a2f77bcc14610493578063a457c2d7146104c0578063a9059cbb146104e057600080fd5b8063872ff923116100d1578063872ff923146103ff5780638da5cb5b1461041457806390d559a71461043c57806395d89b411461045e57600080fd5b8063715018a6146103b75780637a2f2136146103cc5780637ce3489b146103df57600080fd5b806323b872dd11610164578063395093511161013e578063395093511461032157806339bd3bbb146103415780635d12ace41461036157806370a082311461038157600080fd5b806323b872dd146102c5578063248a55a1146102e5578063313ce5671461030557600080fd5b8063095ea7b3116101a0578063095ea7b31461024157806318160ddd146102715780631eb4a1e5146102905780632246fe0b146102a557600080fd5b80630210d751146101c757806304527d90146101f257806306fdde031461021f575b600080fd5b3480156101d357600080fd5b506101dc610575565b6040516101e991906138e3565b60405180910390f35b3480156101fe57600080fd5b5061021261020d366004613945565b610896565b6040516101e9919061395e565b34801561022b57600080fd5b5061023461094c565b6040516101e991906139e1565b34801561024d57600080fd5b5061026161025c366004613a10565b6109de565b60405190151581526020016101e9565b34801561027d57600080fd5b506004545b6040519081526020016101e9565b6102a361029e366004613add565b6109f8565b005b3480156102b157600080fd5b506102a36102c0366004613a10565b610e5b565b3480156102d157600080fd5b506102616102e0366004613b64565b611147565b3480156102f157600080fd5b506102a3610300366004613945565b61116b565b34801561031157600080fd5b50604051601281526020016101e9565b34801561032d57600080fd5b5061026161033c366004613a10565b61134f565b34801561034d57600080fd5b506102a361035c366004613ba0565b611371565b34801561036d57600080fd5b506102a361037c366004613bc2565b61144c565b34801561038d57600080fd5b5061028261039c366004613bee565b6001600160a01b031660009081526002602052604090205490565b3480156103c357600080fd5b506102a36116c2565b6102a36103da366004613ba0565b6116d6565b3480156103eb57600080fd5b506102a36103fa366004613945565b6118f2565b34801561040b57600080fd5b506101dc611971565b34801561042057600080fd5b506000546040516001600160a01b0390911681526020016101e9565b34801561044857600080fd5b50610451611c86565b6040516101e99190613c09565b34801561046a57600080fd5b50610234611f20565b34801561047f57600080fd5b5061045161048e366004613945565b611f2f565b34801561049f57600080fd5b506104b36104ae366004613945565b61209b565b6040516101e99190613ce5565b3480156104cc57600080fd5b506102616104db366004613a10565b612275565b3480156104ec57600080fd5b506102616104fb366004613a10565b6122f0565b34801561050c57600080fd5b506101dc6122fe565b34801561052157600080fd5b50610282610530366004613cf8565b612615565b34801561054157600080fd5b506102a3610550366004613945565b612640565b34801561056157600080fd5b506102a3610570366004613bee565b612c62565b6060600060015b60075481116105e5576000818152600d60205260409020600b015460ff161580156105c057506000818152600d60205260409020600301546001600160a01b031633145b156105d357816105cf81613d41565b9250505b806105dd81613d41565b91505061057c565b508067ffffffffffffffff8111156105ff576105ff613a3a565b60405190808252806020026020018201604052801561063857816020015b6106256136b5565b81526020019060019003908161061d5790505b509150600060015b6007548111610890576000818152600d60205260409020600b015460ff1615801561068457506000818152600d60205260409020600301546001600160a01b031633145b1561087e57600d6000828152602001908152602001600020604051806101a0016040529081600082015481526020016001820180546106c290613d5a565b80601f01602080910402602001604051908101604052809291908181526020018280546106ee90613d5a565b801561073b5780601f106107105761010080835404028352916020019161073b565b820191906000526020600020905b81548152906001019060200180831161071e57829003601f168201915b5050505050815260200160028201805461075490613d5a565b80601f016020809104026020016040519081016040528092919081815260200182805461078090613d5a565b80156107cd5780601f106107a2576101008083540402835291602001916107cd565b820191906000526020600020905b8154815290600101906020018083116107b057829003601f168201915b505050918352505060038201546001600160a01b03166020820152600482015460408201526005820154606082015260068201546080820152600782015460a0820152600882015460c0820152600982015460e0820152600a82015461010080830191909152600b9092015460ff8082161515610120840152929004909116151561014090910152848361086081613d41565b94508151811061087257610872613d94565b60200260200101819052505b8061088881613d41565b915050610640565b50505090565b6060600f6000838152602001908152602001600020805480602002602001604051908101604052809291908181526020016000905b828210156109415760008481526020908190206040805160c08101825260068602909201805483526001808201548486015260028201546001600160a01b03169284019290925260038101546060840152600481015460808401526005015460ff16151560a083015290835290920191016108cb565b505050509050919050565b60606005805461095b90613d5a565b80601f016020809104026020016040519081016040528092919081815260200182805461098790613d5a565b80156109d45780601f106109a9576101008083540402835291602001916109d4565b820191906000526020600020905b8154815290600101906020018083116109b757829003601f168201915b5050505050905090565b6000336109ec818585612cd8565b60019150505b92915050565b60003411610a4d5760405162461bcd60e51b815260206004820152601f60248201527f5374616b65206d7573742062652067726561746572207468616e207a65726f0060448201526064015b60405180910390fd5b60018411610aab5760405162461bcd60e51b815260206004820152602560248201527f5061727469636970616e7473206d7573742062652067726561746572207468616044820152646e206f6e6560d81b6064820152608401610a44565b6000865111610af45760405162461bcd60e51b81526020600482015260156024820152745469746c652063616e6e6f7420626520656d70747960581b6044820152606401610a44565b6000855111610b455760405162461bcd60e51b815260206004820152601b60248201527f4465736372697074696f6e2063616e6e6f7420626520656d70747900000000006044820152606401610a44565b60008211610ba15760405162461bcd60e51b8152602060048201526024808201527f53746172742064617465206d7573742062652067726561746572207468616e206044820152637a65726f60e01b6064820152608401610a44565b818111610c015760405162461bcd60e51b815260206004820152602860248201527f456e642064617465206d7573742062652067726561746572207468616e207374604482015267617274206461746560c01b6064820152608401610a44565b60008311610c515760405162461bcd60e51b815260206004820181905260248201527f4e756d626572204f662077696e6e6572732063616e6e6f74206265207a65726f6044820152606401610a44565b610c5f600780546001019055565b610c676136b5565b600754815260208101879052604081018690526080810185905260a08101849052610100810183905261012081018290523460e0820152336060820152610cac612dfc565b61014082015280516000908152600d6020908152604090912082518155908201518291906001820190610cdf9082613df8565b5060408201516002820190610cf49082613df8565b5060608201516003820180546001600160a01b0319166001600160a01b039092169190911790556080820151600482015560a0820151600582015560c0820151600682015560e082015160078201556101008083015160088301556101208301516009830155610140830151600a830155610160830151600b90920180546101809094015161ffff1990941692151561ff001916929092179215150291909117905580516000908152600c60205260409020805460ff191660011790558051610dbc90612e1b565b610e025760405162461bcd60e51b81526020600482015260176024820152762330b4b632b2103a379031b932b0ba3290383630bcb2b960491b6044820152606401610a44565b8051610e0d90612f1d565b610e525760405162461bcd60e51b81526020600482015260166024820152754661696c656420746f206372656174652073636f726560501b6044820152606401610a44565b50505050505050565b6000818152600c602052604090205460ff16610e895760405162461bcd60e51b8152600401610a4490613eb8565b6000818152600d60205260409020600481015460069091015410610ee15760405162461bcd60e51b815260206004820152600f60248201526e4f7574206f6620636170616369747960881b6044820152606401610a44565b60008181526010602090815260408083206001600160a01b038616845290915290205460ff1615610f545760405162461bcd60e51b815260206004820152601760248201527f506c6179657220616c72656164792061636365707465640000000000000000006044820152606401610a44565b610f62600980546001019055565b610f6a61372a565b600954815260408082018390526000838152600d602052206001018054610f9090613d5a565b80601f0160208091040260200160405190810160405280929190818152602001828054610fbc90613d5a565b80156110095780601f10610fde57610100808354040283529160200191611009565b820191906000526020600020905b815481529060010190602001808311610fec57829003601f168201915b505050505060208201526001600160a01b0383166060820152336080820152611030612dfc565b6101008201526000828152600d6020908152604080832060079081015460e0860152858452601183528184206001600160a01b03881685528352818420805460ff1916600190811790915586855260128452918420805480840182559085529383902085519490910201928355908301518392918201906110b19082613df8565b506040820151600282015560608201516003820180546001600160a01b0319166001600160a01b03928316179055608083015160048301805460a086015160c0870151939094166001600160a81b031990911617600160a01b931515939093029290921760ff60a81b1916600160a81b9115159190910217905560e0820151600582015561010090910151600690910155505050565b600033611155858285612fc1565b61116085858561303b565b506001949350505050565b6000818152600c602052604090205460ff166111995760405162461bcd60e51b8152600401610a4490613eb8565b6000818152600d60205260409020600301546001600160a01b031633146111d25760405162461bcd60e51b8152600401610a4490613ee0565b6000818152600d60205260409020600601546001146112335760405162461bcd60e51b815260206004820152601c60248201527f5061727469636970616e747320616c726561647920696e2067616d65000000006044820152606401610a44565b6000818152600e6020526040902080548061125057611250613f0d565b600082815260208082206003600019909401938402018281556001810183905560020180546001600160a01b031916905591909255828252600f90526040902080548061129f5761129f613f0d565b60008281526020808220600660001990940193840201828155600181018390556002810180546001600160a01b03191690556003810183905560048101839055600501805460ff1990811690915592909355838152601083526040808220338084529085528183208054909416909355848252600d909352919091206007015461132991906131e6565b6000908152600d602052604081206006810191909155600b01805460ff19166001179055565b6000336109ec8185856113628383612615565b61136c9190613f23565b612cd8565b6000828152600c602052604090205460ff1661139f5760405162461bcd60e51b8152600401610a4490613eb8565b60008281526012602052604090208054339190839081106113c2576113c2613d94565b60009182526020909120600360079092020101546001600160a01b0316146113fc5760405162461bcd60e51b8152600401610a4490613ee0565b60008281526012602052604090208054600191908390811061142057611420613d94565b906000526020600020906007020160040160146101000a81548160ff0219169083151502179055505050565b6000838152600c602052604090205460ff1661147a5760405162461bcd60e51b8152600401610a4490613eb8565b6000838152600d602052604090206005810154600690910154116114d95760405162461bcd60e51b8152602060048201526016602482015275139bdd08195b9bdd59da081c1b185e595c9cc81e595d60521b6044820152606401610a44565b6000838152600f602052604090208054339190849081106114fc576114fc613d94565b60009182526020909120600260069092020101546001600160a01b0316146115365760405162461bcd60e51b8152600401610a4490613ee0565b6000838152600f6020526040902080548390811061155657611556613d94565b600091825260209091206005600690920201015460ff16156115b35760405162461bcd60e51b815260206004820152601660248201527514d8dbdc9948185b1c9958591e481c9958dbdc99195960521b6044820152606401610a44565b6000838152600d60205260409020600801546115cd612dfc565b1180156115f157506000838152600d60205260409020600901546115ef612dfc565b105b61163d5760405162461bcd60e51b815260206004820152601c60248201527f47616d6520706c6179206d75737420626520696e2073657373696f6e000000006044820152606401610a44565b6000838152600f6020526040902080548291908490811061166057611660613d94565b9060005260206000209060060201600301819055506001600f6000858152602001908152602001600020838154811061169b5761169b613d94565b60009182526020909120600690910201600501805460ff1916911515919091179055505050565b6116ca61324b565b6116d460006132a5565b565b6000828152600c602052604090205460ff166117045760405162461bcd60e51b8152600401610a4490613eb8565b6000828152600d602052604090206007015434101561175a5760405162461bcd60e51b8152602060048201526012602482015271125b9cdd599998da595b9d08185b5bdd5b9d60721b6044820152606401610a44565b600082815260126020526040902080543391908390811061177d5761177d613d94565b60009182526020909120600360079092020101546001600160a01b0316146117b75760405162461bcd60e51b8152600401610a4490613ee0565b6117c082612e1b565b6118065760405162461bcd60e51b81526020600482015260176024820152762330b4b632b2103a379031b932b0ba3290383630bcb2b960491b6044820152606401610a44565b61180f82612f1d565b6118545760405162461bcd60e51b81526020600482015260166024820152754661696c656420746f206372656174652073636f726560501b6044820152606401610a44565b60008281526012602052604090208054600191908390811061187857611878613d94565b906000526020600020906007020160040160146101000a81548160ff02191690831515021790555060016012600084815260200190815260200160002082815481106118c6576118c6613d94565b906000526020600020906007020160040160156101000a81548160ff0219169083151502179055505050565b6118fa61324b565b60008111801561190b5750600a8111155b61196c5760405162461bcd60e51b815260206004820152602c60248201527f4665652070657263656e74206d75737420626520696e207468652072616e676560448201526b206f66202831202d2031302960a01b6064820152608401610a44565b600b55565b6060600060015b60075481116119de576000818152600d60205260409020600b015460ff161580156119b957506000818152600d60205260409020600b0154610100900460ff165b156119cc57816119c881613d41565b9250505b806119d681613d41565b915050611978565b508067ffffffffffffffff8111156119f8576119f8613a3a565b604051908082528060200260200182016040528015611a3157816020015b611a1e6136b5565b815260200190600190039081611a165790505b509150600060015b6007548111610890576000818152600d60205260409020600b015460ff16158015611a7a57506000818152600d60205260409020600b0154610100900460ff165b15611c7457600d6000828152602001908152602001600020604051806101a001604052908160008201548152602001600182018054611ab890613d5a565b80601f0160208091040260200160405190810160405280929190818152602001828054611ae490613d5a565b8015611b315780601f10611b0657610100808354040283529160200191611b31565b820191906000526020600020905b815481529060010190602001808311611b1457829003601f168201915b50505050508152602001600282018054611b4a90613d5a565b80601f0160208091040260200160405190810160405280929190818152602001828054611b7690613d5a565b8015611bc35780601f10611b9857610100808354040283529160200191611bc3565b820191906000526020600020905b815481529060010190602001808311611ba657829003601f168201915b505050918352505060038201546001600160a01b03166020820152600482015460408201526005820154606082015260068201546080820152600782015460a0820152600882015460c0820152600982015460e0820152600a82015461010080830191909152600b9092015460ff80821615156101208401529290049091161515610140909101528483611c5681613d41565b945081518110611c6857611c68613d94565b60200260200101819052505b80611c7e81613d41565b915050611a39565b6060600060015b6007548111611cd857600081815260116020908152604080832033845290915290205460ff1615611cc65781611cc281613d41565b9250505b80611cd081613d41565b915050611c8d565b508067ffffffffffffffff811115611cf257611cf2613a3a565b604051908082528060200260200182016040528015611d2b57816020015b611d1861372a565b815260200190600190039081611d105790505b509150600060015b600754811161089057600081815260116020908152604080832033845290915290205460ff1615611f0e5760005b600082815260126020526040902054811015611f0c576000828152601260205260409020805482908110611d9757611d97613d94565b90600052602060002090600702016040518061012001604052908160008201548152602001600182018054611dcb90613d5a565b80601f0160208091040260200160405190810160405280929190818152602001828054611df790613d5a565b8015611e445780601f10611e1957610100808354040283529160200191611e44565b820191906000526020600020905b815481529060010190602001808311611e2757829003601f168201915b50505091835250506002820154602082015260038201546001600160a01b0390811660408301526004830154908116606083015260ff600160a01b8204811615156080840152600160a81b90910416151560a0820152600582015460c082015260069091015460e0909101528551869085908110611ec457611ec4613d94565b602002602001018190525080858480611edc90613d41565b955081518110611eee57611eee613d94565b60209081029190910101515280611f0481613d41565b915050611d61565b505b80611f1881613d41565b915050611d33565b60606006805461095b90613d5a565b606060126000838152602001908152602001600020805480602002602001604051908101604052809291908181526020016000905b8282101561094157838290600052602060002090600702016040518061012001604052908160008201548152602001600182018054611fa290613d5a565b80601f0160208091040260200160405190810160405280929190818152602001828054611fce90613d5a565b801561201b5780601f10611ff05761010080835404028352916020019161201b565b820191906000526020600020905b815481529060010190602001808311611ffe57829003601f168201915b5050509183525050600282015460208083019190915260038301546001600160a01b0390811660408401526004840154908116606084015260ff600160a01b8204811615156080850152600160a81b90910416151560a0830152600583015460c083015260069092015460e0909101529082526001929092019101611f64565b6120a36136b5565b600d6000838152602001908152602001600020604051806101a0016040529081600082015481526020016001820180546120dc90613d5a565b80601f016020809104026020016040519081016040528092919081815260200182805461210890613d5a565b80156121555780601f1061212a57610100808354040283529160200191612155565b820191906000526020600020905b81548152906001019060200180831161213857829003601f168201915b5050505050815260200160028201805461216e90613d5a565b80601f016020809104026020016040519081016040528092919081815260200182805461219a90613d5a565b80156121e75780601f106121bc576101008083540402835291602001916121e7565b820191906000526020600020905b8154815290600101906020018083116121ca57829003601f168201915b505050918352505060038201546001600160a01b03166020820152600482015460408201526005820154606082015260068201546080820152600782015460a0820152600882015460c0820152600982015460e0820152600a82015461010080830191909152600b9092015460ff808216151561012084015292900490911615156101409091015292915050565b600033816122838286612615565b9050838110156122e35760405162461bcd60e51b815260206004820152602560248201527f45524332303a2064656372656173656420616c6c6f77616e63652062656c6f77604482015264207a65726f60d81b6064820152608401610a44565b6111608286868403612cd8565b6000336109ec81858561303b565b6060600060015b600754811161236c576000818152600d60205260409020600b015460ff1615801561234757506000818152600d60205260409020600b0154610100900460ff16155b1561235a578161235681613d41565b9250505b8061236481613d41565b915050612305565b508067ffffffffffffffff81111561238657612386613a3a565b6040519080825280602002602001820160405280156123bf57816020015b6123ac6136b5565b8152602001906001900390816123a45790505b509150600060015b6007548111610890576000818152600d60205260409020600b015460ff1615801561240957506000818152600d60205260409020600b0154610100900460ff16155b1561260357600d6000828152602001908152602001600020604051806101a00160405290816000820154815260200160018201805461244790613d5a565b80601f016020809104026020016040519081016040528092919081815260200182805461247390613d5a565b80156124c05780601f10612495576101008083540402835291602001916124c0565b820191906000526020600020905b8154815290600101906020018083116124a357829003601f168201915b505050505081526020016002820180546124d990613d5a565b80601f016020809104026020016040519081016040528092919081815260200182805461250590613d5a565b80156125525780601f1061252757610100808354040283529160200191612552565b820191906000526020600020905b81548152906001019060200180831161253557829003601f168201915b505050918352505060038201546001600160a01b03166020820152600482015460408201526005820154606082015260068201546080820152600782015460a0820152600882015460c0820152600982015460e0820152600a82015461010080830191909152600b9092015460ff808216151561012084015292900490911615156101409091015284836125e581613d41565b9450815181106125f7576125f7613d94565b60200260200101819052505b8061260d81613d41565b9150506123c7565b6001600160a01b03918216600090815260036020908152604080832093909416825291909152205490565b6126486132f5565b6000818152600c602052604090205460ff1661269c5760405162461bcd60e51b815260206004820152601360248201527211d85b5948191bd95cc81b9bdd08195e1a5cdd606a1b6044820152606401610a44565b6000818152600d60205260409020600901546126b6612dfc565b116126fb5760405162461bcd60e51b815260206004820152601560248201527423b0b6b29039ba34b6361034b71039b2b9b9b4b7b760591b6044820152606401610a44565b6000818152600d60205260409020600b0154610100900460ff161561275a5760405162461bcd60e51b815260206004820152601560248201527411d85b5948185b1c9958591e481c185a59081bdd5d605a1b6044820152606401610a44565b6000600d6000838152602001908152602001600020604051806101a00160405290816000820154815260200160018201805461279590613d5a565b80601f01602080910402602001604051908101604052809291908181526020018280546127c190613d5a565b801561280e5780601f106127e35761010080835404028352916020019161280e565b820191906000526020600020905b8154815290600101906020018083116127f157829003601f168201915b5050505050815260200160028201805461282790613d5a565b80601f016020809104026020016040519081016040528092919081815260200182805461285390613d5a565b80156128a05780601f10612875576101008083540402835291602001916128a0565b820191906000526020600020905b81548152906001019060200180831161288357829003601f168201915b505050918352505060038201546001600160a01b03166020820152600482015460408201526005820154606082015260068201546080820152600782015460a0820152600882015460c080830191909152600983015460e080840191909152600a84015461010080850191909152600b9094015460ff8082161515610120860152949004909316151561014090920191909152820151908201519192506000916129499161334e565b9050600061296d6064612967600b548561334e90919063ffffffff16565b90613361565b9050600061297c826002613361565b905060006129948261298e868661336d565b9061336d565b90506129b16129ab6000546001600160a01b031690565b846131e6565b6129bf8560600151836131e6565b6000868152600f602052604081205467ffffffffffffffff8111156129e6576129e6613a3a565b604051908082528060200260200182016040528015612a1f57816020015b612a0c61378c565b815260200190600190039081612a045790505b506000888152600f602090815260408083208054825181850281018501909352808352949550612acf949193909284015b82821015612ac65760008481526020908190206040805160c08101825260068602909201805483526001808201548486015260028201546001600160a01b03169284019290925260038101546060840152600481015460808401526005015460ff16151560a08301529083529092019101612a50565b50505050613379565b905060005b8660a00151811015612c30576000612af98860a001518561336190919063ffffffff16565b9050612b22838381518110612b1057612b10613d94565b602002602001015160400151826131e6565b612b49838381518110612b3757612b37613d94565b602002602001015160400151826135ee565b60005b60008a8152600f6020526040902054811015612c1b5760008a8152600f60205260409020805482908110612b8257612b82613d94565b600091825260209091206002600690920201015484516001600160a01b0390911690859085908110612bb657612bb6613d94565b6020026020010151604001516001600160a01b031603612c095760008a8152600f60205260409020805483919083908110612bf357612bf3613d94565b9060005260206000209060060201600401819055505b80612c1381613d41565b915050612b4c565b50508080612c2890613d41565b915050612ad4565b5050506000858152600d60205260409020600b01805461ff00191661010017905550612c5f92506136af915050565b50565b612c6a61324b565b6001600160a01b038116612ccf5760405162461bcd60e51b815260206004820152602660248201527f4f776e61626c653a206e6577206f776e657220697320746865207a65726f206160448201526564647265737360d01b6064820152608401610a44565b612c5f816132a5565b6001600160a01b038316612d3a5760405162461bcd60e51b8152602060048201526024808201527f45524332303a20617070726f76652066726f6d20746865207a65726f206164646044820152637265737360e01b6064820152608401610a44565b6001600160a01b038216612d9b5760405162461bcd60e51b815260206004820152602260248201527f45524332303a20617070726f766520746f20746865207a65726f206164647265604482015261737360f01b6064820152608401610a44565b6001600160a01b0383811660008181526003602090815260408083209487168084529482529182902085905590518481527f8c5be1e5ebec7d5bd14f71427d1e84f3dd0314c0f7b2291e5b200ac8c7c3b925910160405180910390a3505050565b6000612e0a426103e8613f36565b612e16906103e8613f23565b905090565b6000612e2b600880546001019055565b612e586040518060600160405280600081526020016000815260200160006001600160a01b031681525090565b600854815260208082018481523360408085018281526000888152600e865282812080546001808201835591835287832089516003909202019081559551868201559151600290950180546001600160a01b0319166001600160a01b039096169590951790945587845260108552818420928452918452808320805460ff1916909217909155858252600d909252908120600601805491612ef883613d41565b919050555034600a6000828254612f0f9190613f23565b909155506001949350505050565b6000612f2761378c565b6000838152600f602081815260408084208054808752868401988952339287019283529383526001808501825590855291909320845160069093020191825594518186015590516002820180546001600160a01b0319166001600160a01b03909216919091179055606082015160038201556080820151600482015560a0909101516005909101805460ff19169115159190911790555090565b6000612fcd8484612615565b9050600019811461303557818110156130285760405162461bcd60e51b815260206004820152601d60248201527f45524332303a20696e73756666696369656e7420616c6c6f77616e63650000006044820152606401610a44565b6130358484848403612cd8565b50505050565b6001600160a01b03831661309f5760405162461bcd60e51b815260206004820152602560248201527f45524332303a207472616e736665722066726f6d20746865207a65726f206164604482015264647265737360d81b6064820152608401610a44565b6001600160a01b0382166131015760405162461bcd60e51b815260206004820152602360248201527f45524332303a207472616e7366657220746f20746865207a65726f206164647260448201526265737360e81b6064820152608401610a44565b6001600160a01b038316600090815260026020526040902054818110156131795760405162461bcd60e51b815260206004820152602660248201527f45524332303a207472616e7366657220616d6f756e7420657863656564732062604482015265616c616e636560d01b6064820152608401610a44565b6001600160a01b0380851660008181526002602052604080822086860390559286168082529083902080548601905591517fddf252ad1be2c89b69c2b068fc378daa952ba7f163c4a11628f55a4df523b3ef906131d99086815260200190565b60405180910390a3613035565b6000826001600160a01b03168260405160006040518083038185875af1925050503d8060008114613233576040519150601f19603f3d011682016040523d82523d6000602084013e613238565b606091505b505090508061324657600080fd5b505050565b6000546001600160a01b031633146116d45760405162461bcd60e51b815260206004820181905260248201527f4f776e61626c653a2063616c6c6572206973206e6f7420746865206f776e65726044820152606401610a44565b600080546001600160a01b038381166001600160a01b0319831681178455604051919092169283917f8be0079c531659141344cd1fd0a4f28419497f9722a3daafe3b4186f6b6457e09190a35050565b6002600154036133475760405162461bcd60e51b815260206004820152601f60248201527f5265656e7472616e637947756172643a207265656e7472616e742063616c6c006044820152606401610a44565b6002600155565b600061335a8284613f36565b9392505050565b600061335a8284613f4d565b600061335a8284613f6f565b805160609060005b61338c600183613f6f565b8110156135e65760005b60016133a28285613f6f565b6133ac9190613f6f565b8110156135d3578481815181106133c5576133c5613d94565b602002602001015160a0015180156134015750846133e4826001613f23565b815181106133f4576133f4613d94565b602002602001015160a001515b156134e25784613412826001613f23565b8151811061342257613422613d94565b60200260200101516060015185828151811061344057613440613d94565b60200260200101516060015111156134dd57600085828151811061346657613466613d94565b602002602001015190508582600161347e9190613f23565b8151811061348e5761348e613d94565b60200260200101518683815181106134a8576134a8613d94565b602090810291909101015280866134c0846001613f23565b815181106134d0576134d0613d94565b6020026020010181905250505b6135c1565b8481815181106134f4576134f4613d94565b602002602001015160a00151158015613531575084613514826001613f23565b8151811061352457613524613d94565b602002602001015160a001515b156135c157600085828151811061354a5761354a613d94565b60200260200101519050858260016135629190613f23565b8151811061357257613572613d94565b602002602001015186838151811061358c5761358c613d94565b602090810291909101015280866135a4846001613f23565b815181106135b4576135b4613d94565b6020026020010181905250505b806135cb81613d41565b915050613396565b50806135de81613d41565b915050613381565b509192915050565b6001600160a01b0382166136445760405162461bcd60e51b815260206004820152601f60248201527f45524332303a206d696e7420746f20746865207a65726f2061646472657373006044820152606401610a44565b80600460008282546136569190613f23565b90915550506001600160a01b0382166000818152600260209081526040808320805486019055518481527fddf252ad1be2c89b69c2b068fc378daa952ba7f163c4a11628f55a4df523b3ef910160405180910390a35050565b60018055565b604051806101a0016040528060008152602001606081526020016060815260200160006001600160a01b03168152602001600081526020016000815260200160008152602001600081526020016000815260200160008152602001600081526020016000151581526020016000151581525090565b60405180610120016040528060008152602001606081526020016000815260200160006001600160a01b0316815260200160006001600160a01b0316815260200160001515815260200160001515815260200160008152602001600081525090565b6040518060c00160405280600081526020016000815260200160006001600160a01b0316815260200160008152602001600081526020016000151581525090565b6000815180845260005b818110156137f3576020818501810151868301820152016137d7565b506000602082860101526020601f19601f83011685010191505092915050565b60006101a0825184526020830151816020860152613833828601826137cd565b9150506040830151848203604086015261384d82826137cd565b915050606083015161386a60608601826001600160a01b03169052565b506080830151608085015260a083015160a085015260c083015160c085015260e083015160e0850152610100808401518186015250610120808401518186015250610140808401518186015250610160808401516138cb8287018215159052565b50506101809283015115159390920192909252919050565b6000602080830181845280855180835260408601915060408160051b870101925083870160005b8281101561393857603f19888603018452613926858351613813565b9450928501929085019060010161390a565b5092979650505050505050565b60006020828403121561395757600080fd5b5035919050565b602080825282518282018190526000919060409081850190868401855b828110156139d4578151805185528681015187860152858101516001600160a01b031686860152606080820151908601526080808201519086015260a09081015115159085015260c0909301929085019060010161397b565b5091979650505050505050565b60208152600061335a60208301846137cd565b80356001600160a01b0381168114613a0b57600080fd5b919050565b60008060408385031215613a2357600080fd5b613a2c836139f4565b946020939093013593505050565b634e487b7160e01b600052604160045260246000fd5b600082601f830112613a6157600080fd5b813567ffffffffffffffff80821115613a7c57613a7c613a3a565b604051601f8301601f19908116603f01168101908282118183101715613aa457613aa4613a3a565b81604052838152866020858801011115613abd57600080fd5b836020870160208301376000602085830101528094505050505092915050565b60008060008060008060c08789031215613af657600080fd5b863567ffffffffffffffff80821115613b0e57600080fd5b613b1a8a838b01613a50565b97506020890135915080821115613b3057600080fd5b50613b3d89828a01613a50565b96999698505050506040850135946060810135946080820135945060a09091013592509050565b600080600060608486031215613b7957600080fd5b613b82846139f4565b9250613b90602085016139f4565b9150604084013590509250925092565b60008060408385031215613bb357600080fd5b50508035926020909101359150565b600080600060608486031215613bd757600080fd5b505081359360208301359350604090920135919050565b600060208284031215613c0057600080fd5b61335a826139f4565b60006020808301818452808551808352604092508286019150828160051b87010184880160005b83811015613cd757603f1989840301855281516101208151855288820151818a870152613c5f828701826137cd565b9150508782015188860152606080830151613c84828801826001600160a01b03169052565b50506080828101516001600160a01b03169086015260a08083015115159086015260c08083015115159086015260e080830151908601526101009182015191909401529386019390860190600101613c30565b509098975050505050505050565b60208152600061335a6020830184613813565b60008060408385031215613d0b57600080fd5b613d14836139f4565b9150613d22602084016139f4565b90509250929050565b634e487b7160e01b600052601160045260246000fd5b600060018201613d5357613d53613d2b565b5060010190565b600181811c90821680613d6e57607f821691505b602082108103613d8e57634e487b7160e01b600052602260045260246000fd5b50919050565b634e487b7160e01b600052603260045260246000fd5b601f82111561324657600081815260208120601f850160051c81016020861015613dd15750805b601f850160051c820191505b81811015613df057828155600101613ddd565b505050505050565b815167ffffffffffffffff811115613e1257613e12613a3a565b613e2681613e208454613d5a565b84613daa565b602080601f831160018114613e5b5760008415613e435750858301515b600019600386901b1c1916600185901b178555613df0565b600085815260208120601f198616915b82811015613e8a57888601518255948401946001909101908401613e6b565b5085821015613ea85787850151600019600388901b60f8161c191681555b5050505050600190811b01905550565b6020808252600e908201526d11d85b59481b9bdd08199bdd5b9960921b604082015260600190565b602080825260139082015272556e617574686f72697a656420656e7469747960681b604082015260600190565b634e487b7160e01b600052603160045260246000fd5b808201808211156109f2576109f2613d2b565b80820281158282048414176109f2576109f2613d2b565b600082613f6a57634e487b7160e01b600052601260045260246000fd5b500490565b818103818111156109f2576109f2613d2b56fea264697066735822122038f649bc75bbd8b9781cf9304c90fdd669cc1d0391b29c57e6e6c0e3335af14264736f6c63430008110033",
  "linkReferences": {},
  "deployedLinkReferences": {}
}