{
  "_format": "hh-sol-artifact-1",
  "contractName": "PlayToEarnX",
  "sourceName": "contracts/Play2EarnX.sol",
  "abi": [
    {
      "inputs": [
        {
          "internalType": "uint256",
          "name": "_pct",
          "type": "uint256"
        }
      ],
      "stateMutability": "nonpayable",
      "type": "constructor"
    },
    {
      "anonymous": false,
      "inputs": [
        {
          "indexed": true,
          "internalType": "address",
          "name": "owner",
          "type": "address"
        },
        {
          "indexed": true,
          "internalType": "address",
          "name": "spender",
          "type": "address"
        },
        {
          "indexed": false,
          "internalType": "uint256",
          "name": "value",
          "type": "uint256"
        }
      ],
      "name": "Approval",
      "type": "event"
    },
    {
      "anonymous": false,
      "inputs": [
        {
          "indexed": true,
          "internalType": "address",
          "name": "previousOwner",
          "type": "address"
        },
        {
          "indexed": true,
          "internalType": "address",
          "name": "newOwner",
          "type": "address"
        }
      ],
      "name": "OwnershipTransferred",
      "type": "event"
    },
    {
      "anonymous": false,
      "inputs": [
        {
          "indexed": true,
          "internalType": "address",
          "name": "from",
          "type": "address"
        },
        {
          "indexed": true,
          "internalType": "address",
          "name": "to",
          "type": "address"
        },
        {
          "indexed": false,
          "internalType": "uint256",
          "name": "value",
          "type": "uint256"
        }
      ],
      "name": "Transfer",
      "type": "event"
    },
    {
      "inputs": [
        {
          "internalType": "uint256",
          "name": "gameId",
          "type": "uint256"
        },
        {
          "internalType": "uint256",
          "name": "index",
          "type": "uint256"
        }
      ],
      "name": "acceptInvitation",
      "outputs": [],
      "stateMutability": "payable",
      "type": "function"
    },
    {
      "inputs": [
        {
          "internalType": "address",
          "name": "owner",
          "type": "address"
        },
        {
          "internalType": "address",
          "name": "spender",
          "type": "address"
        }
      ],
      "name": "allowance",
      "outputs": [
        {
          "internalType": "uint256",
          "name": "",
          "type": "uint256"
        }
      ],
      "stateMutability": "view",
      "type": "function"
    },
    {
      "inputs": [
        {
          "internalType": "address",
          "name": "spender",
          "type": "address"
        },
        {
          "internalType": "uint256",
          "name": "amount",
          "type": "uint256"
        }
      ],
      "name": "approve",
      "outputs": [
        {
          "internalType": "bool",
          "name": "",
          "type": "bool"
        }
      ],
      "stateMutability": "nonpayable",
      "type": "function"
    },
    {
      "inputs": [
        {
          "internalType": "address",
          "name": "account",
          "type": "address"
        }
      ],
      "name": "balanceOf",
      "outputs": [
        {
          "internalType": "uint256",
          "name": "",
          "type": "uint256"
        }
      ],
      "stateMutability": "view",
      "type": "function"
    },
    {
      "inputs": [
        {
          "internalType": "string",
          "name": "title",
          "type": "string"
        },
        {
          "internalType": "string",
          "name": "description",
          "type": "string"
        },
        {
          "internalType": "uint256",
          "name": "participants",
          "type": "uint256"
        },
        {
          "internalType": "uint256",
          "name": "numberOfWinners",
          "type": "uint256"
        },
        {
          "internalType": "uint256",
          "name": "startDate",
          "type": "uint256"
        },
        {
          "internalType": "uint256",
          "name": "endDate",
          "type": "uint256"
        }
      ],
      "name": "createGame",
      "outputs": [],
      "stateMutability": "payable",
      "type": "function"
    },
    {
      "inputs": [],
      "name": "decimals",
      "outputs": [
        {
          "internalType": "uint8",
          "name": "",
          "type": "uint8"
        }
      ],
      "stateMutability": "view",
      "type": "function"
    },
    {
      "inputs": [
        {
          "internalType": "address",
          "name": "spender",
          "type": "address"
        },
        {
          "internalType": "uint256",
          "name": "subtractedValue",
          "type": "uint256"
        }
      ],
      "name": "decreaseAllowance",
      "outputs": [
        {
          "internalType": "bool",
          "name": "",
          "type": "bool"
        }
      ],
      "stateMutability": "nonpayable",
      "type": "function"
    },
    {
      "inputs": [
        {
          "internalType": "uint256",
          "name": "gameId",
          "type": "uint256"
        }
      ],
      "name": "deleteGame",
      "outputs": [],
      "stateMutability": "nonpayable",
      "type": "function"
    },
    {
      "inputs": [
        {
          "internalType": "uint256",
          "name": "gameId",
          "type": "uint256"
        }
      ],
      "name": "getGame",
      "outputs": [
        {
          "components": [
            {
              "internalType": "uint256",
              "name": "id",
              "type": "uint256"
            },
            {
              "internalType": "string",
              "name": "title",
              "type": "string"
            },
            {
              "internalType": "string",
              "name": "description",
              "type": "string"
            },
            {
              "internalType": "address",
              "name": "owner",
              "type": "address"
            },
            {
              "internalType": "uint256",
              "name": "participants",
              "type": "uint256"
            },
            {
              "internalType": "uint256",
              "name": "numberOfWinners",
              "type": "uint256"
            },
            {
              "internalType": "uint256",
              "name": "acceptees",
              "type": "uint256"
            },
            {
              "internalType": "uint256",
              "name": "stake",
              "type": "uint256"
            },
            {
              "internalType": "uint256",
              "name": "startDate",
              "type": "uint256"
            },
            {
              "internalType": "uint256",
              "name": "endDate",
              "type": "uint256"
            },
            {
              "internalType": "uint256",
              "name": "timestamp",
              "type": "uint256"
            },
            {
              "internalType": "bool",
              "name": "deleted",
              "type": "bool"
            },
            {
              "internalType": "bool",
              "name": "paidOut",
              "type": "bool"
            }
          ],
          "internalType": "struct PlayToEarnX.GameStruct",
          "name": "",
          "type": "tuple"
        }
      ],
      "stateMutability": "view",
      "type": "function"
    },
    {
      "inputs": [],
      "name": "getGames",
      "outputs": [
        {
          "components": [
            {
              "internalType": "uint256",
              "name": "id",
              "type": "uint256"
            },
            {
              "internalType": "string",
              "name": "title",
              "type": "string"
            },
            {
              "internalType": "string",
              "name": "description",
              "type": "string"
            },
            {
              "internalType": "address",
              "name": "owner",
              "type": "address"
            },
            {
              "internalType": "uint256",
              "name": "participants",
              "type": "uint256"
            },
            {
              "internalType": "uint256",
              "name": "numberOfWinners",
              "type": "uint256"
            },
            {
              "internalType": "uint256",
              "name": "acceptees",
              "type": "uint256"
            },
            {
              "internalType": "uint256",
              "name": "stake",
              "type": "uint256"
            },
            {
              "internalType": "uint256",
              "name": "startDate",
              "type": "uint256"
            },
            {
              "internalType": "uint256",
              "name": "endDate",
              "type": "uint256"
            },
            {
              "internalType": "uint256",
              "name": "timestamp",
              "type": "uint256"
            },
            {
              "internalType": "bool",
              "name": "deleted",
              "type": "bool"
            },
            {
              "internalType": "bool",
              "name": "paidOut",
              "type": "bool"
            }
          ],
          "internalType": "struct PlayToEarnX.GameStruct[]",
          "name": "Games",
          "type": "tuple[]"
        }
      ],
      "stateMutability": "view",
      "type": "function"
    },
    {
      "inputs": [
        {
          "internalType": "uint256",
          "name": "gameId",
          "type": "uint256"
        }
      ],
      "name": "getInvitations",
      "outputs": [
        {
          "components": [
            {
              "internalType": "uint256",
              "name": "id",
              "type": "uint256"
            },
            {
              "internalType": "string",
              "name": "title",
              "type": "string"
            },
            {
              "internalType": "uint256",
              "name": "gameId",
              "type": "uint256"
            },
            {
              "internalType": "address",
              "name": "receiver",
              "type": "address"
            },
            {
              "internalType": "address",
              "name": "sender",
              "type": "address"
            },
            {
              "internalType": "bool",
              "name": "responded",
              "type": "bool"
            },
            {
              "internalType": "bool",
              "name": "accepted",
              "type": "bool"
            },
            {
              "internalType": "uint256",
              "name": "stake",
              "type": "uint256"
            },
            {
              "internalType": "uint256",
              "name": "timestamp",
              "type": "uint256"
            }
          ],
          "internalType": "struct PlayToEarnX.InvitationStruct[]",
          "name": "",
          "type": "tuple[]"
        }
      ],
      "stateMutability": "view",
      "type": "function"
    },
    {
      "inputs": [],
      "name": "getMyGames",
      "outputs": [
        {
          "components": [
            {
              "internalType": "uint256",
              "name": "id",
              "type": "uint256"
            },
            {
              "internalType": "string",
              "name": "title",
              "type": "string"
            },
            {
              "internalType": "string",
              "name": "description",
              "type": "string"
            },
            {
              "internalType": "address",
              "name": "owner",
              "type": "address"
            },
            {
              "internalType": "uint256",
              "name": "participants",
              "type": "uint256"
            },
            {
              "internalType": "uint256",
              "name": "numberOfWinners",
              "type": "uint256"
            },
            {
              "internalType": "uint256",
              "name": "acceptees",
              "type": "uint256"
            },
            {
              "internalType": "uint256",
              "name": "stake",
              "type": "uint256"
            },
            {
              "internalType": "uint256",
              "name": "startDate",
              "type": "uint256"
            },
            {
              "internalType": "uint256",
              "name": "endDate",
              "type": "uint256"
            },
            {
              "internalType": "uint256",
              "name": "timestamp",
              "type": "uint256"
            },
            {
              "internalType": "bool",
              "name": "deleted",
              "type": "bool"
            },
            {
              "internalType": "bool",
              "name": "paidOut",
              "type": "bool"
            }
          ],
          "internalType": "struct PlayToEarnX.GameStruct[]",
          "name": "Games",
          "type": "tuple[]"
        }
      ],
      "stateMutability": "view",
      "type": "function"
    },
    {
      "inputs": [],
      "name": "getMyInvitations",
      "outputs": [
        {
          "components": [
            {
              "internalType": "uint256",
              "name": "id",
              "type": "uint256"
            },
            {
              "internalType": "string",
              "name": "title",
              "type": "string"
            },
            {
              "internalType": "uint256",
              "name": "gameId",
              "type": "uint256"
            },
            {
              "internalType": "address",
              "name": "receiver",
              "type": "address"
            },
            {
              "internalType": "address",
              "name": "sender",
              "type": "address"
            },
            {
              "internalType": "bool",
              "name": "responded",
              "type": "bool"
            },
            {
              "internalType": "bool",
              "name": "accepted",
              "type": "bool"
            },
            {
              "internalType": "uint256",
              "name": "stake",
              "type": "uint256"
            },
            {
              "internalType": "uint256",
              "name": "timestamp",
              "type": "uint256"
            }
          ],
          "internalType": "struct PlayToEarnX.InvitationStruct[]",
          "name": "Invitations",
          "type": "tuple[]"
        }
      ],
      "stateMutability": "view",
      "type": "function"
    },
    {
      "inputs": [],
      "name": "getPaidOutGames",
      "outputs": [
        {
          "components": [
            {
              "internalType": "uint256",
              "name": "id",
              "type": "uint256"
            },
            {
              "internalType": "string",
              "name": "title",
              "type": "string"
            },
            {
              "internalType": "string",
              "name": "description",
              "type": "string"
            },
            {
              "internalType": "address",
              "name": "owner",
              "type": "address"
            },
            {
              "internalType": "uint256",
              "name": "participants",
              "type": "uint256"
            },
            {
              "internalType": "uint256",
              "name": "numberOfWinners",
              "type": "uint256"
            },
            {
              "internalType": "uint256",
              "name": "acceptees",
              "type": "uint256"
            },
            {
              "internalType": "uint256",
              "name": "stake",
              "type": "uint256"
            },
            {
              "internalType": "uint256",
              "name": "startDate",
              "type": "uint256"
            },
            {
              "internalType": "uint256",
              "name": "endDate",
              "type": "uint256"
            },
            {
              "internalType": "uint256",
              "name": "timestamp",
              "type": "uint256"
            },
            {
              "internalType": "bool",
              "name": "deleted",
              "type": "bool"
            },
            {
              "internalType": "bool",
              "name": "paidOut",
              "type": "bool"
            }
          ],
          "internalType": "struct PlayToEarnX.GameStruct[]",
          "name": "Games",
          "type": "tuple[]"
        }
      ],
      "stateMutability": "view",
      "type": "function"
    },
    {
      "inputs": [
        {
          "internalType": "uint256",
          "name": "gameId",
          "type": "uint256"
        }
      ],
      "name": "getScores",
      "outputs": [
        {
          "components": [
            {
              "internalType": "uint256",
              "name": "id",
              "type": "uint256"
            },
            {
              "internalType": "uint256",
              "name": "gameId",
              "type": "uint256"
            },
            {
              "internalType": "address",
              "name": "player",
              "type": "address"
            },
            {
              "internalType": "uint256",
              "name": "score",
              "type": "uint256"
            },
            {
              "internalType": "uint256",
              "name": "prize",
              "type": "uint256"
            },
            {
              "internalType": "bool",
              "name": "played",
              "type": "bool"
            }
          ],
          "internalType": "struct PlayToEarnX.ScoreStruct[]",
          "name": "",
          "type": "tuple[]"
        }
      ],
      "stateMutability": "view",
      "type": "function"
    },
    {
      "inputs": [
        {
          "internalType": "address",
          "name": "spender",
          "type": "address"
        },
        {
          "internalType": "uint256",
          "name": "addedValue",
          "type": "uint256"
        }
      ],
      "name": "increaseAllowance",
      "outputs": [
        {
          "internalType": "bool",
          "name": "",
          "type": "bool"
        }
      ],
      "stateMutability": "nonpayable",
      "type": "function"
    },
    {
      "inputs": [
        {
          "internalType": "uint256",
          "name": "gameId",
          "type": "uint256"
        },
        {
          "internalType": "address",
          "name": "receiver",
          "type": "address"
        }
      ],
      "name": "invitePlayer",
      "outputs": [],
      "stateMutability": "nonpayable",
      "type": "function"
    },
    {
      "inputs": [],
      "name": "name",
      "outputs": [
        {
          "internalType": "string",
          "name": "",
          "type": "string"
        }
      ],
      "stateMutability": "view",
      "type": "function"
    },
    {
      "inputs": [],
      "name": "owner",
      "outputs": [
        {
          "internalType": "address",
          "name": "",
          "type": "address"
        }
      ],
      "stateMutability": "view",
      "type": "function"
    },
    {
      "inputs": [
        {
          "internalType": "uint256",
          "name": "gameId",
          "type": "uint256"
        }
      ],
      "name": "payout",
      "outputs": [],
      "stateMutability": "nonpayable",
      "type": "function"
    },
    {
      "inputs": [
        {
          "internalType": "uint256",
          "name": "gameId",
          "type": "uint256"
        },
        {
          "internalType": "uint256",
          "name": "index",
          "type": "uint256"
        },
        {
          "internalType": "uint256",
          "name": "score",
          "type": "uint256"
        }
      ],
      "name": "playGame",
      "outputs": [],
      "stateMutability": "nonpayable",
      "type": "function"
    },
    {
      "inputs": [
        {
          "internalType": "uint256",
          "name": "gameId",
          "type": "uint256"
        },
        {
          "internalType": "uint256",
          "name": "index",
          "type": "uint256"
        }
      ],
      "name": "rejectInvitation",
      "outputs": [],
      "stateMutability": "nonpayable",
      "type": "function"
    },
    {
      "inputs": [],
      "name": "renounceOwnership",
      "outputs": [],
      "stateMutability": "nonpayable",
      "type": "function"
    },
    {
      "inputs": [],
      "name": "servicePct",
      "outputs": [
        {
          "internalType": "uint256",
          "name": "",
          "type": "uint256"
        }
      ],
      "stateMutability": "view",
      "type": "function"
    },
    {
      "inputs": [
        {
          "internalType": "uint256",
          "name": "_pct",
          "type": "uint256"
        }
      ],
      "name": "setFeePercent",
      "outputs": [],
      "stateMutability": "nonpayable",
      "type": "function"
    },
    {
      "inputs": [],
      "name": "symbol",
      "outputs": [
        {
          "internalType": "string",
          "name": "",
          "type": "string"
        }
      ],
      "stateMutability": "view",
      "type": "function"
    },
    {
      "inputs": [],
      "name": "totalSupply",
      "outputs": [
        {
          "internalType": "uint256",
          "name": "",
          "type": "uint256"
        }
      ],
      "stateMutability": "view",
      "type": "function"
    },
    {
      "inputs": [
        {
          "internalType": "address",
          "name": "to",
          "type": "address"
        },
        {
          "internalType": "uint256",
          "name": "amount",
          "type": "uint256"
        }
      ],
      "name": "transfer",
      "outputs": [
        {
          "internalType": "bool",
          "name": "",
          "type": "bool"
        }
      ],
      "stateMutability": "nonpayable",
      "type": "function"
    },
    {
      "inputs": [
        {
          "internalType": "address",
          "name": "from",
          "type": "address"
        },
        {
          "internalType": "address",
          "name": "to",
          "type": "address"
        },
        {
          "internalType": "uint256",
          "name": "amount",
          "type": "uint256"
        }
      ],
      "name": "transferFrom",
      "outputs": [
        {
          "internalType": "bool",
          "name": "",
          "type": "bool"
        }
      ],
      "stateMutability": "nonpayable",
      "type": "function"
    },
    {
      "inputs": [
        {
          "internalType": "address",
          "name": "newOwner",
          "type": "address"
        }
      ],
      "name": "transferOwnership",
      "outputs": [],
      "stateMutability": "nonpayable",
      "type": "function"
    }
  ],
  "bytecode": "0x60806040523480156200001157600080fd5b50604051620042eb380380620042eb83398101604081905262000034916200010d565b60405180604001604052806009815260200168283630bc9922b0b93760b91b8152506040518060400160405280600381526020016250324560e81b8152506200008c62000086620000b960201b60201c565b620000bd565b6001805560056200009e8382620001cc565b506006620000ad8282620001cc565b505050600b5562000298565b3390565b600080546001600160a01b038381166001600160a01b0319831681178455604051919092169283917f8be0079c531659141344cd1fd0a4f28419497f9722a3daafe3b4186f6b6457e09190a35050565b6000602082840312156200012057600080fd5b5051919050565b634e487b7160e01b600052604160045260246000fd5b600181811c908216806200015257607f821691505b6020821081036200017357634e487b7160e01b600052602260045260246000fd5b50919050565b601f821115620001c757600081815260208120601f850160051c81016020861015620001a25750805b601f850160051c820191505b81811015620001c357828155600101620001ae565b5050505b505050565b81516001600160401b03811115620001e857620001e862000127565b6200020081620001f984546200013d565b8462000179565b602080601f8311600181146200023857600084156200021f5750858301515b600019600386901b1c1916600185901b178555620001c3565b600085815260208120601f198616915b82811015620002695788860151825594840194600190910190840162000248565b5085821015620002885787850151600019600388901b60f8161c191681555b5050505050600190811b01905550565b61404380620002a86000396000f3fe6080604052600436106101cd5760003560e01c80637ce3489b116100f7578063a2f77bcc11610095578063dd62ed3e11610064578063dd62ed3e14610520578063e01ef6e614610540578063e115234314610556578063f2fde38b1461057657600080fd5b8063a2f77bcc1461049e578063a457c2d7146104cb578063a9059cbb146104eb578063c04c59471461050b57600080fd5b80638da5cb5b116100d15780638da5cb5b1461041f57806390d559a71461044757806395d89b4114610469578063a09621c71461047e57600080fd5b80637ce3489b146103ca578063872ff923146103ea5780638cfeadae146103ff57600080fd5b8063248a55a11161016f5780635d12ace41161013e5780635d12ace41461034c57806370a082311461036c578063715018a6146103a25780637a2f2136146103b757600080fd5b8063248a55a1146102d0578063313ce567146102f0578063395093511461030c57806339bd3bbb1461032c57600080fd5b8063095ea7b3116101ab578063095ea7b31461024c57806318160ddd1461027c5780631eb4a1e51461029b57806323b872dd146102b057600080fd5b80630210d751146101d257806304527d90146101fd57806306fdde031461022a575b600080fd5b3480156101de57600080fd5b506101e7610596565b6040516101f4919061394b565b60405180910390f35b34801561020957600080fd5b5061021d6102183660046139ad565b6108b7565b6040516101f491906139c6565b34801561023657600080fd5b5061023f61096d565b6040516101f49190613a49565b34801561025857600080fd5b5061026c610267366004613a78565b6109ff565b60405190151581526020016101f4565b34801561028857600080fd5b506004545b6040519081526020016101f4565b6102ae6102a9366004613b45565b610a19565b005b3480156102bc57600080fd5b5061026c6102cb366004613bcc565b610e7c565b3480156102dc57600080fd5b506102ae6102eb3660046139ad565b610ea0565b3480156102fc57600080fd5b50604051601281526020016101f4565b34801561031857600080fd5b5061026c610327366004613a78565b611084565b34801561033857600080fd5b506102ae610347366004613c08565b6110a6565b34801561035857600080fd5b506102ae610367366004613c2a565b611181565b34801561037857600080fd5b5061028d610387366004613c56565b6001600160a01b031660009081526002602052604090205490565b3480156103ae57600080fd5b506102ae6113f7565b6102ae6103c5366004613c08565b61140b565b3480156103d657600080fd5b506102ae6103e53660046139ad565b611627565b3480156103f657600080fd5b506101e76116a6565b34801561040b57600080fd5b506102ae61041a366004613c71565b6119bb565b34801561042b57600080fd5b506000546040516001600160a01b0390911681526020016101f4565b34801561045357600080fd5b5061045c611ca7565b6040516101f49190613c9d565b34801561047557600080fd5b5061023f611f88565b34801561048a57600080fd5b5061045c6104993660046139ad565b611f97565b3480156104aa57600080fd5b506104be6104b93660046139ad565b612103565b6040516101f49190613d79565b3480156104d757600080fd5b5061026c6104e6366004613a78565b6122dd565b3480156104f757600080fd5b5061026c610506366004613a78565b612358565b34801561051757600080fd5b506101e7612366565b34801561052c57600080fd5b5061028d61053b366004613d8c565b61267d565b34801561054c57600080fd5b5061028d600b5481565b34801561056257600080fd5b506102ae6105713660046139ad565b6126a8565b34801561058257600080fd5b506102ae610591366004613c56565b612cca565b6060600060015b6007548111610606576000818152600d60205260409020600b015460ff161580156105e157506000818152600d60205260409020600301546001600160a01b031633145b156105f457816105f081613dcc565b9250505b806105fe81613dcc565b91505061059d565b508067ffffffffffffffff81111561062057610620613aa2565b60405190808252806020026020018201604052801561065957816020015b61064661371d565b81526020019060019003908161063e5790505b509150600060015b60075481116108b1576000818152600d60205260409020600b015460ff161580156106a557506000818152600d60205260409020600301546001600160a01b031633145b1561089f57600d6000828152602001908152602001600020604051806101a0016040529081600082015481526020016001820180546106e390613de5565b80601f016020809104026020016040519081016040528092919081815260200182805461070f90613de5565b801561075c5780601f106107315761010080835404028352916020019161075c565b820191906000526020600020905b81548152906001019060200180831161073f57829003601f168201915b5050505050815260200160028201805461077590613de5565b80601f01602080910402602001604051908101604052809291908181526020018280546107a190613de5565b80156107ee5780601f106107c3576101008083540402835291602001916107ee565b820191906000526020600020905b8154815290600101906020018083116107d157829003601f168201915b505050918352505060038201546001600160a01b03166020820152600482015460408201526005820154606082015260068201546080820152600782015460a0820152600882015460c0820152600982015460e0820152600a82015461010080830191909152600b9092015460ff8082161515610120840152929004909116151561014090910152848361088181613dcc565b94508151811061089357610893613e1f565b60200260200101819052505b806108a981613dcc565b915050610661565b50505090565b6060600f6000838152602001908152602001600020805480602002602001604051908101604052809291908181526020016000905b828210156109625760008481526020908190206040805160c08101825260068602909201805483526001808201548486015260028201546001600160a01b03169284019290925260038101546060840152600481015460808401526005015460ff16151560a083015290835290920191016108ec565b505050509050919050565b60606005805461097c90613de5565b80601f01602080910402602001604051908101604052809291908181526020018280546109a890613de5565b80156109f55780601f106109ca576101008083540402835291602001916109f5565b820191906000526020600020905b8154815290600101906020018083116109d857829003601f168201915b5050505050905090565b600033610a0d818585612d40565b60019150505b92915050565b60003411610a6e5760405162461bcd60e51b815260206004820152601f60248201527f5374616b65206d7573742062652067726561746572207468616e207a65726f0060448201526064015b60405180910390fd5b60018411610acc5760405162461bcd60e51b815260206004820152602560248201527f5061727469636970616e7473206d7573742062652067726561746572207468616044820152646e206f6e6560d81b6064820152608401610a65565b6000865111610b155760405162461bcd60e51b81526020600482015260156024820152745469746c652063616e6e6f7420626520656d70747960581b6044820152606401610a65565b6000855111610b665760405162461bcd60e51b815260206004820152601b60248201527f4465736372697074696f6e2063616e6e6f7420626520656d70747900000000006044820152606401610a65565b60008211610bc25760405162461bcd60e51b8152602060048201526024808201527f53746172742064617465206d7573742062652067726561746572207468616e206044820152637a65726f60e01b6064820152608401610a65565b818111610c225760405162461bcd60e51b815260206004820152602860248201527f456e642064617465206d7573742062652067726561746572207468616e207374604482015267617274206461746560c01b6064820152608401610a65565b60008311610c725760405162461bcd60e51b815260206004820181905260248201527f4e756d626572204f662077696e6e6572732063616e6e6f74206265207a65726f6044820152606401610a65565b610c80600780546001019055565b610c8861371d565b600754815260208101879052604081018690526080810185905260a08101849052610100810183905261012081018290523460e0820152336060820152610ccd612e64565b61014082015280516000908152600d6020908152604090912082518155908201518291906001820190610d009082613e83565b5060408201516002820190610d159082613e83565b5060608201516003820180546001600160a01b0319166001600160a01b039092169190911790556080820151600482015560a0820151600582015560c0820151600682015560e082015160078201556101008083015160088301556101208301516009830155610140830151600a830155610160830151600b90920180546101809094015161ffff1990941692151561ff001916929092179215150291909117905580516000908152600c60205260409020805460ff191660011790558051610ddd90612e83565b610e235760405162461bcd60e51b81526020600482015260176024820152762330b4b632b2103a379031b932b0ba3290383630bcb2b960491b6044820152606401610a65565b8051610e2e90612f85565b610e735760405162461bcd60e51b81526020600482015260166024820152754661696c656420746f206372656174652073636f726560501b6044820152606401610a65565b50505050505050565b600033610e8a858285613029565b610e958585856130a3565b506001949350505050565b6000818152600c602052604090205460ff16610ece5760405162461bcd60e51b8152600401610a6590613f43565b6000818152600d60205260409020600301546001600160a01b03163314610f075760405162461bcd60e51b8152600401610a6590613f6b565b6000818152600d6020526040902060060154600114610f685760405162461bcd60e51b815260206004820152601c60248201527f5061727469636970616e747320616c726561647920696e2067616d65000000006044820152606401610a65565b6000818152600e60205260409020805480610f8557610f85613f98565b600082815260208082206003600019909401938402018281556001810183905560020180546001600160a01b031916905591909255828252600f905260409020805480610fd457610fd4613f98565b60008281526020808220600660001990940193840201828155600181018390556002810180546001600160a01b03191690556003810183905560048101839055600501805460ff1990811690915592909355838152601083526040808220338084529085528183208054909416909355848252600d909352919091206007015461105e919061324e565b6000908152600d602052604081206006810191909155600b01805460ff19166001179055565b600033610a0d818585611097838361267d565b6110a19190613fae565b612d40565b6000828152600c602052604090205460ff166110d45760405162461bcd60e51b8152600401610a6590613f43565b60008281526012602052604090208054339190839081106110f7576110f7613e1f565b60009182526020909120600360079092020101546001600160a01b0316146111315760405162461bcd60e51b8152600401610a6590613f6b565b60008281526012602052604090208054600191908390811061115557611155613e1f565b906000526020600020906007020160040160146101000a81548160ff0219169083151502179055505050565b6000838152600c602052604090205460ff166111af5760405162461bcd60e51b8152600401610a6590613f43565b6000838152600d6020526040902060058101546006909101541161120e5760405162461bcd60e51b8152602060048201526016602482015275139bdd08195b9bdd59da081c1b185e595c9cc81e595d60521b6044820152606401610a65565b6000838152600f6020526040902080543391908490811061123157611231613e1f565b60009182526020909120600260069092020101546001600160a01b03161461126b5760405162461bcd60e51b8152600401610a6590613f6b565b6000838152600f6020526040902080548390811061128b5761128b613e1f565b600091825260209091206005600690920201015460ff16156112e85760405162461bcd60e51b815260206004820152601660248201527514d8dbdc9948185b1c9958591e481c9958dbdc99195960521b6044820152606401610a65565b6000838152600d6020526040902060080154611302612e64565b11801561132657506000838152600d6020526040902060090154611324612e64565b105b6113725760405162461bcd60e51b815260206004820152601c60248201527f47616d6520706c6179206d75737420626520696e2073657373696f6e000000006044820152606401610a65565b6000838152600f6020526040902080548291908490811061139557611395613e1f565b9060005260206000209060060201600301819055506001600f600085815260200190815260200160002083815481106113d0576113d0613e1f565b60009182526020909120600690910201600501805460ff1916911515919091179055505050565b6113ff6132b3565b611409600061330d565b565b6000828152600c602052604090205460ff166114395760405162461bcd60e51b8152600401610a6590613f43565b6000828152600d602052604090206007015434101561148f5760405162461bcd60e51b8152602060048201526012602482015271125b9cdd599998da595b9d08185b5bdd5b9d60721b6044820152606401610a65565b60008281526012602052604090208054339190839081106114b2576114b2613e1f565b60009182526020909120600360079092020101546001600160a01b0316146114ec5760405162461bcd60e51b8152600401610a6590613f6b565b6114f582612e83565b61153b5760405162461bcd60e51b81526020600482015260176024820152762330b4b632b2103a379031b932b0ba3290383630bcb2b960491b6044820152606401610a65565b61154482612f85565b6115895760405162461bcd60e51b81526020600482015260166024820152754661696c656420746f206372656174652073636f726560501b6044820152606401610a65565b6000828152601260205260409020805460019190839081106115ad576115ad613e1f565b906000526020600020906007020160040160146101000a81548160ff02191690831515021790555060016012600084815260200190815260200160002082815481106115fb576115fb613e1f565b906000526020600020906007020160040160156101000a81548160ff0219169083151502179055505050565b61162f6132b3565b6000811180156116405750600a8111155b6116a15760405162461bcd60e51b815260206004820152602c60248201527f4665652070657263656e74206d75737420626520696e207468652072616e676560448201526b206f66202831202d2031302960a01b6064820152608401610a65565b600b55565b6060600060015b6007548111611713576000818152600d60205260409020600b015460ff161580156116ee57506000818152600d60205260409020600b0154610100900460ff165b1561170157816116fd81613dcc565b9250505b8061170b81613dcc565b9150506116ad565b508067ffffffffffffffff81111561172d5761172d613aa2565b60405190808252806020026020018201604052801561176657816020015b61175361371d565b81526020019060019003908161174b5790505b509150600060015b60075481116108b1576000818152600d60205260409020600b015460ff161580156117af57506000818152600d60205260409020600b0154610100900460ff165b156119a957600d6000828152602001908152602001600020604051806101a0016040529081600082015481526020016001820180546117ed90613de5565b80601f016020809104026020016040519081016040528092919081815260200182805461181990613de5565b80156118665780601f1061183b57610100808354040283529160200191611866565b820191906000526020600020905b81548152906001019060200180831161184957829003601f168201915b5050505050815260200160028201805461187f90613de5565b80601f01602080910402602001604051908101604052809291908181526020018280546118ab90613de5565b80156118f85780601f106118cd576101008083540402835291602001916118f8565b820191906000526020600020905b8154815290600101906020018083116118db57829003601f168201915b505050918352505060038201546001600160a01b03166020820152600482015460408201526005820154606082015260068201546080820152600782015460a0820152600882015460c0820152600982015460e0820152600a82015461010080830191909152600b9092015460ff8082161515610120840152929004909116151561014090910152848361198b81613dcc565b94508151811061199d5761199d613e1f565b60200260200101819052505b806119b381613dcc565b91505061176e565b6000828152600c602052604090205460ff166119e95760405162461bcd60e51b8152600401610a6590613f43565b6000828152600d60205260409020600481015460069091015410611a415760405162461bcd60e51b815260206004820152600f60248201526e4f7574206f6620636170616369747960881b6044820152606401610a65565b60008281526010602090815260408083206001600160a01b038516845290915290205460ff1615611ab45760405162461bcd60e51b815260206004820152601760248201527f506c6179657220616c72656164792061636365707465640000000000000000006044820152606401610a65565b611ac2600980546001019055565b611aca613792565b600954815260408082018490526000848152600d602052206001018054611af090613de5565b80601f0160208091040260200160405190810160405280929190818152602001828054611b1c90613de5565b8015611b695780601f10611b3e57610100808354040283529160200191611b69565b820191906000526020600020905b815481529060010190602001808311611b4c57829003601f168201915b505050505060208201526001600160a01b0382166060820152336080820152611b90612e64565b6101008201526000838152600d6020908152604080832060079081015460e0860152868452601183528184206001600160a01b03871685528352818420805460ff191660019081179091558785526012845291842080548084018255908552938390208551949091020192835590830151839291820190611c119082613e83565b506040820151600282015560608201516003820180546001600160a01b0319166001600160a01b03928316179055608083015160048301805460a086015160c0870151939094166001600160a81b031990911617600160a01b931515939093029290921760ff60a81b1916600160a81b9115159190910217905560e0820151600582015561010090910151600690910155505050565b6060600060015b6007548111611cf957600081815260116020908152604080832033845290915290205460ff1615611ce75781611ce381613dcc565b9250505b80611cf181613dcc565b915050611cae565b508067ffffffffffffffff811115611d1357611d13613aa2565b604051908082528060200260200182016040528015611d4c57816020015b611d39613792565b815260200190600190039081611d315790505b509150600060015b60075481116108b157600081815260116020908152604080832033845290915290205460ff1615611f765760005b600082815260126020526040902054811015611f67576000828152601260205260409020805433919083908110611dbb57611dbb613e1f565b60009182526020909120600360079092020101546001600160a01b031603611f55576000828152601260205260409020805482908110611dfd57611dfd613e1f565b90600052602060002090600702016040518061012001604052908160008201548152602001600182018054611e3190613de5565b80601f0160208091040260200160405190810160405280929190818152602001828054611e5d90613de5565b8015611eaa5780601f10611e7f57610100808354040283529160200191611eaa565b820191906000526020600020905b815481529060010190602001808311611e8d57829003601f168201915b50505091835250506002820154602082015260038201546001600160a01b0390811660408301526004830154908116606083015260ff600160a01b8204811615156080840152600160a81b90910416151560a0820152600582015460c082015260069091015460e0909101528551869085908110611f2a57611f2a613e1f565b602002602001018190525080858481518110611f4857611f48613e1f565b6020908102919091010151525b80611f5f81613dcc565b915050611d82565b5081611f7281613dcc565b9250505b80611f8081613dcc565b915050611d54565b60606006805461097c90613de5565b606060126000838152602001908152602001600020805480602002602001604051908101604052809291908181526020016000905b828210156109625783829060005260206000209060070201604051806101200160405290816000820154815260200160018201805461200a90613de5565b80601f016020809104026020016040519081016040528092919081815260200182805461203690613de5565b80156120835780601f1061205857610100808354040283529160200191612083565b820191906000526020600020905b81548152906001019060200180831161206657829003601f168201915b5050509183525050600282015460208083019190915260038301546001600160a01b0390811660408401526004840154908116606084015260ff600160a01b8204811615156080850152600160a81b90910416151560a0830152600583015460c083015260069092015460e0909101529082526001929092019101611fcc565b61210b61371d565b600d6000838152602001908152602001600020604051806101a00160405290816000820154815260200160018201805461214490613de5565b80601f016020809104026020016040519081016040528092919081815260200182805461217090613de5565b80156121bd5780601f10612192576101008083540402835291602001916121bd565b820191906000526020600020905b8154815290600101906020018083116121a057829003601f168201915b505050505081526020016002820180546121d690613de5565b80601f016020809104026020016040519081016040528092919081815260200182805461220290613de5565b801561224f5780601f106122245761010080835404028352916020019161224f565b820191906000526020600020905b81548152906001019060200180831161223257829003601f168201915b505050918352505060038201546001600160a01b03166020820152600482015460408201526005820154606082015260068201546080820152600782015460a0820152600882015460c0820152600982015460e0820152600a82015461010080830191909152600b9092015460ff808216151561012084015292900490911615156101409091015292915050565b600033816122eb828661267d565b90508381101561234b5760405162461bcd60e51b815260206004820152602560248201527f45524332303a2064656372656173656420616c6c6f77616e63652062656c6f77604482015264207a65726f60d81b6064820152608401610a65565b610e958286868403612d40565b600033610a0d8185856130a3565b6060600060015b60075481116123d4576000818152600d60205260409020600b015460ff161580156123af57506000818152600d60205260409020600b0154610100900460ff16155b156123c257816123be81613dcc565b9250505b806123cc81613dcc565b91505061236d565b508067ffffffffffffffff8111156123ee576123ee613aa2565b60405190808252806020026020018201604052801561242757816020015b61241461371d565b81526020019060019003908161240c5790505b509150600060015b60075481116108b1576000818152600d60205260409020600b015460ff1615801561247157506000818152600d60205260409020600b0154610100900460ff16155b1561266b57600d6000828152602001908152602001600020604051806101a0016040529081600082015481526020016001820180546124af90613de5565b80601f01602080910402602001604051908101604052809291908181526020018280546124db90613de5565b80156125285780601f106124fd57610100808354040283529160200191612528565b820191906000526020600020905b81548152906001019060200180831161250b57829003601f168201915b5050505050815260200160028201805461254190613de5565b80601f016020809104026020016040519081016040528092919081815260200182805461256d90613de5565b80156125ba5780601f1061258f576101008083540402835291602001916125ba565b820191906000526020600020905b81548152906001019060200180831161259d57829003601f168201915b505050918352505060038201546001600160a01b03166020820152600482015460408201526005820154606082015260068201546080820152600782015460a0820152600882015460c0820152600982015460e0820152600a82015461010080830191909152600b9092015460ff8082161515610120840152929004909116151561014090910152848361264d81613dcc565b94508151811061265f5761265f613e1f565b60200260200101819052505b8061267581613dcc565b91505061242f565b6001600160a01b03918216600090815260036020908152604080832093909416825291909152205490565b6126b061335d565b6000818152600c602052604090205460ff166127045760405162461bcd60e51b815260206004820152601360248201527211d85b5948191bd95cc81b9bdd08195e1a5cdd606a1b6044820152606401610a65565b6000818152600d602052604090206009015461271e612e64565b116127635760405162461bcd60e51b815260206004820152601560248201527423b0b6b29039ba34b6361034b71039b2b9b9b4b7b760591b6044820152606401610a65565b6000818152600d60205260409020600b0154610100900460ff16156127c25760405162461bcd60e51b815260206004820152601560248201527411d85b5948185b1c9958591e481c185a59081bdd5d605a1b6044820152606401610a65565b6000600d6000838152602001908152602001600020604051806101a0016040529081600082015481526020016001820180546127fd90613de5565b80601f016020809104026020016040519081016040528092919081815260200182805461282990613de5565b80156128765780601f1061284b57610100808354040283529160200191612876565b820191906000526020600020905b81548152906001019060200180831161285957829003601f168201915b5050505050815260200160028201805461288f90613de5565b80601f01602080910402602001604051908101604052809291908181526020018280546128bb90613de5565b80156129085780601f106128dd57610100808354040283529160200191612908565b820191906000526020600020905b8154815290600101906020018083116128eb57829003601f168201915b505050918352505060038201546001600160a01b03166020820152600482015460408201526005820154606082015260068201546080820152600782015460a0820152600882015460c080830191909152600983015460e080840191909152600a84015461010080850191909152600b9094015460ff8082161515610120860152949004909316151561014090920191909152820151908201519192506000916129b1916133b6565b905060006129d560646129cf600b54856133b690919063ffffffff16565b906133c9565b905060006129e48260026133c9565b905060006129fc826129f686866133d5565b906133d5565b9050612a19612a136000546001600160a01b031690565b8461324e565b612a2785606001518361324e565b6000868152600f602052604081205467ffffffffffffffff811115612a4e57612a4e613aa2565b604051908082528060200260200182016040528015612a8757816020015b612a746137f4565b815260200190600190039081612a6c5790505b506000888152600f602090815260408083208054825181850281018501909352808352949550612b37949193909284015b82821015612b2e5760008481526020908190206040805160c08101825260068602909201805483526001808201548486015260028201546001600160a01b03169284019290925260038101546060840152600481015460808401526005015460ff16151560a08301529083529092019101612ab8565b505050506133e1565b905060005b8660a00151811015612c98576000612b618860a00151856133c990919063ffffffff16565b9050612b8a838381518110612b7857612b78613e1f565b6020026020010151604001518261324e565b612bb1838381518110612b9f57612b9f613e1f565b60200260200101516040015182613656565b60005b60008a8152600f6020526040902054811015612c835760008a8152600f60205260409020805482908110612bea57612bea613e1f565b600091825260209091206002600690920201015484516001600160a01b0390911690859085908110612c1e57612c1e613e1f565b6020026020010151604001516001600160a01b031603612c715760008a8152600f60205260409020805483919083908110612c5b57612c5b613e1f565b9060005260206000209060060201600401819055505b80612c7b81613dcc565b915050612bb4565b50508080612c9090613dcc565b915050612b3c565b5050506000858152600d60205260409020600b01805461ff00191661010017905550612cc79250613717915050565b50565b612cd26132b3565b6001600160a01b038116612d375760405162461bcd60e51b815260206004820152602660248201527f4f776e61626c653a206e6577206f776e657220697320746865207a65726f206160448201526564647265737360d01b6064820152608401610a65565b612cc78161330d565b6001600160a01b038316612da25760405162461bcd60e51b8152602060048201526024808201527f45524332303a20617070726f76652066726f6d20746865207a65726f206164646044820152637265737360e01b6064820152608401610a65565b6001600160a01b038216612e035760405162461bcd60e51b815260206004820152602260248201527f45524332303a20617070726f766520746f20746865207a65726f206164647265604482015261737360f01b6064820152608401610a65565b6001600160a01b0383811660008181526003602090815260408083209487168084529482529182902085905590518481527f8c5be1e5ebec7d5bd14f71427d1e84f3dd0314c0f7b2291e5b200ac8c7c3b925910160405180910390a3505050565b6000612e72426103e8613fc1565b612e7e906103e8613fae565b905090565b6000612e93600880546001019055565b612ec06040518060600160405280600081526020016000815260200160006001600160a01b031681525090565b600854815260208082018481523360408085018281526000888152600e865282812080546001808201835591835287832089516003909202019081559551868201559151600290950180546001600160a01b0319166001600160a01b039096169590951790945587845260108552818420928452918452808320805460ff1916909217909155858252600d909252908120600601805491612f6083613dcc565b919050555034600a6000828254612f779190613fae565b909155506001949350505050565b6000612f8f6137f4565b6000838152600f602081815260408084208054808752868401988952339287019283529383526001808501825590855291909320845160069093020191825594518186015590516002820180546001600160a01b0319166001600160a01b03909216919091179055606082015160038201556080820151600482015560a0909101516005909101805460ff19169115159190911790555090565b6000613035848461267d565b9050600019811461309d57818110156130905760405162461bcd60e51b815260206004820152601d60248201527f45524332303a20696e73756666696369656e7420616c6c6f77616e63650000006044820152606401610a65565b61309d8484848403612d40565b50505050565b6001600160a01b0383166131075760405162461bcd60e51b815260206004820152602560248201527f45524332303a207472616e736665722066726f6d20746865207a65726f206164604482015264647265737360d81b6064820152608401610a65565b6001600160a01b0382166131695760405162461bcd60e51b815260206004820152602360248201527f45524332303a207472616e7366657220746f20746865207a65726f206164647260448201526265737360e81b6064820152608401610a65565b6001600160a01b038316600090815260026020526040902054818110156131e15760405162461bcd60e51b815260206004820152602660248201527f45524332303a207472616e7366657220616d6f756e7420657863656564732062604482015265616c616e636560d01b6064820152608401610a65565b6001600160a01b0380851660008181526002602052604080822086860390559286168082529083902080548601905591517fddf252ad1be2c89b69c2b068fc378daa952ba7f163c4a11628f55a4df523b3ef906132419086815260200190565b60405180910390a361309d565b6000826001600160a01b03168260405160006040518083038185875af1925050503d806000811461329b576040519150601f19603f3d011682016040523d82523d6000602084013e6132a0565b606091505b50509050806132ae57600080fd5b505050565b6000546001600160a01b031633146114095760405162461bcd60e51b815260206004820181905260248201527f4f776e61626c653a2063616c6c6572206973206e6f7420746865206f776e65726044820152606401610a65565b600080546001600160a01b038381166001600160a01b0319831681178455604051919092169283917f8be0079c531659141344cd1fd0a4f28419497f9722a3daafe3b4186f6b6457e09190a35050565b6002600154036133af5760405162461bcd60e51b815260206004820152601f60248201527f5265656e7472616e637947756172643a207265656e7472616e742063616c6c006044820152606401610a65565b6002600155565b60006133c28284613fc1565b9392505050565b60006133c28284613fd8565b60006133c28284613ffa565b805160609060005b6133f4600183613ffa565b81101561364e5760005b600161340a8285613ffa565b6134149190613ffa565b81101561363b5784818151811061342d5761342d613e1f565b602002602001015160a00151801561346957508461344c826001613fae565b8151811061345c5761345c613e1f565b602002602001015160a001515b1561354a578461347a826001613fae565b8151811061348a5761348a613e1f565b6020026020010151606001518582815181106134a8576134a8613e1f565b60200260200101516060015111156135455760008582815181106134ce576134ce613e1f565b60200260200101519050858260016134e69190613fae565b815181106134f6576134f6613e1f565b602002602001015186838151811061351057613510613e1f565b60209081029190910101528086613528846001613fae565b8151811061353857613538613e1f565b6020026020010181905250505b613629565b84818151811061355c5761355c613e1f565b602002602001015160a0015115801561359957508461357c826001613fae565b8151811061358c5761358c613e1f565b602002602001015160a001515b156136295760008582815181106135b2576135b2613e1f565b60200260200101519050858260016135ca9190613fae565b815181106135da576135da613e1f565b60200260200101518683815181106135f4576135f4613e1f565b6020908102919091010152808661360c846001613fae565b8151811061361c5761361c613e1f565b6020026020010181905250505b8061363381613dcc565b9150506133fe565b508061364681613dcc565b9150506133e9565b509192915050565b6001600160a01b0382166136ac5760405162461bcd60e51b815260206004820152601f60248201527f45524332303a206d696e7420746f20746865207a65726f2061646472657373006044820152606401610a65565b80600460008282546136be9190613fae565b90915550506001600160a01b0382166000818152600260209081526040808320805486019055518481527fddf252ad1be2c89b69c2b068fc378daa952ba7f163c4a11628f55a4df523b3ef910160405180910390a35050565b60018055565b604051806101a0016040528060008152602001606081526020016060815260200160006001600160a01b03168152602001600081526020016000815260200160008152602001600081526020016000815260200160008152602001600081526020016000151581526020016000151581525090565b60405180610120016040528060008152602001606081526020016000815260200160006001600160a01b0316815260200160006001600160a01b0316815260200160001515815260200160001515815260200160008152602001600081525090565b6040518060c00160405280600081526020016000815260200160006001600160a01b0316815260200160008152602001600081526020016000151581525090565b6000815180845260005b8181101561385b5760208185018101518683018201520161383f565b506000602082860101526020601f19601f83011685010191505092915050565b60006101a082518452602083015181602086015261389b82860182613835565b915050604083015184820360408601526138b58282613835565b91505060608301516138d260608601826001600160a01b03169052565b506080830151608085015260a083015160a085015260c083015160c085015260e083015160e0850152610100808401518186015250610120808401518186015250610140808401518186015250610160808401516139338287018215159052565b50506101809283015115159390920192909252919050565b6000602080830181845280855180835260408601915060408160051b870101925083870160005b828110156139a057603f1988860301845261398e85835161387b565b94509285019290850190600101613972565b5092979650505050505050565b6000602082840312156139bf57600080fd5b5035919050565b602080825282518282018190526000919060409081850190868401855b82811015613a3c578151805185528681015187860152858101516001600160a01b031686860152606080820151908601526080808201519086015260a09081015115159085015260c090930192908501906001016139e3565b5091979650505050505050565b6020815260006133c26020830184613835565b80356001600160a01b0381168114613a7357600080fd5b919050565b60008060408385031215613a8b57600080fd5b613a9483613a5c565b946020939093013593505050565b634e487b7160e01b600052604160045260246000fd5b600082601f830112613ac957600080fd5b813567ffffffffffffffff80821115613ae457613ae4613aa2565b604051601f8301601f19908116603f01168101908282118183101715613b0c57613b0c613aa2565b81604052838152866020858801011115613b2557600080fd5b836020870160208301376000602085830101528094505050505092915050565b60008060008060008060c08789031215613b5e57600080fd5b863567ffffffffffffffff80821115613b7657600080fd5b613b828a838b01613ab8565b97506020890135915080821115613b9857600080fd5b50613ba589828a01613ab8565b96999698505050506040850135946060810135946080820135945060a09091013592509050565b600080600060608486031215613be157600080fd5b613bea84613a5c565b9250613bf860208501613a5c565b9150604084013590509250925092565b60008060408385031215613c1b57600080fd5b50508035926020909101359150565b600080600060608486031215613c3f57600080fd5b505081359360208301359350604090920135919050565b600060208284031215613c6857600080fd5b6133c282613a5c565b60008060408385031215613c8457600080fd5b82359150613c9460208401613a5c565b90509250929050565b60006020808301818452808551808352604092508286019150828160051b87010184880160005b83811015613d6b57603f1989840301855281516101208151855288820151818a870152613cf382870182613835565b9150508782015188860152606080830151613d18828801826001600160a01b03169052565b50506080828101516001600160a01b03169086015260a08083015115159086015260c08083015115159086015260e080830151908601526101009182015191909401529386019390860190600101613cc4565b509098975050505050505050565b6020815260006133c2602083018461387b565b60008060408385031215613d9f57600080fd5b613da883613a5c565b9150613c9460208401613a5c565b634e487b7160e01b600052601160045260246000fd5b600060018201613dde57613dde613db6565b5060010190565b600181811c90821680613df957607f821691505b602082108103613e1957634e487b7160e01b600052602260045260246000fd5b50919050565b634e487b7160e01b600052603260045260246000fd5b601f8211156132ae57600081815260208120601f850160051c81016020861015613e5c5750805b601f850160051c820191505b81811015613e7b57828155600101613e68565b505050505050565b815167ffffffffffffffff811115613e9d57613e9d613aa2565b613eb181613eab8454613de5565b84613e35565b602080601f831160018114613ee65760008415613ece5750858301515b600019600386901b1c1916600185901b178555613e7b565b600085815260208120601f198616915b82811015613f1557888601518255948401946001909101908401613ef6565b5085821015613f335787850151600019600388901b60f8161c191681555b5050505050600190811b01905550565b6020808252600e908201526d11d85b59481b9bdd08199bdd5b9960921b604082015260600190565b602080825260139082015272556e617574686f72697a656420656e7469747960681b604082015260600190565b634e487b7160e01b600052603160045260246000fd5b80820180821115610a1357610a13613db6565b8082028115828204841417610a1357610a13613db6565b600082613ff557634e487b7160e01b600052601260045260246000fd5b500490565b81810381811115610a1357610a13613db656fea26469706673582212208950de7e0b0baeed0d2841c332e341da3bf548a842ec33cbf6eca72120ad17c764736f6c63430008110033",
  "linkReferences": {},
  "deployedLinkReferences": {}
}