{
  "_format": "hh-sol-artifact-1",
  "contractName": "PlayToEarnX",
  "sourceName": "contracts/Play2EarnX.sol",
  "abi": [
    {
      "inputs": [
        {
          "internalType": "uint256",
          "name": "_pct",
          "type": "uint256"
        }
      ],
      "stateMutability": "nonpayable",
      "type": "constructor"
    },
    {
      "anonymous": false,
      "inputs": [
        {
          "indexed": true,
          "internalType": "address",
          "name": "owner",
          "type": "address"
        },
        {
          "indexed": true,
          "internalType": "address",
          "name": "spender",
          "type": "address"
        },
        {
          "indexed": false,
          "internalType": "uint256",
          "name": "value",
          "type": "uint256"
        }
      ],
      "name": "Approval",
      "type": "event"
    },
    {
      "anonymous": false,
      "inputs": [
        {
          "indexed": true,
          "internalType": "address",
          "name": "previousOwner",
          "type": "address"
        },
        {
          "indexed": true,
          "internalType": "address",
          "name": "newOwner",
          "type": "address"
        }
      ],
      "name": "OwnershipTransferred",
      "type": "event"
    },
    {
      "anonymous": false,
      "inputs": [
        {
          "indexed": true,
          "internalType": "address",
          "name": "from",
          "type": "address"
        },
        {
          "indexed": true,
          "internalType": "address",
          "name": "to",
          "type": "address"
        },
        {
          "indexed": false,
          "internalType": "uint256",
          "name": "value",
          "type": "uint256"
        }
      ],
      "name": "Transfer",
      "type": "event"
    },
    {
      "inputs": [
        {
          "internalType": "uint256",
          "name": "gameId",
          "type": "uint256"
        },
        {
          "internalType": "uint256",
          "name": "index",
          "type": "uint256"
        }
      ],
      "name": "acceptInvitation",
      "outputs": [],
      "stateMutability": "payable",
      "type": "function"
    },
    {
      "inputs": [
        {
          "internalType": "address",
          "name": "owner",
          "type": "address"
        },
        {
          "internalType": "address",
          "name": "spender",
          "type": "address"
        }
      ],
      "name": "allowance",
      "outputs": [
        {
          "internalType": "uint256",
          "name": "",
          "type": "uint256"
        }
      ],
      "stateMutability": "view",
      "type": "function"
    },
    {
      "inputs": [
        {
          "internalType": "address",
          "name": "spender",
          "type": "address"
        },
        {
          "internalType": "uint256",
          "name": "amount",
          "type": "uint256"
        }
      ],
      "name": "approve",
      "outputs": [
        {
          "internalType": "bool",
          "name": "",
          "type": "bool"
        }
      ],
      "stateMutability": "nonpayable",
      "type": "function"
    },
    {
      "inputs": [
        {
          "internalType": "address",
          "name": "account",
          "type": "address"
        }
      ],
      "name": "balanceOf",
      "outputs": [
        {
          "internalType": "uint256",
          "name": "",
          "type": "uint256"
        }
      ],
      "stateMutability": "view",
      "type": "function"
    },
    {
      "inputs": [
        {
          "internalType": "string",
          "name": "title",
          "type": "string"
        },
        {
          "internalType": "string",
          "name": "description",
          "type": "string"
        },
        {
          "internalType": "uint256",
          "name": "participants",
          "type": "uint256"
        },
        {
          "internalType": "uint256",
          "name": "numberOfWinners",
          "type": "uint256"
        },
        {
          "internalType": "uint256",
          "name": "startDate",
          "type": "uint256"
        },
        {
          "internalType": "uint256",
          "name": "endDate",
          "type": "uint256"
        }
      ],
      "name": "createGame",
      "outputs": [],
      "stateMutability": "payable",
      "type": "function"
    },
    {
      "inputs": [],
      "name": "decimals",
      "outputs": [
        {
          "internalType": "uint8",
          "name": "",
          "type": "uint8"
        }
      ],
      "stateMutability": "view",
      "type": "function"
    },
    {
      "inputs": [
        {
          "internalType": "address",
          "name": "spender",
          "type": "address"
        },
        {
          "internalType": "uint256",
          "name": "subtractedValue",
          "type": "uint256"
        }
      ],
      "name": "decreaseAllowance",
      "outputs": [
        {
          "internalType": "bool",
          "name": "",
          "type": "bool"
        }
      ],
      "stateMutability": "nonpayable",
      "type": "function"
    },
    {
      "inputs": [
        {
          "internalType": "uint256",
          "name": "gameId",
          "type": "uint256"
        }
      ],
      "name": "deleteGame",
      "outputs": [],
      "stateMutability": "nonpayable",
      "type": "function"
    },
    {
      "inputs": [
        {
          "internalType": "uint256",
          "name": "gameId",
          "type": "uint256"
        }
      ],
      "name": "getGame",
      "outputs": [
        {
          "components": [
            {
              "internalType": "uint256",
              "name": "id",
              "type": "uint256"
            },
            {
              "internalType": "string",
              "name": "title",
              "type": "string"
            },
            {
              "internalType": "string",
              "name": "description",
              "type": "string"
            },
            {
              "internalType": "address",
              "name": "owner",
              "type": "address"
            },
            {
              "internalType": "uint256",
              "name": "participants",
              "type": "uint256"
            },
            {
              "internalType": "uint256",
              "name": "numberOfWinners",
              "type": "uint256"
            },
            {
              "internalType": "uint256",
              "name": "acceptees",
              "type": "uint256"
            },
            {
              "internalType": "uint256",
              "name": "stake",
              "type": "uint256"
            },
            {
              "internalType": "uint256",
              "name": "startDate",
              "type": "uint256"
            },
            {
              "internalType": "uint256",
              "name": "endDate",
              "type": "uint256"
            },
            {
              "internalType": "uint256",
              "name": "timestamp",
              "type": "uint256"
            },
            {
              "internalType": "bool",
              "name": "deleted",
              "type": "bool"
            },
            {
              "internalType": "bool",
              "name": "paidOut",
              "type": "bool"
            }
          ],
          "internalType": "struct PlayToEarnX.GameStruct",
          "name": "",
          "type": "tuple"
        }
      ],
      "stateMutability": "view",
      "type": "function"
    },
    {
      "inputs": [],
      "name": "getGames",
      "outputs": [
        {
          "components": [
            {
              "internalType": "uint256",
              "name": "id",
              "type": "uint256"
            },
            {
              "internalType": "string",
              "name": "title",
              "type": "string"
            },
            {
              "internalType": "string",
              "name": "description",
              "type": "string"
            },
            {
              "internalType": "address",
              "name": "owner",
              "type": "address"
            },
            {
              "internalType": "uint256",
              "name": "participants",
              "type": "uint256"
            },
            {
              "internalType": "uint256",
              "name": "numberOfWinners",
              "type": "uint256"
            },
            {
              "internalType": "uint256",
              "name": "acceptees",
              "type": "uint256"
            },
            {
              "internalType": "uint256",
              "name": "stake",
              "type": "uint256"
            },
            {
              "internalType": "uint256",
              "name": "startDate",
              "type": "uint256"
            },
            {
              "internalType": "uint256",
              "name": "endDate",
              "type": "uint256"
            },
            {
              "internalType": "uint256",
              "name": "timestamp",
              "type": "uint256"
            },
            {
              "internalType": "bool",
              "name": "deleted",
              "type": "bool"
            },
            {
              "internalType": "bool",
              "name": "paidOut",
              "type": "bool"
            }
          ],
          "internalType": "struct PlayToEarnX.GameStruct[]",
          "name": "Games",
          "type": "tuple[]"
        }
      ],
      "stateMutability": "view",
      "type": "function"
    },
    {
      "inputs": [
        {
          "internalType": "uint256",
          "name": "gameId",
          "type": "uint256"
        }
      ],
      "name": "getInvitations",
      "outputs": [
        {
          "components": [
            {
              "internalType": "uint256",
              "name": "id",
              "type": "uint256"
            },
            {
              "internalType": "string",
              "name": "title",
              "type": "string"
            },
            {
              "internalType": "uint256",
              "name": "gameId",
              "type": "uint256"
            },
            {
              "internalType": "address",
              "name": "receiver",
              "type": "address"
            },
            {
              "internalType": "address",
              "name": "sender",
              "type": "address"
            },
            {
              "internalType": "bool",
              "name": "responded",
              "type": "bool"
            },
            {
              "internalType": "bool",
              "name": "accepted",
              "type": "bool"
            },
            {
              "internalType": "uint256",
              "name": "stake",
              "type": "uint256"
            },
            {
              "internalType": "uint256",
              "name": "timestamp",
              "type": "uint256"
            }
          ],
          "internalType": "struct PlayToEarnX.InvitationStruct[]",
          "name": "",
          "type": "tuple[]"
        }
      ],
      "stateMutability": "view",
      "type": "function"
    },
    {
      "inputs": [],
      "name": "getMyGames",
      "outputs": [
        {
          "components": [
            {
              "internalType": "uint256",
              "name": "id",
              "type": "uint256"
            },
            {
              "internalType": "string",
              "name": "title",
              "type": "string"
            },
            {
              "internalType": "string",
              "name": "description",
              "type": "string"
            },
            {
              "internalType": "address",
              "name": "owner",
              "type": "address"
            },
            {
              "internalType": "uint256",
              "name": "participants",
              "type": "uint256"
            },
            {
              "internalType": "uint256",
              "name": "numberOfWinners",
              "type": "uint256"
            },
            {
              "internalType": "uint256",
              "name": "acceptees",
              "type": "uint256"
            },
            {
              "internalType": "uint256",
              "name": "stake",
              "type": "uint256"
            },
            {
              "internalType": "uint256",
              "name": "startDate",
              "type": "uint256"
            },
            {
              "internalType": "uint256",
              "name": "endDate",
              "type": "uint256"
            },
            {
              "internalType": "uint256",
              "name": "timestamp",
              "type": "uint256"
            },
            {
              "internalType": "bool",
              "name": "deleted",
              "type": "bool"
            },
            {
              "internalType": "bool",
              "name": "paidOut",
              "type": "bool"
            }
          ],
          "internalType": "struct PlayToEarnX.GameStruct[]",
          "name": "Games",
          "type": "tuple[]"
        }
      ],
      "stateMutability": "view",
      "type": "function"
    },
    {
      "inputs": [],
      "name": "getMyInvitations",
      "outputs": [
        {
          "components": [
            {
              "internalType": "uint256",
              "name": "id",
              "type": "uint256"
            },
            {
              "internalType": "string",
              "name": "title",
              "type": "string"
            },
            {
              "internalType": "uint256",
              "name": "gameId",
              "type": "uint256"
            },
            {
              "internalType": "address",
              "name": "receiver",
              "type": "address"
            },
            {
              "internalType": "address",
              "name": "sender",
              "type": "address"
            },
            {
              "internalType": "bool",
              "name": "responded",
              "type": "bool"
            },
            {
              "internalType": "bool",
              "name": "accepted",
              "type": "bool"
            },
            {
              "internalType": "uint256",
              "name": "stake",
              "type": "uint256"
            },
            {
              "internalType": "uint256",
              "name": "timestamp",
              "type": "uint256"
            }
          ],
          "internalType": "struct PlayToEarnX.InvitationStruct[]",
          "name": "Invitation",
          "type": "tuple[]"
        }
      ],
      "stateMutability": "view",
      "type": "function"
    },
    {
      "inputs": [],
      "name": "getPaidOutGames",
      "outputs": [
        {
          "components": [
            {
              "internalType": "uint256",
              "name": "id",
              "type": "uint256"
            },
            {
              "internalType": "string",
              "name": "title",
              "type": "string"
            },
            {
              "internalType": "string",
              "name": "description",
              "type": "string"
            },
            {
              "internalType": "address",
              "name": "owner",
              "type": "address"
            },
            {
              "internalType": "uint256",
              "name": "participants",
              "type": "uint256"
            },
            {
              "internalType": "uint256",
              "name": "numberOfWinners",
              "type": "uint256"
            },
            {
              "internalType": "uint256",
              "name": "acceptees",
              "type": "uint256"
            },
            {
              "internalType": "uint256",
              "name": "stake",
              "type": "uint256"
            },
            {
              "internalType": "uint256",
              "name": "startDate",
              "type": "uint256"
            },
            {
              "internalType": "uint256",
              "name": "endDate",
              "type": "uint256"
            },
            {
              "internalType": "uint256",
              "name": "timestamp",
              "type": "uint256"
            },
            {
              "internalType": "bool",
              "name": "deleted",
              "type": "bool"
            },
            {
              "internalType": "bool",
              "name": "paidOut",
              "type": "bool"
            }
          ],
          "internalType": "struct PlayToEarnX.GameStruct[]",
          "name": "Games",
          "type": "tuple[]"
        }
      ],
      "stateMutability": "view",
      "type": "function"
    },
    {
      "inputs": [
        {
          "internalType": "uint256",
          "name": "gameId",
          "type": "uint256"
        }
      ],
      "name": "getScores",
      "outputs": [
        {
          "components": [
            {
              "internalType": "uint256",
              "name": "id",
              "type": "uint256"
            },
            {
              "internalType": "uint256",
              "name": "gameId",
              "type": "uint256"
            },
            {
              "internalType": "address",
              "name": "player",
              "type": "address"
            },
            {
              "internalType": "uint256",
              "name": "score",
              "type": "uint256"
            },
            {
              "internalType": "uint256",
              "name": "prize",
              "type": "uint256"
            },
            {
              "internalType": "bool",
              "name": "played",
              "type": "bool"
            }
          ],
          "internalType": "struct PlayToEarnX.ScoreStruct[]",
          "name": "",
          "type": "tuple[]"
        }
      ],
      "stateMutability": "view",
      "type": "function"
    },
    {
      "inputs": [
        {
          "internalType": "address",
          "name": "spender",
          "type": "address"
        },
        {
          "internalType": "uint256",
          "name": "addedValue",
          "type": "uint256"
        }
      ],
      "name": "increaseAllowance",
      "outputs": [
        {
          "internalType": "bool",
          "name": "",
          "type": "bool"
        }
      ],
      "stateMutability": "nonpayable",
      "type": "function"
    },
    {
      "inputs": [
        {
          "internalType": "address",
          "name": "receiver",
          "type": "address"
        },
        {
          "internalType": "uint256",
          "name": "gameId",
          "type": "uint256"
        }
      ],
      "name": "invitePlayer",
      "outputs": [],
      "stateMutability": "nonpayable",
      "type": "function"
    },
    {
      "inputs": [],
      "name": "name",
      "outputs": [
        {
          "internalType": "string",
          "name": "",
          "type": "string"
        }
      ],
      "stateMutability": "view",
      "type": "function"
    },
    {
      "inputs": [],
      "name": "owner",
      "outputs": [
        {
          "internalType": "address",
          "name": "",
          "type": "address"
        }
      ],
      "stateMutability": "view",
      "type": "function"
    },
    {
      "inputs": [
        {
          "internalType": "uint256",
          "name": "gameId",
          "type": "uint256"
        }
      ],
      "name": "payout",
      "outputs": [],
      "stateMutability": "nonpayable",
      "type": "function"
    },
    {
      "inputs": [
        {
          "internalType": "uint256",
          "name": "gameId",
          "type": "uint256"
        },
        {
          "internalType": "uint256",
          "name": "index",
          "type": "uint256"
        }
      ],
      "name": "rejectInvitation",
      "outputs": [],
      "stateMutability": "nonpayable",
      "type": "function"
    },
    {
      "inputs": [],
      "name": "renounceOwnership",
      "outputs": [],
      "stateMutability": "nonpayable",
      "type": "function"
    },
    {
      "inputs": [
        {
          "internalType": "uint256",
          "name": "gameId",
          "type": "uint256"
        },
        {
          "internalType": "uint256",
          "name": "index",
          "type": "uint256"
        },
        {
          "internalType": "uint256",
          "name": "score",
          "type": "uint256"
        }
      ],
      "name": "saveScore",
      "outputs": [],
      "stateMutability": "nonpayable",
      "type": "function"
    },
    {
      "inputs": [
        {
          "internalType": "uint256",
          "name": "_pct",
          "type": "uint256"
        }
      ],
      "name": "setFeePercent",
      "outputs": [],
      "stateMutability": "nonpayable",
      "type": "function"
    },
    {
      "inputs": [
        {
          "components": [
            {
              "internalType": "uint256",
              "name": "id",
              "type": "uint256"
            },
            {
              "internalType": "uint256",
              "name": "gameId",
              "type": "uint256"
            },
            {
              "internalType": "address",
              "name": "player",
              "type": "address"
            },
            {
              "internalType": "uint256",
              "name": "score",
              "type": "uint256"
            },
            {
              "internalType": "uint256",
              "name": "prize",
              "type": "uint256"
            },
            {
              "internalType": "bool",
              "name": "played",
              "type": "bool"
            }
          ],
          "internalType": "struct PlayToEarnX.ScoreStruct[]",
          "name": "scoreSheet",
          "type": "tuple[]"
        }
      ],
      "name": "sortScores",
      "outputs": [
        {
          "components": [
            {
              "internalType": "uint256",
              "name": "id",
              "type": "uint256"
            },
            {
              "internalType": "uint256",
              "name": "gameId",
              "type": "uint256"
            },
            {
              "internalType": "address",
              "name": "player",
              "type": "address"
            },
            {
              "internalType": "uint256",
              "name": "score",
              "type": "uint256"
            },
            {
              "internalType": "uint256",
              "name": "prize",
              "type": "uint256"
            },
            {
              "internalType": "bool",
              "name": "played",
              "type": "bool"
            }
          ],
          "internalType": "struct PlayToEarnX.ScoreStruct[]",
          "name": "",
          "type": "tuple[]"
        }
      ],
      "stateMutability": "pure",
      "type": "function"
    },
    {
      "inputs": [],
      "name": "symbol",
      "outputs": [
        {
          "internalType": "string",
          "name": "",
          "type": "string"
        }
      ],
      "stateMutability": "view",
      "type": "function"
    },
    {
      "inputs": [],
      "name": "totalSupply",
      "outputs": [
        {
          "internalType": "uint256",
          "name": "",
          "type": "uint256"
        }
      ],
      "stateMutability": "view",
      "type": "function"
    },
    {
      "inputs": [
        {
          "internalType": "address",
          "name": "to",
          "type": "address"
        },
        {
          "internalType": "uint256",
          "name": "amount",
          "type": "uint256"
        }
      ],
      "name": "transfer",
      "outputs": [
        {
          "internalType": "bool",
          "name": "",
          "type": "bool"
        }
      ],
      "stateMutability": "nonpayable",
      "type": "function"
    },
    {
      "inputs": [
        {
          "internalType": "address",
          "name": "from",
          "type": "address"
        },
        {
          "internalType": "address",
          "name": "to",
          "type": "address"
        },
        {
          "internalType": "uint256",
          "name": "amount",
          "type": "uint256"
        }
      ],
      "name": "transferFrom",
      "outputs": [
        {
          "internalType": "bool",
          "name": "",
          "type": "bool"
        }
      ],
      "stateMutability": "nonpayable",
      "type": "function"
    },
    {
      "inputs": [
        {
          "internalType": "address",
          "name": "newOwner",
          "type": "address"
        }
      ],
      "name": "transferOwnership",
      "outputs": [],
      "stateMutability": "nonpayable",
      "type": "function"
    }
  ],
  "bytecode": "0x60806040523480156200001157600080fd5b506040516200403b3803806200403b833981016040819052620000349162000110565b6040518060400160405280600c81526020016b283630bc902a379022b0b93760a11b8152506040518060400160405280600381526020016250324560e81b8152506200008f62000089620000bc60201b60201c565b620000c0565b600180556005620000a18382620001cf565b506006620000b08282620001cf565b505050600b556200029b565b3390565b600080546001600160a01b038381166001600160a01b0319831681178455604051919092169283917f8be0079c531659141344cd1fd0a4f28419497f9722a3daafe3b4186f6b6457e09190a35050565b6000602082840312156200012357600080fd5b5051919050565b634e487b7160e01b600052604160045260246000fd5b600181811c908216806200015557607f821691505b6020821081036200017657634e487b7160e01b600052602260045260246000fd5b50919050565b601f821115620001ca57600081815260208120601f850160051c81016020861015620001a55750805b601f850160051c820191505b81811015620001c657828155600101620001b1565b5050505b505050565b81516001600160401b03811115620001eb57620001eb6200012a565b6200020381620001fc845462000140565b846200017c565b602080601f8311600181146200023b5760008415620002225750858301515b600019600386901b1c1916600185901b178555620001c6565b600085815260208120601f198616915b828110156200026c578886015182559484019460019091019084016200024b565b50858210156200028b5787850151600019600388901b60f8161c191681555b5050505050600190811b01905550565b613d9080620002ab6000396000f3fe6080604052600436106101cd5760003560e01c8063715018a6116100f7578063a09621c711610095578063c04c594711610064578063c04c59471461052b578063dd62ed3e14610540578063e115234314610560578063f2fde38b1461058057600080fd5b8063a09621c71461049e578063a2f77bcc146104be578063a457c2d7146104eb578063a9059cbb1461050b57600080fd5b8063872ff923116100d1578063872ff9231461042a5780638da5cb5b1461043f57806390d559a71461046757806395d89b411461048957600080fd5b8063715018a6146103e25780637a2f2136146103f75780637ce3489b1461040a57600080fd5b80632246fe0b1161016f578063337b67db1161013e578063337b67db1461034c578063395093511461036c57806339bd3bbb1461038c57806370a08231146103ac57600080fd5b80632246fe0b146102d057806323b872dd146102f0578063248a55a114610310578063313ce5671461033057600080fd5b8063095ea7b3116101ab578063095ea7b31461024c5780630af87c581461027c57806318160ddd1461029e5780631eb4a1e5146102bd57600080fd5b80630210d751146101d257806304527d90146101fd57806306fdde031461022a575b600080fd5b3480156101de57600080fd5b506101e76105a0565b6040516101f4919061355f565b60405180910390f35b34801561020957600080fd5b5061021d6102183660046135c1565b6108c1565b6040516101f491906135da565b34801561023657600080fd5b5061023f610977565b6040516101f4919061365d565b34801561025857600080fd5b5061026c61026736600461368c565b610a09565b60405190151581526020016101f4565b34801561028857600080fd5b5061029c6102973660046136b6565b610a23565b005b3480156102aa57600080fd5b506004545b6040519081526020016101f4565b61029c6102cb3660046137c2565b610cc2565b3480156102dc57600080fd5b5061029c6102eb36600461368c565b6110d1565b3480156102fc57600080fd5b5061026c61030b366004613849565b6113be565b34801561031c57600080fd5b5061029c61032b3660046135c1565b6113e2565b34801561033c57600080fd5b50604051601281526020016101f4565b34801561035857600080fd5b5061021d610367366004613885565b611573565b34801561037857600080fd5b5061026c61038736600461368c565b6117e8565b34801561039857600080fd5b5061029c6103a736600461398d565b61180a565b3480156103b857600080fd5b506102af6103c73660046139af565b6001600160a01b031660009081526002602052604090205490565b3480156103ee57600080fd5b5061029c6118e5565b61029c61040536600461398d565b6118f9565b34801561041657600080fd5b5061029c6104253660046135c1565b611b64565b34801561043657600080fd5b506101e7611be4565b34801561044b57600080fd5b506000546040516001600160a01b0390911681526020016101f4565b34801561047357600080fd5b5061047c611ef9565b6040516101f491906139ca565b34801561049557600080fd5b5061023f612194565b3480156104aa57600080fd5b5061047c6104b93660046135c1565b6121a3565b3480156104ca57600080fd5b506104de6104d93660046135c1565b61230f565b6040516101f49190613aa6565b3480156104f757600080fd5b5061026c61050636600461368c565b6124e9565b34801561051757600080fd5b5061026c61052636600461368c565b612564565b34801561053757600080fd5b506101e7612572565b34801561054c57600080fd5b506102af61055b366004613ab9565b612889565b34801561056c57600080fd5b5061029c61057b3660046135c1565b6128b4565b34801561058c57600080fd5b5061029c61059b3660046139af565b612bfd565b6060600060015b6007548111610610576000818152600d60205260409020600b015460ff161580156105eb57506000818152600d60205260409020600301546001600160a01b031633145b156105fe57816105fa81613b02565b9250505b8061060881613b02565b9150506105a7565b508067ffffffffffffffff81111561062a5761062a6136e2565b60405190808252806020026020018201604052801561066357816020015b610650613331565b8152602001906001900390816106485790505b509150600060015b60075481116108bb576000818152600d60205260409020600b015460ff161580156106af57506000818152600d60205260409020600301546001600160a01b031633145b156108a957600d6000828152602001908152602001600020604051806101a0016040529081600082015481526020016001820180546106ed90613b1b565b80601f016020809104026020016040519081016040528092919081815260200182805461071990613b1b565b80156107665780601f1061073b57610100808354040283529160200191610766565b820191906000526020600020905b81548152906001019060200180831161074957829003601f168201915b5050505050815260200160028201805461077f90613b1b565b80601f01602080910402602001604051908101604052809291908181526020018280546107ab90613b1b565b80156107f85780601f106107cd576101008083540402835291602001916107f8565b820191906000526020600020905b8154815290600101906020018083116107db57829003601f168201915b505050918352505060038201546001600160a01b03166020820152600482015460408201526005820154606082015260068201546080820152600782015460a0820152600882015460c0820152600982015460e0820152600a82015461010080830191909152600b9092015460ff8082161515610120840152929004909116151561014090910152848361088b81613b02565b94508151811061089d5761089d613b55565b60200260200101819052505b806108b381613b02565b91505061066b565b50505090565b6060600f6000838152602001908152602001600020805480602002602001604051908101604052809291908181526020016000905b8282101561096c5760008481526020908190206040805160c08101825260068602909201805483526001808201548486015260028201546001600160a01b03169284019290925260038101546060840152600481015460808401526005015460ff16151560a083015290835290920191016108f6565b505050509050919050565b60606005805461098690613b1b565b80601f01602080910402602001604051908101604052809291908181526020018280546109b290613b1b565b80156109ff5780601f106109d4576101008083540402835291602001916109ff565b820191906000526020600020905b8154815290600101906020018083116109e257829003601f168201915b5050505050905090565b600033610a17818585612c73565b60019150505b92915050565b6000838152600d60205260409020600581015460069091015411610a875760405162461bcd60e51b8152602060048201526016602482015275139bdd08195b9bdd59da081c1b185e595c9cc81e595d60521b60448201526064015b60405180910390fd5b6000838152600f60205260409020805484919084908110610aaa57610aaa613b55565b90600052602060002090600602016001015414610afc5760405162461bcd60e51b815260206004820152601060248201526f141b185e595c881b9bdd08199bdd5b9960821b6044820152606401610a7e565b6000838152600f60205260409020805483908110610b1c57610b1c613b55565b600091825260209091206005600690920201015460ff1615610b805760405162461bcd60e51b815260206004820152601760248201527f506c6179657220616c7265616479207265636f726465640000000000000000006044820152606401610a7e565b6000838152600f60205260409020805433919084908110610ba357610ba3613b55565b60009182526020909120600260069092020101546001600160a01b031614610bdd5760405162461bcd60e51b8152600401610a7e90613b6b565b6000838152600f60205260409020805482919084908110610c0057610c00613b55565b9060005260206000209060060201600301819055506001600f60008581526020019081526020016000208381548110610c3b57610c3b613b55565b906000526020600020906006020160050160006101000a81548160ff02191690831515021790555033600f60008581526020019081526020016000208381548110610c8857610c88613b55565b906000526020600020906006020160020160006101000a8154816001600160a01b0302191690836001600160a01b03160217905550505050565b60003411610d125760405162461bcd60e51b815260206004820152601f60248201527f5374616b65206d7573742062652067726561746572207468616e207a65726f006044820152606401610a7e565b60018411610d715760405162461bcd60e51b815260206004820152602660248201527f506172746974696370616e7473206d7573742062652067726561746572207468604482015265616e206f6e6560d01b6064820152608401610a7e565b6000865111610dba5760405162461bcd60e51b81526020600482015260156024820152745469746c652063616e6e6f7420626520656d70747960581b6044820152606401610a7e565b6000855111610e0b5760405162461bcd60e51b815260206004820152601b60248201527f4465736372697074696f6e2063616e6e6f7420626520656d70747900000000006044820152606401610a7e565b60008211610e675760405162461bcd60e51b8152602060048201526024808201527f53746172742064617465206d7573742062652067726561746572207468616e206044820152637a65726f60e01b6064820152608401610a7e565b818111610ec75760405162461bcd60e51b815260206004820152602860248201527f456e642064617465206d7573742062652067726561746572207468616e207374604482015267617274206461746560c01b6064820152608401610a7e565b60008311610f175760405162461bcd60e51b815260206004820181905260248201527f4e756d626572204f662077696e6e6572732063616e6e6f74206265207a65726f6044820152606401610a7e565b610f25600780546001019055565b610f2d613331565b600754815260208101879052604081018690526080810185905260a08101849052610100810183905261012081018290523460e0820152336060820152610f72612d97565b61014082015280516000908152600d6020908152604090912082518155908201518291906001820190610fa59082613be6565b5060408201516002820190610fba9082613be6565b5060608201516003820180546001600160a01b0319166001600160a01b039092169190911790556080820151600482015560a0820151600582015560c0820151600682015560e082015160078201556101008083015160088301556101208301516009830155610140830151600a830155610160830151600b90920180546101809094015161ffff1990941692151561ff001916929092179215150291909117905580516000908152600c60205260409020805460ff19166001179055805161108290612db6565b6110c85760405162461bcd60e51b81526020600482015260176024820152762330b4b632b2103a379031b932b0ba3290383630bcb2b960491b6044820152606401610a7e565b50505050505050565b6000818152600c602052604090205460ff166110ff5760405162461bcd60e51b8152600401610a7e90613ca6565b6000818152600d60205260409020600481015460069091015411156111585760405162461bcd60e51b815260206004820152600f60248201526e4f7574206f6620636170616369747960881b6044820152606401610a7e565b60008181526010602090815260408083206001600160a01b038616845290915290205460ff16156111cb5760405162461bcd60e51b815260206004820152601e60248201527f506c6179657220697320616c726561647920696e20746869732067616d6500006044820152606401610a7e565b6111d9600980546001019055565b6111e16133a6565b600954815260408082018390526000838152600d60205220600101805461120790613b1b565b80601f016020809104026020016040519081016040528092919081815260200182805461123390613b1b565b80156112805780601f1061125557610100808354040283529160200191611280565b820191906000526020600020905b81548152906001019060200180831161126357829003601f168201915b505050505060208201526001600160a01b03831660608201523360808201526112a7612d97565b6101008201526000828152600d6020908152604080832060079081015460e0860152858452601183528184206001600160a01b03881685528352818420805460ff1916600190811790915586855260128452918420805480840182559085529383902085519490910201928355908301518392918201906113289082613be6565b506040820151600282015560608201516003820180546001600160a01b0319166001600160a01b03928316179055608083015160048301805460a086015160c0870151939094166001600160a81b031990911617600160a01b931515939093029290921760ff60a81b1916600160a81b9115159190910217905560e0820151600582015561010090910151600690910155505050565b6000336113cc858285612eb8565b6113d7858585612f32565b506001949350505050565b6000818152600c602052604090205460ff166114105760405162461bcd60e51b8152600401610a7e90613ca6565b6000818152600d60205260409020600301546001600160a01b031633146114495760405162461bcd60e51b8152600401610a7e90613b6b565b6000818152600d60205260409020600601546001146114aa5760405162461bcd60e51b815260206004820152601c60248201527f5061727469636970616e747320616c726561647920696e2067616d65000000006044820152606401610a7e565b6000818152600e602052604090208054806114c7576114c7613cce565b600082815260208082206003600019909401938402018281556001810183905560020180546001600160a01b03191690559190925582825260108152604080832033808552908352818420805460ff19169055848452600d9092529091206007015461153391906130dd565b6000818152600d6020526040812060060180549161155083613ce4565b90915550506000908152600d60205260409020600b01805460ff19166001179055565b805160609060005b611586600183613cfb565b8110156117e05760005b600161159c8385613cfb565b6115a69190613cfb565b8110156117cd578481815181106115bf576115bf613b55565b602002602001015160a0015180156115fb5750846115de826001613d0e565b815181106115ee576115ee613b55565b602002602001015160a001515b156116dc578461160c826001613d0e565b8151811061161c5761161c613b55565b60200260200101516060015185828151811061163a5761163a613b55565b60200260200101516060015111156116d757600085828151811061166057611660613b55565b60200260200101519050858260016116789190613d0e565b8151811061168857611688613b55565b60200260200101518683815181106116a2576116a2613b55565b602090810291909101015280866116ba846001613d0e565b815181106116ca576116ca613b55565b6020026020010181905250505b6117bb565b8481815181106116ee576116ee613b55565b602002602001015160a0015115801561172b57508461170e826001613d0e565b8151811061171e5761171e613b55565b602002602001015160a001515b156117bb57600085828151811061174457611744613b55565b602002602001015190508582600161175c9190613d0e565b8151811061176c5761176c613b55565b602002602001015186838151811061178657611786613b55565b6020908102919091010152808661179e846001613d0e565b815181106117ae576117ae613b55565b6020026020010181905250505b806117c581613b02565b915050611590565b50806117d881613b02565b91505061157b565b509192915050565b600033610a178185856117fb8383612889565b6118059190613d0e565b612c73565b6000828152600c602052604090205460ff166118385760405162461bcd60e51b8152600401610a7e90613ca6565b600082815260126020526040902080543391908390811061185b5761185b613b55565b60009182526020909120600360079092020101546001600160a01b0316146118955760405162461bcd60e51b8152600401610a7e90613b6b565b6000828152601260205260409020805460019190839081106118b9576118b9613b55565b906000526020600020906007020160040160146101000a81548160ff0219169083151502179055505050565b6118ed613142565b6118f7600061319c565b565b6000828152600c602052604090205460ff166119275760405162461bcd60e51b8152600401610a7e90613ca6565b6000828152600d602052604090206007015434101561197c5760405162461bcd60e51b8152602060048201526011602482015270496e737566666369656e742066756e647360781b6044820152606401610a7e565b600082815260126020526040902080543391908390811061199f5761199f613b55565b60009182526020909120600360079092020101546001600160a01b0316146119d95760405162461bcd60e51b8152600401610a7e90613b6b565b6119e282612db6565b611a285760405162461bcd60e51b81526020600482015260176024820152762330b4b632b2103a379031b932b0ba3290383630bcb2b960491b6044820152606401610a7e565b600082815260126020526040902080546001919083908110611a4c57611a4c613b55565b906000526020600020906007020160040160146101000a81548160ff0219169083151502179055506001601260008481526020019081526020016000208281548110611a9a57611a9a613b55565b906000526020600020906007020160040160156101000a81548160ff021916908315150217905550611aca613408565b6000838152600f6020818152604080842080548087528684019889523392870192835293835260018085018255908552919093208451600690930201918255945194810194909455516002840180546001600160a01b0319166001600160a01b03909216919091179055606081015160038401556080810151600484015560a001516005909201805460ff19169215159290921790915550565b611b6c613142565b600081118015611b7d575060648111155b611bdf5760405162461bcd60e51b815260206004820152602d60248201527f4665652070657263656e74206d75737420626520696e207468652072616e676560448201526c206f66202831202d203130302960981b6064820152608401610a7e565b600b55565b6060600060015b6007548111611c51576000818152600d60205260409020600b015460ff16158015611c2c57506000818152600d60205260409020600b0154610100900460ff165b15611c3f5781611c3b81613b02565b9250505b80611c4981613b02565b915050611beb565b508067ffffffffffffffff811115611c6b57611c6b6136e2565b604051908082528060200260200182016040528015611ca457816020015b611c91613331565b815260200190600190039081611c895790505b509150600060015b60075481116108bb576000818152600d60205260409020600b015460ff16158015611ced57506000818152600d60205260409020600b0154610100900460ff165b15611ee757600d6000828152602001908152602001600020604051806101a001604052908160008201548152602001600182018054611d2b90613b1b565b80601f0160208091040260200160405190810160405280929190818152602001828054611d5790613b1b565b8015611da45780601f10611d7957610100808354040283529160200191611da4565b820191906000526020600020905b815481529060010190602001808311611d8757829003601f168201915b50505050508152602001600282018054611dbd90613b1b565b80601f0160208091040260200160405190810160405280929190818152602001828054611de990613b1b565b8015611e365780601f10611e0b57610100808354040283529160200191611e36565b820191906000526020600020905b815481529060010190602001808311611e1957829003601f168201915b505050918352505060038201546001600160a01b03166020820152600482015460408201526005820154606082015260068201546080820152600782015460a0820152600882015460c0820152600982015460e0820152600a82015461010080830191909152600b9092015460ff80821615156101208401529290049091161515610140909101528483611ec981613b02565b945081518110611edb57611edb613b55565b60200260200101819052505b80611ef181613b02565b915050611cac565b6060600060015b6007548111611f4b57600081815260116020908152604080832033845290915290205460ff1615611f395781611f3581613b02565b9250505b80611f4381613b02565b915050611f00565b508067ffffffffffffffff811115611f6557611f656136e2565b604051908082528060200260200182016040528015611f9e57816020015b611f8b6133a6565b815260200190600190039081611f835790505b509150600060015b60075481116108bb57600081815260116020908152604080832033845290915290205460ff16156121825760005b60008281526012602052604090205481101561217357600082815260126020526040902080548290811061200a5761200a613b55565b9060005260206000209060070201604051806101200160405290816000820154815260200160018201805461203e90613b1b565b80601f016020809104026020016040519081016040528092919081815260200182805461206a90613b1b565b80156120b75780601f1061208c576101008083540402835291602001916120b7565b820191906000526020600020905b81548152906001019060200180831161209a57829003601f168201915b50505091835250506002820154602082015260038201546001600160a01b0390811660408301526004830154908116606083015260ff600160a01b8204811615156080840152600160a81b90910416151560a0820152600582015460c082015260069091015460e090910152855186908590811061213757612137613b55565b60200260200101819052508085848151811061215557612155613b55565b6020908102919091010151528061216b81613b02565b915050611fd4565b508161217e81613b02565b9250505b8061218c81613b02565b915050611fa6565b60606006805461098690613b1b565b606060126000838152602001908152602001600020805480602002602001604051908101604052809291908181526020016000905b8282101561096c5783829060005260206000209060070201604051806101200160405290816000820154815260200160018201805461221690613b1b565b80601f016020809104026020016040519081016040528092919081815260200182805461224290613b1b565b801561228f5780601f106122645761010080835404028352916020019161228f565b820191906000526020600020905b81548152906001019060200180831161227257829003601f168201915b5050509183525050600282015460208083019190915260038301546001600160a01b0390811660408401526004840154908116606084015260ff600160a01b8204811615156080850152600160a81b90910416151560a0830152600583015460c083015260069092015460e09091015290825260019290920191016121d8565b612317613331565b600d6000838152602001908152602001600020604051806101a00160405290816000820154815260200160018201805461235090613b1b565b80601f016020809104026020016040519081016040528092919081815260200182805461237c90613b1b565b80156123c95780601f1061239e576101008083540402835291602001916123c9565b820191906000526020600020905b8154815290600101906020018083116123ac57829003601f168201915b505050505081526020016002820180546123e290613b1b565b80601f016020809104026020016040519081016040528092919081815260200182805461240e90613b1b565b801561245b5780601f106124305761010080835404028352916020019161245b565b820191906000526020600020905b81548152906001019060200180831161243e57829003601f168201915b505050918352505060038201546001600160a01b03166020820152600482015460408201526005820154606082015260068201546080820152600782015460a0820152600882015460c0820152600982015460e0820152600a82015461010080830191909152600b9092015460ff808216151561012084015292900490911615156101409091015292915050565b600033816124f78286612889565b9050838110156125575760405162461bcd60e51b815260206004820152602560248201527f45524332303a2064656372656173656420616c6c6f77616e63652062656c6f77604482015264207a65726f60d81b6064820152608401610a7e565b6113d78286868403612c73565b600033610a17818585612f32565b6060600060015b60075481116125e0576000818152600d60205260409020600b015460ff161580156125bb57506000818152600d60205260409020600b0154610100900460ff16155b156125ce57816125ca81613b02565b9250505b806125d881613b02565b915050612579565b508067ffffffffffffffff8111156125fa576125fa6136e2565b60405190808252806020026020018201604052801561263357816020015b612620613331565b8152602001906001900390816126185790505b509150600060015b60075481116108bb576000818152600d60205260409020600b015460ff1615801561267d57506000818152600d60205260409020600b0154610100900460ff16155b1561287757600d6000828152602001908152602001600020604051806101a0016040529081600082015481526020016001820180546126bb90613b1b565b80601f01602080910402602001604051908101604052809291908181526020018280546126e790613b1b565b80156127345780601f1061270957610100808354040283529160200191612734565b820191906000526020600020905b81548152906001019060200180831161271757829003601f168201915b5050505050815260200160028201805461274d90613b1b565b80601f016020809104026020016040519081016040528092919081815260200182805461277990613b1b565b80156127c65780601f1061279b576101008083540402835291602001916127c6565b820191906000526020600020905b8154815290600101906020018083116127a957829003601f168201915b505050918352505060038201546001600160a01b03166020820152600482015460408201526005820154606082015260068201546080820152600782015460a0820152600882015460c0820152600982015460e0820152600a82015461010080830191909152600b9092015460ff8082161515610120840152929004909116151561014090910152848361285981613b02565b94508151811061286b5761286b613b55565b60200260200101819052505b8061288181613b02565b91505061263b565b6001600160a01b03918216600090815260036020908152604080832093909416825291909152205490565b6128bc6131ec565b6000818152600c602052604090205460ff166129105760405162461bcd60e51b815260206004820152601360248201527211d85b5948191bd95cc81b9bdd08195e1a5cdd606a1b6044820152606401610a7e565b6000818152600d60205260409020600b0154610100900460ff161561296f5760405162461bcd60e51b815260206004820152601560248201527411d85b5948185b1c9958591e481c185a59081bdd5d605a1b6044820152606401610a7e565b600b546000828152600d6020526040812060070154909161299d916064916129979190613245565b90613258565b6000838152600d6020526040812060070154919250906129bd9083613264565b90506129da6129d46000546001600160a01b031690565b836130dd565b6129ef6129e8836002613258565b8290613264565b6000848152600d6020526040902060030154909150612a21906001600160a01b0316612a1c846002613258565b6130dd565b6000838152600f602052604081205467ffffffffffffffff811115612a4857612a486136e2565b604051908082528060200260200182016040528015612a8157816020015b612a6e613408565b815260200190600190039081612a665790505b506000858152600f602090815260408083208054825181850281018501909352808352949550612b31949193909284015b82821015612b285760008481526020908190206040805160c08101825260068602909201805483526001808201548486015260028201546001600160a01b03169284019290925260038101546060840152600481015460808401526005015460ff16151560a08301529083529092019101612ab2565b50505050611573565b905060005b6000858152600d6020526040902060050154811015612bcf576000858152600d6020526040812060050154612b6c908590613258565b9050612b95838381518110612b8357612b83613b55565b602002602001015160400151826130dd565b612bbc838381518110612baa57612baa613b55565b60200260200101516040015182613270565b5080612bc781613b02565b915050612b36565b5050506000828152600d60205260409020600b01805461ff00191661010017905550612bfa60018055565b50565b612c05613142565b6001600160a01b038116612c6a5760405162461bcd60e51b815260206004820152602660248201527f4f776e61626c653a206e6577206f776e657220697320746865207a65726f206160448201526564647265737360d01b6064820152608401610a7e565b612bfa8161319c565b6001600160a01b038316612cd55760405162461bcd60e51b8152602060048201526024808201527f45524332303a20617070726f76652066726f6d20746865207a65726f206164646044820152637265737360e01b6064820152608401610a7e565b6001600160a01b038216612d365760405162461bcd60e51b815260206004820152602260248201527f45524332303a20617070726f766520746f20746865207a65726f206164647265604482015261737360f01b6064820152608401610a7e565b6001600160a01b0383811660008181526003602090815260408083209487168084529482529182902085905590518481527f8c5be1e5ebec7d5bd14f71427d1e84f3dd0314c0f7b2291e5b200ac8c7c3b925910160405180910390a3505050565b6000612da5426103e8613d21565b612db1906103e8613d0e565b905090565b6000612dc6600880546001019055565b612df36040518060600160405280600081526020016000815260200160006001600160a01b031681525090565b600854815260208082018481523360408085018281526000888152600e8652828120805460018082018355918352878320895160039092020190815586518183018190559351600290910180546001600160a01b0319166001600160a01b0390921691909117905591815260108652828120938152928552818320805460ff1916909117905591518152600d9092528120600601805491612e9383613b02565b919050555034600a6000828254612eaa9190613d0e565b909155506001949350505050565b6000612ec48484612889565b90506000198114612f2c5781811015612f1f5760405162461bcd60e51b815260206004820152601d60248201527f45524332303a20696e73756666696369656e7420616c6c6f77616e63650000006044820152606401610a7e565b612f2c8484848403612c73565b50505050565b6001600160a01b038316612f965760405162461bcd60e51b815260206004820152602560248201527f45524332303a207472616e736665722066726f6d20746865207a65726f206164604482015264647265737360d81b6064820152608401610a7e565b6001600160a01b038216612ff85760405162461bcd60e51b815260206004820152602360248201527f45524332303a207472616e7366657220746f20746865207a65726f206164647260448201526265737360e81b6064820152608401610a7e565b6001600160a01b038316600090815260026020526040902054818110156130705760405162461bcd60e51b815260206004820152602660248201527f45524332303a207472616e7366657220616d6f756e7420657863656564732062604482015265616c616e636560d01b6064820152608401610a7e565b6001600160a01b0380851660008181526002602052604080822086860390559286168082529083902080548601905591517fddf252ad1be2c89b69c2b068fc378daa952ba7f163c4a11628f55a4df523b3ef906130d09086815260200190565b60405180910390a3612f2c565b6000826001600160a01b03168260405160006040518083038185875af1925050503d806000811461312a576040519150601f19603f3d011682016040523d82523d6000602084013e61312f565b606091505b505090508061313d57600080fd5b505050565b6000546001600160a01b031633146118f75760405162461bcd60e51b815260206004820181905260248201527f4f776e61626c653a2063616c6c6572206973206e6f7420746865206f776e65726044820152606401610a7e565b600080546001600160a01b038381166001600160a01b0319831681178455604051919092169283917f8be0079c531659141344cd1fd0a4f28419497f9722a3daafe3b4186f6b6457e09190a35050565b60026001540361323e5760405162461bcd60e51b815260206004820152601f60248201527f5265656e7472616e637947756172643a207265656e7472616e742063616c6c006044820152606401610a7e565b6002600155565b60006132518284613d21565b9392505050565b60006132518284613d38565b60006132518284613cfb565b6001600160a01b0382166132c65760405162461bcd60e51b815260206004820152601f60248201527f45524332303a206d696e7420746f20746865207a65726f2061646472657373006044820152606401610a7e565b80600460008282546132d89190613d0e565b90915550506001600160a01b0382166000818152600260209081526040808320805486019055518481527fddf252ad1be2c89b69c2b068fc378daa952ba7f163c4a11628f55a4df523b3ef910160405180910390a35050565b604051806101a0016040528060008152602001606081526020016060815260200160006001600160a01b03168152602001600081526020016000815260200160008152602001600081526020016000815260200160008152602001600081526020016000151581526020016000151581525090565b60405180610120016040528060008152602001606081526020016000815260200160006001600160a01b0316815260200160006001600160a01b0316815260200160001515815260200160001515815260200160008152602001600081525090565b6040518060c00160405280600081526020016000815260200160006001600160a01b0316815260200160008152602001600081526020016000151581525090565b6000815180845260005b8181101561346f57602081850181015186830182015201613453565b506000602082860101526020601f19601f83011685010191505092915050565b60006101a08251845260208301518160208601526134af82860182613449565b915050604083015184820360408601526134c98282613449565b91505060608301516134e660608601826001600160a01b03169052565b506080830151608085015260a083015160a085015260c083015160c085015260e083015160e0850152610100808401518186015250610120808401518186015250610140808401518186015250610160808401516135478287018215159052565b50506101809283015115159390920192909252919050565b6000602080830181845280855180835260408601915060408160051b870101925083870160005b828110156135b457603f198886030184526135a285835161348f565b94509285019290850190600101613586565b5092979650505050505050565b6000602082840312156135d357600080fd5b5035919050565b602080825282518282018190526000919060409081850190868401855b82811015613650578151805185528681015187860152858101516001600160a01b031686860152606080820151908601526080808201519086015260a09081015115159085015260c090930192908501906001016135f7565b5091979650505050505050565b6020815260006132516020830184613449565b80356001600160a01b038116811461368757600080fd5b919050565b6000806040838503121561369f57600080fd5b6136a883613670565b946020939093013593505050565b6000806000606084860312156136cb57600080fd5b505081359360208301359350604090920135919050565b634e487b7160e01b600052604160045260246000fd5b60405160c0810167ffffffffffffffff8111828210171561371b5761371b6136e2565b60405290565b604051601f8201601f1916810167ffffffffffffffff8111828210171561374a5761374a6136e2565b604052919050565b600082601f83011261376357600080fd5b813567ffffffffffffffff81111561377d5761377d6136e2565b613790601f8201601f1916602001613721565b8181528460208386010111156137a557600080fd5b816020850160208301376000918101602001919091529392505050565b60008060008060008060c087890312156137db57600080fd5b863567ffffffffffffffff808211156137f357600080fd5b6137ff8a838b01613752565b9750602089013591508082111561381557600080fd5b5061382289828a01613752565b96999698505050506040850135946060810135946080820135945060a09091013592509050565b60008060006060848603121561385e57600080fd5b61386784613670565b925061387560208501613670565b9150604084013590509250925092565b6000602080838503121561389857600080fd5b823567ffffffffffffffff808211156138b057600080fd5b818501915085601f8301126138c457600080fd5b8135818111156138d6576138d66136e2565b6138e4848260051b01613721565b818152848101925060c091820284018501918883111561390357600080fd5b938501935b828510156139815780858a0312156139205760008081fd5b6139286136f8565b8535815286860135878201526040613941818801613670565b90820152606086810135908201526080808701359082015260a080870135801515811461396e5760008081fd5b9082015284529384019392850192613908565b50979650505050505050565b600080604083850312156139a057600080fd5b50508035926020909101359150565b6000602082840312156139c157600080fd5b61325182613670565b60006020808301818452808551808352604092508286019150828160051b87010184880160005b83811015613a9857603f1989840301855281516101208151855288820151818a870152613a2082870182613449565b9150508782015188860152606080830151613a45828801826001600160a01b03169052565b50506080828101516001600160a01b03169086015260a08083015115159086015260c08083015115159086015260e0808301519086015261010091820151919094015293860193908601906001016139f1565b509098975050505050505050565b602081526000613251602083018461348f565b60008060408385031215613acc57600080fd5b613ad583613670565b9150613ae360208401613670565b90509250929050565b634e487b7160e01b600052601160045260246000fd5b600060018201613b1457613b14613aec565b5060010190565b600181811c90821680613b2f57607f821691505b602082108103613b4f57634e487b7160e01b600052602260045260246000fd5b50919050565b634e487b7160e01b600052603260045260246000fd5b602080825260139082015272556e617574686f72697a656420656e7469747960681b604082015260600190565b601f82111561313d57600081815260208120601f850160051c81016020861015613bbf5750805b601f850160051c820191505b81811015613bde57828155600101613bcb565b505050505050565b815167ffffffffffffffff811115613c0057613c006136e2565b613c1481613c0e8454613b1b565b84613b98565b602080601f831160018114613c495760008415613c315750858301515b600019600386901b1c1916600185901b178555613bde565b600085815260208120601f198616915b82811015613c7857888601518255948401946001909101908401613c59565b5085821015613c965787850151600019600388901b60f8161c191681555b5050505050600190811b01905550565b6020808252600e908201526d11d85b59481b9bdd08199bdd5b9960921b604082015260600190565b634e487b7160e01b600052603160045260246000fd5b600081613cf357613cf3613aec565b506000190190565b81810381811115610a1d57610a1d613aec565b80820180821115610a1d57610a1d613aec565b8082028115828204841417610a1d57610a1d613aec565b600082613d5557634e487b7160e01b600052601260045260246000fd5b50049056fea26469706673582212207cdca0003592ae405f3ac0ed7c9269c81f04d79f3a97c806c6d761ba5dac09b164736f6c63430008110033",
  "linkReferences": {},
  "deployedLinkReferences": {}
}