{
  "_format": "hh-sol-artifact-1",
  "contractName": "PlayToEarnX",
  "sourceName": "contracts/Play2EarnX.sol",
  "abi": [
    {
      "inputs": [
        {
          "internalType": "uint256",
          "name": "_pct",
          "type": "uint256"
        }
      ],
      "stateMutability": "nonpayable",
      "type": "constructor"
    },
    {
      "anonymous": false,
      "inputs": [
        {
          "indexed": true,
          "internalType": "address",
          "name": "owner",
          "type": "address"
        },
        {
          "indexed": true,
          "internalType": "address",
          "name": "spender",
          "type": "address"
        },
        {
          "indexed": false,
          "internalType": "uint256",
          "name": "value",
          "type": "uint256"
        }
      ],
      "name": "Approval",
      "type": "event"
    },
    {
      "anonymous": false,
      "inputs": [
        {
          "indexed": true,
          "internalType": "address",
          "name": "previousOwner",
          "type": "address"
        },
        {
          "indexed": true,
          "internalType": "address",
          "name": "newOwner",
          "type": "address"
        }
      ],
      "name": "OwnershipTransferred",
      "type": "event"
    },
    {
      "anonymous": false,
      "inputs": [
        {
          "indexed": true,
          "internalType": "address",
          "name": "from",
          "type": "address"
        },
        {
          "indexed": true,
          "internalType": "address",
          "name": "to",
          "type": "address"
        },
        {
          "indexed": false,
          "internalType": "uint256",
          "name": "value",
          "type": "uint256"
        }
      ],
      "name": "Transfer",
      "type": "event"
    },
    {
      "inputs": [
        {
          "internalType": "uint256",
          "name": "gameId",
          "type": "uint256"
        },
        {
          "internalType": "uint256",
          "name": "index",
          "type": "uint256"
        }
      ],
      "name": "acceptInvitation",
      "outputs": [],
      "stateMutability": "payable",
      "type": "function"
    },
    {
      "inputs": [
        {
          "internalType": "address",
          "name": "owner",
          "type": "address"
        },
        {
          "internalType": "address",
          "name": "spender",
          "type": "address"
        }
      ],
      "name": "allowance",
      "outputs": [
        {
          "internalType": "uint256",
          "name": "",
          "type": "uint256"
        }
      ],
      "stateMutability": "view",
      "type": "function"
    },
    {
      "inputs": [
        {
          "internalType": "address",
          "name": "spender",
          "type": "address"
        },
        {
          "internalType": "uint256",
          "name": "amount",
          "type": "uint256"
        }
      ],
      "name": "approve",
      "outputs": [
        {
          "internalType": "bool",
          "name": "",
          "type": "bool"
        }
      ],
      "stateMutability": "nonpayable",
      "type": "function"
    },
    {
      "inputs": [
        {
          "internalType": "address",
          "name": "account",
          "type": "address"
        }
      ],
      "name": "balanceOf",
      "outputs": [
        {
          "internalType": "uint256",
          "name": "",
          "type": "uint256"
        }
      ],
      "stateMutability": "view",
      "type": "function"
    },
    {
      "inputs": [
        {
          "internalType": "string",
          "name": "title",
          "type": "string"
        },
        {
          "internalType": "string",
          "name": "description",
          "type": "string"
        },
        {
          "internalType": "uint256",
          "name": "participants",
          "type": "uint256"
        },
        {
          "internalType": "uint256",
          "name": "numberOfWinners",
          "type": "uint256"
        },
        {
          "internalType": "uint256",
          "name": "startDate",
          "type": "uint256"
        },
        {
          "internalType": "uint256",
          "name": "endDate",
          "type": "uint256"
        }
      ],
      "name": "createGame",
      "outputs": [],
      "stateMutability": "payable",
      "type": "function"
    },
    {
      "inputs": [],
      "name": "decimals",
      "outputs": [
        {
          "internalType": "uint8",
          "name": "",
          "type": "uint8"
        }
      ],
      "stateMutability": "view",
      "type": "function"
    },
    {
      "inputs": [
        {
          "internalType": "address",
          "name": "spender",
          "type": "address"
        },
        {
          "internalType": "uint256",
          "name": "subtractedValue",
          "type": "uint256"
        }
      ],
      "name": "decreaseAllowance",
      "outputs": [
        {
          "internalType": "bool",
          "name": "",
          "type": "bool"
        }
      ],
      "stateMutability": "nonpayable",
      "type": "function"
    },
    {
      "inputs": [
        {
          "internalType": "uint256",
          "name": "gameId",
          "type": "uint256"
        }
      ],
      "name": "deleteGame",
      "outputs": [],
      "stateMutability": "nonpayable",
      "type": "function"
    },
    {
      "inputs": [
        {
          "internalType": "uint256",
          "name": "gameId",
          "type": "uint256"
        }
      ],
      "name": "getGame",
      "outputs": [
        {
          "components": [
            {
              "internalType": "uint256",
              "name": "id",
              "type": "uint256"
            },
            {
              "internalType": "string",
              "name": "title",
              "type": "string"
            },
            {
              "internalType": "string",
              "name": "description",
              "type": "string"
            },
            {
              "internalType": "address",
              "name": "owner",
              "type": "address"
            },
            {
              "internalType": "uint256",
              "name": "participants",
              "type": "uint256"
            },
            {
              "internalType": "uint256",
              "name": "numberOfWinners",
              "type": "uint256"
            },
            {
              "internalType": "uint256",
              "name": "acceptees",
              "type": "uint256"
            },
            {
              "internalType": "uint256",
              "name": "stake",
              "type": "uint256"
            },
            {
              "internalType": "uint256",
              "name": "startDate",
              "type": "uint256"
            },
            {
              "internalType": "uint256",
              "name": "endDate",
              "type": "uint256"
            },
            {
              "internalType": "uint256",
              "name": "timestamp",
              "type": "uint256"
            },
            {
              "internalType": "bool",
              "name": "deleted",
              "type": "bool"
            },
            {
              "internalType": "bool",
              "name": "paidOut",
              "type": "bool"
            }
          ],
          "internalType": "struct PlayToEarnX.GameStruct",
          "name": "",
          "type": "tuple"
        }
      ],
      "stateMutability": "view",
      "type": "function"
    },
    {
      "inputs": [],
      "name": "getGames",
      "outputs": [
        {
          "components": [
            {
              "internalType": "uint256",
              "name": "id",
              "type": "uint256"
            },
            {
              "internalType": "string",
              "name": "title",
              "type": "string"
            },
            {
              "internalType": "string",
              "name": "description",
              "type": "string"
            },
            {
              "internalType": "address",
              "name": "owner",
              "type": "address"
            },
            {
              "internalType": "uint256",
              "name": "participants",
              "type": "uint256"
            },
            {
              "internalType": "uint256",
              "name": "numberOfWinners",
              "type": "uint256"
            },
            {
              "internalType": "uint256",
              "name": "acceptees",
              "type": "uint256"
            },
            {
              "internalType": "uint256",
              "name": "stake",
              "type": "uint256"
            },
            {
              "internalType": "uint256",
              "name": "startDate",
              "type": "uint256"
            },
            {
              "internalType": "uint256",
              "name": "endDate",
              "type": "uint256"
            },
            {
              "internalType": "uint256",
              "name": "timestamp",
              "type": "uint256"
            },
            {
              "internalType": "bool",
              "name": "deleted",
              "type": "bool"
            },
            {
              "internalType": "bool",
              "name": "paidOut",
              "type": "bool"
            }
          ],
          "internalType": "struct PlayToEarnX.GameStruct[]",
          "name": "Games",
          "type": "tuple[]"
        }
      ],
      "stateMutability": "view",
      "type": "function"
    },
    {
      "inputs": [
        {
          "internalType": "uint256",
          "name": "gameId",
          "type": "uint256"
        }
      ],
      "name": "getInvitations",
      "outputs": [
        {
          "components": [
            {
              "internalType": "uint256",
              "name": "gameId",
              "type": "uint256"
            },
            {
              "internalType": "address",
              "name": "account",
              "type": "address"
            },
            {
              "internalType": "bool",
              "name": "responded",
              "type": "bool"
            },
            {
              "internalType": "bool",
              "name": "accepted",
              "type": "bool"
            },
            {
              "internalType": "uint256",
              "name": "stake",
              "type": "uint256"
            }
          ],
          "internalType": "struct PlayToEarnX.InvitationStruct[]",
          "name": "",
          "type": "tuple[]"
        }
      ],
      "stateMutability": "view",
      "type": "function"
    },
    {
      "inputs": [],
      "name": "getMyGames",
      "outputs": [
        {
          "components": [
            {
              "internalType": "uint256",
              "name": "id",
              "type": "uint256"
            },
            {
              "internalType": "string",
              "name": "title",
              "type": "string"
            },
            {
              "internalType": "string",
              "name": "description",
              "type": "string"
            },
            {
              "internalType": "address",
              "name": "owner",
              "type": "address"
            },
            {
              "internalType": "uint256",
              "name": "participants",
              "type": "uint256"
            },
            {
              "internalType": "uint256",
              "name": "numberOfWinners",
              "type": "uint256"
            },
            {
              "internalType": "uint256",
              "name": "acceptees",
              "type": "uint256"
            },
            {
              "internalType": "uint256",
              "name": "stake",
              "type": "uint256"
            },
            {
              "internalType": "uint256",
              "name": "startDate",
              "type": "uint256"
            },
            {
              "internalType": "uint256",
              "name": "endDate",
              "type": "uint256"
            },
            {
              "internalType": "uint256",
              "name": "timestamp",
              "type": "uint256"
            },
            {
              "internalType": "bool",
              "name": "deleted",
              "type": "bool"
            },
            {
              "internalType": "bool",
              "name": "paidOut",
              "type": "bool"
            }
          ],
          "internalType": "struct PlayToEarnX.GameStruct[]",
          "name": "Games",
          "type": "tuple[]"
        }
      ],
      "stateMutability": "view",
      "type": "function"
    },
    {
      "inputs": [],
      "name": "getPaidOutGames",
      "outputs": [
        {
          "components": [
            {
              "internalType": "uint256",
              "name": "id",
              "type": "uint256"
            },
            {
              "internalType": "string",
              "name": "title",
              "type": "string"
            },
            {
              "internalType": "string",
              "name": "description",
              "type": "string"
            },
            {
              "internalType": "address",
              "name": "owner",
              "type": "address"
            },
            {
              "internalType": "uint256",
              "name": "participants",
              "type": "uint256"
            },
            {
              "internalType": "uint256",
              "name": "numberOfWinners",
              "type": "uint256"
            },
            {
              "internalType": "uint256",
              "name": "acceptees",
              "type": "uint256"
            },
            {
              "internalType": "uint256",
              "name": "stake",
              "type": "uint256"
            },
            {
              "internalType": "uint256",
              "name": "startDate",
              "type": "uint256"
            },
            {
              "internalType": "uint256",
              "name": "endDate",
              "type": "uint256"
            },
            {
              "internalType": "uint256",
              "name": "timestamp",
              "type": "uint256"
            },
            {
              "internalType": "bool",
              "name": "deleted",
              "type": "bool"
            },
            {
              "internalType": "bool",
              "name": "paidOut",
              "type": "bool"
            }
          ],
          "internalType": "struct PlayToEarnX.GameStruct[]",
          "name": "Games",
          "type": "tuple[]"
        }
      ],
      "stateMutability": "view",
      "type": "function"
    },
    {
      "inputs": [
        {
          "internalType": "uint256",
          "name": "gameId",
          "type": "uint256"
        }
      ],
      "name": "getScores",
      "outputs": [
        {
          "components": [
            {
              "internalType": "uint256",
              "name": "gameId",
              "type": "uint256"
            },
            {
              "internalType": "address",
              "name": "player",
              "type": "address"
            },
            {
              "internalType": "uint256",
              "name": "score",
              "type": "uint256"
            },
            {
              "internalType": "uint256",
              "name": "prize",
              "type": "uint256"
            },
            {
              "internalType": "bool",
              "name": "played",
              "type": "bool"
            }
          ],
          "internalType": "struct PlayToEarnX.ScoreStruct[]",
          "name": "",
          "type": "tuple[]"
        }
      ],
      "stateMutability": "view",
      "type": "function"
    },
    {
      "inputs": [
        {
          "internalType": "address",
          "name": "spender",
          "type": "address"
        },
        {
          "internalType": "uint256",
          "name": "addedValue",
          "type": "uint256"
        }
      ],
      "name": "increaseAllowance",
      "outputs": [
        {
          "internalType": "bool",
          "name": "",
          "type": "bool"
        }
      ],
      "stateMutability": "nonpayable",
      "type": "function"
    },
    {
      "inputs": [
        {
          "internalType": "address",
          "name": "account",
          "type": "address"
        },
        {
          "internalType": "uint256",
          "name": "gameId",
          "type": "uint256"
        }
      ],
      "name": "invitePlayer",
      "outputs": [],
      "stateMutability": "nonpayable",
      "type": "function"
    },
    {
      "inputs": [],
      "name": "name",
      "outputs": [
        {
          "internalType": "string",
          "name": "",
          "type": "string"
        }
      ],
      "stateMutability": "view",
      "type": "function"
    },
    {
      "inputs": [],
      "name": "owner",
      "outputs": [
        {
          "internalType": "address",
          "name": "",
          "type": "address"
        }
      ],
      "stateMutability": "view",
      "type": "function"
    },
    {
      "inputs": [
        {
          "internalType": "uint256",
          "name": "gameId",
          "type": "uint256"
        }
      ],
      "name": "payout",
      "outputs": [],
      "stateMutability": "nonpayable",
      "type": "function"
    },
    {
      "inputs": [
        {
          "internalType": "uint256",
          "name": "gameId",
          "type": "uint256"
        },
        {
          "internalType": "uint256",
          "name": "index",
          "type": "uint256"
        }
      ],
      "name": "rejectInvitation",
      "outputs": [],
      "stateMutability": "nonpayable",
      "type": "function"
    },
    {
      "inputs": [],
      "name": "renounceOwnership",
      "outputs": [],
      "stateMutability": "nonpayable",
      "type": "function"
    },
    {
      "inputs": [
        {
          "internalType": "uint256",
          "name": "gameId",
          "type": "uint256"
        },
        {
          "internalType": "uint256",
          "name": "index",
          "type": "uint256"
        },
        {
          "internalType": "uint256",
          "name": "score",
          "type": "uint256"
        }
      ],
      "name": "saveScore",
      "outputs": [],
      "stateMutability": "nonpayable",
      "type": "function"
    },
    {
      "inputs": [
        {
          "internalType": "uint256",
          "name": "_pct",
          "type": "uint256"
        }
      ],
      "name": "setFeePercent",
      "outputs": [],
      "stateMutability": "nonpayable",
      "type": "function"
    },
    {
      "inputs": [
        {
          "components": [
            {
              "internalType": "uint256",
              "name": "gameId",
              "type": "uint256"
            },
            {
              "internalType": "address",
              "name": "player",
              "type": "address"
            },
            {
              "internalType": "uint256",
              "name": "score",
              "type": "uint256"
            },
            {
              "internalType": "uint256",
              "name": "prize",
              "type": "uint256"
            },
            {
              "internalType": "bool",
              "name": "played",
              "type": "bool"
            }
          ],
          "internalType": "struct PlayToEarnX.ScoreStruct[]",
          "name": "scoreSheet",
          "type": "tuple[]"
        }
      ],
      "name": "sortScores",
      "outputs": [
        {
          "components": [
            {
              "internalType": "uint256",
              "name": "gameId",
              "type": "uint256"
            },
            {
              "internalType": "address",
              "name": "player",
              "type": "address"
            },
            {
              "internalType": "uint256",
              "name": "score",
              "type": "uint256"
            },
            {
              "internalType": "uint256",
              "name": "prize",
              "type": "uint256"
            },
            {
              "internalType": "bool",
              "name": "played",
              "type": "bool"
            }
          ],
          "internalType": "struct PlayToEarnX.ScoreStruct[]",
          "name": "",
          "type": "tuple[]"
        }
      ],
      "stateMutability": "pure",
      "type": "function"
    },
    {
      "inputs": [],
      "name": "symbol",
      "outputs": [
        {
          "internalType": "string",
          "name": "",
          "type": "string"
        }
      ],
      "stateMutability": "view",
      "type": "function"
    },
    {
      "inputs": [],
      "name": "totalSupply",
      "outputs": [
        {
          "internalType": "uint256",
          "name": "",
          "type": "uint256"
        }
      ],
      "stateMutability": "view",
      "type": "function"
    },
    {
      "inputs": [
        {
          "internalType": "address",
          "name": "to",
          "type": "address"
        },
        {
          "internalType": "uint256",
          "name": "amount",
          "type": "uint256"
        }
      ],
      "name": "transfer",
      "outputs": [
        {
          "internalType": "bool",
          "name": "",
          "type": "bool"
        }
      ],
      "stateMutability": "nonpayable",
      "type": "function"
    },
    {
      "inputs": [
        {
          "internalType": "address",
          "name": "from",
          "type": "address"
        },
        {
          "internalType": "address",
          "name": "to",
          "type": "address"
        },
        {
          "internalType": "uint256",
          "name": "amount",
          "type": "uint256"
        }
      ],
      "name": "transferFrom",
      "outputs": [
        {
          "internalType": "bool",
          "name": "",
          "type": "bool"
        }
      ],
      "stateMutability": "nonpayable",
      "type": "function"
    },
    {
      "inputs": [
        {
          "internalType": "address",
          "name": "newOwner",
          "type": "address"
        }
      ],
      "name": "transferOwnership",
      "outputs": [],
      "stateMutability": "nonpayable",
      "type": "function"
    }
  ],
  "bytecode": "0x60806040523480156200001157600080fd5b5060405162003a9638038062003a96833981016040819052620000349162000110565b6040518060400160405280600c81526020016b283630bc902a379022b0b93760a11b8152506040518060400160405280600381526020016250324560e81b8152506200008f62000089620000bc60201b60201c565b620000c0565b600180556005620000a18382620001cf565b506006620000b08282620001cf565b505050600a556200029b565b3390565b600080546001600160a01b038381166001600160a01b0319831681178455604051919092169283917f8be0079c531659141344cd1fd0a4f28419497f9722a3daafe3b4186f6b6457e09190a35050565b6000602082840312156200012357600080fd5b5051919050565b634e487b7160e01b600052604160045260246000fd5b600181811c908216806200015557607f821691505b6020821081036200017657634e487b7160e01b600052602260045260246000fd5b50919050565b601f821115620001ca57600081815260208120601f850160051c81016020861015620001a55750805b601f850160051c820191505b81811015620001c657828155600101620001b1565b5050505b505050565b81516001600160401b03811115620001eb57620001eb6200012a565b6200020381620001fc845462000140565b846200017c565b602080601f8311600181146200023b5760008415620002225750858301515b600019600386901b1c1916600185901b178555620001c6565b600085815260208120601f198616915b828110156200026c578886015182559484019460019091019084016200024b565b50858210156200028b5787850151600019600388901b60f8161c191681555b5050505050600190811b01905550565b6137eb80620002ab6000396000f3fe6080604052600436106101c25760003560e01c8063715018a6116100f7578063a2f77bcc11610095578063c04c594711610064578063c04c59471461050b578063dd62ed3e14610520578063e115234314610540578063f2fde38b1461056057600080fd5b8063a2f77bcc1461047e578063a457c2d7146104ab578063a9059cbb146104cb578063b3c33603146104eb57600080fd5b8063872ff923116100d1578063872ff923146103ff5780638da5cb5b1461041457806395d89b411461043c578063a09621c71461045157600080fd5b8063715018a6146103b75780637a2f2136146103cc5780637ce3489b146103df57600080fd5b80632246fe0b11610164578063313ce5671161013e578063313ce56714610325578063395093511461034157806339bd3bbb1461036157806370a082311461038157600080fd5b80632246fe0b146102c557806323b872dd146102e5578063248a55a11461030557600080fd5b8063095ea7b3116101a0578063095ea7b3146102415780630af87c581461027157806318160ddd146102935780631eb4a1e5146102b257600080fd5b80630210d751146101c757806304527d90146101f257806306fdde031461021f575b600080fd5b3480156101d357600080fd5b506101dc610580565b6040516101e9919061303c565b60405180910390f35b3480156101fe57600080fd5b5061021261020d36600461309e565b6108a1565b6040516101e991906130b7565b34801561022b57600080fd5b5061023461094d565b6040516101e99190613130565b34801561024d57600080fd5b5061026161025c36600461315f565b6109df565b60405190151581526020016101e9565b34801561027d57600080fd5b5061029161028c366004613189565b6109f9565b005b34801561029f57600080fd5b506004545b6040519081526020016101e9565b6102916102c0366004613295565b610c98565b3480156102d157600080fd5b506102916102e036600461315f565b6110ab565b3480156102f157600080fd5b5061026161030036600461331c565b61125d565b34801561031157600080fd5b5061029161032036600461309e565b611281565b34801561033157600080fd5b50604051601281526020016101e9565b34801561034d57600080fd5b5061026161035c36600461315f565b611412565b34801561036d57600080fd5b5061029161037c366004613358565b611434565b34801561038d57600080fd5b506102a461039c36600461337a565b6001600160a01b031660009081526002602052604090205490565b3480156103c357600080fd5b5061029161150f565b6102916103da366004613358565b611523565b3480156103eb57600080fd5b506102916103fa36600461309e565b61179a565b34801561040b57600080fd5b506101dc61181a565b34801561042057600080fd5b506000546040516001600160a01b0390911681526020016101e9565b34801561044857600080fd5b50610234611b2f565b34801561045d57600080fd5b5061047161046c36600461309e565b611b3e565b6040516101e99190613395565b34801561048a57600080fd5b5061049e61049936600461309e565b611bea565b6040516101e99190613403565b3480156104b757600080fd5b506102616104c636600461315f565b611dc4565b3480156104d757600080fd5b506102616104e636600461315f565b611e3f565b3480156104f757600080fd5b50610212610506366004613416565b611e4d565b34801561051757600080fd5b506101dc6120c2565b34801561052c57600080fd5b506102a461053b366004613514565b6123d9565b34801561054c57600080fd5b5061029161055b36600461309e565b612404565b34801561056c57600080fd5b5061029161057b36600461337a565b612743565b6060600060015b60075481116105f0576000818152600c60205260409020600b015460ff161580156105cb57506000818152600c60205260409020600301546001600160a01b031633145b156105de57816105da8161355d565b9250505b806105e88161355d565b915050610587565b508067ffffffffffffffff81111561060a5761060a6131b5565b60405190808252806020026020018201604052801561064357816020015b610630612e77565b8152602001906001900390816106285790505b509150600060015b600754811161089b576000818152600c60205260409020600b015460ff1615801561068f57506000818152600c60205260409020600301546001600160a01b031633145b1561088957600c6000828152602001908152602001600020604051806101a0016040529081600082015481526020016001820180546106cd90613576565b80601f01602080910402602001604051908101604052809291908181526020018280546106f990613576565b80156107465780601f1061071b57610100808354040283529160200191610746565b820191906000526020600020905b81548152906001019060200180831161072957829003601f168201915b5050505050815260200160028201805461075f90613576565b80601f016020809104026020016040519081016040528092919081815260200182805461078b90613576565b80156107d85780601f106107ad576101008083540402835291602001916107d8565b820191906000526020600020905b8154815290600101906020018083116107bb57829003601f168201915b505050918352505060038201546001600160a01b03166020820152600482015460408201526005820154606082015260068201546080820152600782015460a0820152600882015460c0820152600982015460e0820152600a82015461010080830191909152600b9092015460ff8082161515610120840152929004909116151561014090910152848361086b8161355d565b94508151811061087d5761087d6135b0565b60200260200101819052505b806108938161355d565b91505061064b565b50505090565b6060600e6000838152602001908152602001600020805480602002602001604051908101604052809291908181526020016000905b828210156109425760008481526020908190206040805160a08101825260058602909201805483526001808201546001600160a01b031684860152600282015492840192909252600381015460608401526004015460ff161515608083015290835290920191016108d6565b505050509050919050565b60606005805461095c90613576565b80601f016020809104026020016040519081016040528092919081815260200182805461098890613576565b80156109d55780601f106109aa576101008083540402835291602001916109d5565b820191906000526020600020905b8154815290600101906020018083116109b857829003601f168201915b5050505050905090565b6000336109ed8185856127b9565b60019150505b92915050565b6000838152600c60205260409020600581015460069091015411610a5d5760405162461bcd60e51b8152602060048201526016602482015275139bdd08195b9bdd59da081c1b185e595c9cc81e595d60521b60448201526064015b60405180910390fd5b6000838152600e60205260409020805484919084908110610a8057610a806135b0565b90600052602060002090600502016000015414610ad25760405162461bcd60e51b815260206004820152601060248201526f141b185e595c881b9bdd08199bdd5b9960821b6044820152606401610a54565b6000838152600e60205260409020805483908110610af257610af26135b0565b600091825260209091206004600590920201015460ff1615610b565760405162461bcd60e51b815260206004820152601760248201527f506c6179657220616c7265616479207265636f726465640000000000000000006044820152606401610a54565b6000838152600e60205260409020805433919084908110610b7957610b796135b0565b60009182526020909120600160059092020101546001600160a01b031614610bb35760405162461bcd60e51b8152600401610a54906135c6565b6000838152600e60205260409020805482919084908110610bd657610bd66135b0565b9060005260206000209060050201600201819055506001600e60008581526020019081526020016000208381548110610c1157610c116135b0565b906000526020600020906005020160040160006101000a81548160ff02191690831515021790555033600e60008581526020019081526020016000208381548110610c5e57610c5e6135b0565b906000526020600020906005020160010160006101000a8154816001600160a01b0302191690836001600160a01b03160217905550505050565b60003411610ce85760405162461bcd60e51b815260206004820152601f60248201527f5374616b65206d7573742062652067726561746572207468616e207a65726f006044820152606401610a54565b60018411610d475760405162461bcd60e51b815260206004820152602660248201527f506172746974696370616e7473206d7573742062652067726561746572207468604482015265616e206f6e6560d01b6064820152608401610a54565b6000865111610d905760405162461bcd60e51b81526020600482015260156024820152745469746c652063616e6e6f7420626520656d70747960581b6044820152606401610a54565b6000855111610de15760405162461bcd60e51b815260206004820152601b60248201527f4465736372697074696f6e2063616e6e6f7420626520656d70747900000000006044820152606401610a54565b60008211610e3d5760405162461bcd60e51b8152602060048201526024808201527f53746172742064617465206d7573742062652067726561746572207468616e206044820152637a65726f60e01b6064820152608401610a54565b818111610e9d5760405162461bcd60e51b815260206004820152602860248201527f456e642064617465206d7573742062652067726561746572207468616e207374604482015267617274206461746560c01b6064820152608401610a54565b60008311610eed5760405162461bcd60e51b815260206004820181905260248201527f4e756d626572204f662077696e6e6572732063616e6e6f74206265207a65726f6044820152606401610a54565b610efb600780546001019055565b610f03612e77565b600754815260208101879052604081018690526080810185905260a08101849052610100810183905261012081018290523460e0820152336060820152610f486128dd565b61014082015280516000908152600c6020908152604090912082518155908201518291906001820190610f7b9082613641565b5060408201516002820190610f909082613641565b5060608201516003820180546001600160a01b0319166001600160a01b039092169190911790556080820151600482015560a0820151600582015560c0820151600682015560e082015160078201556101008083015160088301556101208301516009830155610140830151600a830155610160830151600b92830180546101809095015161ffff1990951691151561ff00191691909117931515909102929092179091558151600090815260209190915260409020805460ff19166001179055805161105c906128fc565b6110a25760405162461bcd60e51b81526020600482015260176024820152762330b4b632b2103a379031b932b0ba3290383630bcb2b960491b6044820152606401610a54565b50505050505050565b6000818152600b602052604090205460ff166110d95760405162461bcd60e51b8152600401610a5490613701565b6000818152600c60205260409020600481015460069091015411156111325760405162461bcd60e51b815260206004820152600f60248201526e4f7574206f6620636170616369747960881b6044820152606401610a54565b6000818152600f602090815260408083206001600160a01b038616845290915290205460ff16156111a55760405162461bcd60e51b815260206004820152601e60248201527f506c6179657220697320616c726561647920696e20746869732067616d6500006044820152606401610a54565b6040805160a081018252600081830181815260608301828152608084018381528685526001600160a01b039788166020808701918252888652600c815287862060070154835297855260108852958420805460018082018355918652979094209451600390970290940195865593519185018054915194511515600160a81b0260ff60a81b19951515600160a01b026001600160a81b0319909316939097169290921717929092169390931790559051600290910155565b60003361126b8582856129fe565b611276858585612a78565b506001949350505050565b6000818152600b602052604090205460ff166112af5760405162461bcd60e51b8152600401610a5490613701565b6000818152600c60205260409020600301546001600160a01b031633146112e85760405162461bcd60e51b8152600401610a54906135c6565b6000818152600c60205260409020600601546001146113495760405162461bcd60e51b815260206004820152601c60248201527f5061727469636970616e747320616c726561647920696e2067616d65000000006044820152606401610a54565b6000818152600d6020526040902080548061136657611366613729565b600082815260208082206003600019909401938402018281556001810183905560020180546001600160a01b031916905591909255828252600f8152604080832033808552908352818420805460ff19169055848452600c909252909120600701546113d29190612c23565b6000818152600c602052604081206006018054916113ef8361373f565b90915550506000908152600c60205260409020600b01805460ff19166001179055565b6000336109ed81858561142583836123d9565b61142f9190613756565b6127b9565b6000828152600b602052604090205460ff166114625760405162461bcd60e51b8152600401610a5490613701565b6000828152601060205260409020805433919083908110611485576114856135b0565b60009182526020909120600160039092020101546001600160a01b0316146114bf5760405162461bcd60e51b8152600401610a54906135c6565b6000828152601060205260409020805460019190839081106114e3576114e36135b0565b906000526020600020906003020160010160146101000a81548160ff0219169083151502179055505050565b611517612c88565b6115216000612ce2565b565b6000828152600b602052604090205460ff166115515760405162461bcd60e51b8152600401610a5490613701565b6000828152600c60205260409020600701543410156115a65760405162461bcd60e51b8152602060048201526011602482015270496e737566666369656e742066756e647360781b6044820152606401610a54565b60008281526010602052604090208054339190839081106115c9576115c96135b0565b60009182526020909120600160039092020101546001600160a01b0316146116035760405162461bcd60e51b8152600401610a54906135c6565b61160c826128fc565b6116525760405162461bcd60e51b81526020600482015260176024820152762330b4b632b2103a379031b932b0ba3290383630bcb2b960491b6044820152606401610a54565b600082815260106020526040902080546001919083908110611676576116766135b0565b60009182526020808320600160039093020182018054941515600160a01b0260ff60a01b19909516949094179093558482526010909252604090208054839081106116c3576116c36135b0565b906000526020600020906003020160010160156101000a81548160ff0219169083151502179055506116f3612eec565b8281523360208083019182526000858152600e825260408082208054600180820183559184528484208751600590920201908155945190850180546001600160a01b0319166001600160a01b039092169190911790558085015160028501556060850151600385015560808501516004909401805460ff191694151594909417909355858152600c9091529081206006018054916117908361355d565b9190505550505050565b6117a2612c88565b6000811180156117b3575060648111155b6118155760405162461bcd60e51b815260206004820152602d60248201527f4665652070657263656e74206d75737420626520696e207468652072616e676560448201526c206f66202831202d203130302960981b6064820152608401610a54565b600a55565b6060600060015b6007548111611887576000818152600c60205260409020600b015460ff1615801561186257506000818152600c60205260409020600b0154610100900460ff165b1561187557816118718161355d565b9250505b8061187f8161355d565b915050611821565b508067ffffffffffffffff8111156118a1576118a16131b5565b6040519080825280602002602001820160405280156118da57816020015b6118c7612e77565b8152602001906001900390816118bf5790505b509150600060015b600754811161089b576000818152600c60205260409020600b015460ff1615801561192357506000818152600c60205260409020600b0154610100900460ff165b15611b1d57600c6000828152602001908152602001600020604051806101a00160405290816000820154815260200160018201805461196190613576565b80601f016020809104026020016040519081016040528092919081815260200182805461198d90613576565b80156119da5780601f106119af576101008083540402835291602001916119da565b820191906000526020600020905b8154815290600101906020018083116119bd57829003601f168201915b505050505081526020016002820180546119f390613576565b80601f0160208091040260200160405190810160405280929190818152602001828054611a1f90613576565b8015611a6c5780601f10611a4157610100808354040283529160200191611a6c565b820191906000526020600020905b815481529060010190602001808311611a4f57829003601f168201915b505050918352505060038201546001600160a01b03166020820152600482015460408201526005820154606082015260068201546080820152600782015460a0820152600882015460c0820152600982015460e0820152600a82015461010080830191909152600b9092015460ff80821615156101208401529290049091161515610140909101528483611aff8161355d565b945081518110611b1157611b116135b0565b60200260200101819052505b80611b278161355d565b9150506118e2565b60606006805461095c90613576565b606060106000838152602001908152602001600020805480602002602001604051908101604052809291908181526020016000905b828210156109425760008481526020908190206040805160a08101825260038602909201805483526001808201546001600160a01b0381168587015260ff600160a01b82048116151594860194909452600160a81b9004909216151560608401526002015460808301529083529092019101611b73565b611bf2612e77565b600c6000838152602001908152602001600020604051806101a001604052908160008201548152602001600182018054611c2b90613576565b80601f0160208091040260200160405190810160405280929190818152602001828054611c5790613576565b8015611ca45780601f10611c7957610100808354040283529160200191611ca4565b820191906000526020600020905b815481529060010190602001808311611c8757829003601f168201915b50505050508152602001600282018054611cbd90613576565b80601f0160208091040260200160405190810160405280929190818152602001828054611ce990613576565b8015611d365780601f10611d0b57610100808354040283529160200191611d36565b820191906000526020600020905b815481529060010190602001808311611d1957829003601f168201915b505050918352505060038201546001600160a01b03166020820152600482015460408201526005820154606082015260068201546080820152600782015460a0820152600882015460c0820152600982015460e0820152600a82015461010080830191909152600b9092015460ff808216151561012084015292900490911615156101409091015292915050565b60003381611dd282866123d9565b905083811015611e325760405162461bcd60e51b815260206004820152602560248201527f45524332303a2064656372656173656420616c6c6f77616e63652062656c6f77604482015264207a65726f60d81b6064820152608401610a54565b61127682868684036127b9565b6000336109ed818585612a78565b805160609060005b611e60600183613769565b8110156120ba5760005b6001611e768385613769565b611e809190613769565b8110156120a757848181518110611e9957611e996135b0565b6020026020010151608001518015611ed5575084611eb8826001613756565b81518110611ec857611ec86135b0565b6020026020010151608001515b15611fb65784611ee6826001613756565b81518110611ef657611ef66135b0565b602002602001015160400151858281518110611f1457611f146135b0565b6020026020010151604001511115611fb1576000858281518110611f3a57611f3a6135b0565b6020026020010151905085826001611f529190613756565b81518110611f6257611f626135b0565b6020026020010151868381518110611f7c57611f7c6135b0565b60209081029190910101528086611f94846001613756565b81518110611fa457611fa46135b0565b6020026020010181905250505b612095565b848181518110611fc857611fc86135b0565b602002602001015160800151158015612005575084611fe8826001613756565b81518110611ff857611ff86135b0565b6020026020010151608001515b1561209557600085828151811061201e5761201e6135b0565b60200260200101519050858260016120369190613756565b81518110612046576120466135b0565b6020026020010151868381518110612060576120606135b0565b60209081029190910101528086612078846001613756565b81518110612088576120886135b0565b6020026020010181905250505b8061209f8161355d565b915050611e6a565b50806120b28161355d565b915050611e55565b509192915050565b6060600060015b6007548111612130576000818152600c60205260409020600b015460ff1615801561210b57506000818152600c60205260409020600b0154610100900460ff16155b1561211e578161211a8161355d565b9250505b806121288161355d565b9150506120c9565b508067ffffffffffffffff81111561214a5761214a6131b5565b60405190808252806020026020018201604052801561218357816020015b612170612e77565b8152602001906001900390816121685790505b509150600060015b600754811161089b576000818152600c60205260409020600b015460ff161580156121cd57506000818152600c60205260409020600b0154610100900460ff16155b156123c757600c6000828152602001908152602001600020604051806101a00160405290816000820154815260200160018201805461220b90613576565b80601f016020809104026020016040519081016040528092919081815260200182805461223790613576565b80156122845780601f1061225957610100808354040283529160200191612284565b820191906000526020600020905b81548152906001019060200180831161226757829003601f168201915b5050505050815260200160028201805461229d90613576565b80601f01602080910402602001604051908101604052809291908181526020018280546122c990613576565b80156123165780601f106122eb57610100808354040283529160200191612316565b820191906000526020600020905b8154815290600101906020018083116122f957829003601f168201915b505050918352505060038201546001600160a01b03166020820152600482015460408201526005820154606082015260068201546080820152600782015460a0820152600882015460c0820152600982015460e0820152600a82015461010080830191909152600b9092015460ff808216151561012084015292900490911615156101409091015284836123a98161355d565b9450815181106123bb576123bb6135b0565b60200260200101819052505b806123d18161355d565b91505061218b565b6001600160a01b03918216600090815260036020908152604080832093909416825291909152205490565b61240c612d32565b6000818152600b602052604090205460ff166124605760405162461bcd60e51b815260206004820152601360248201527211d85b5948191bd95cc81b9bdd08195e1a5cdd606a1b6044820152606401610a54565b6000818152600c60205260409020600b0154610100900460ff16156124bf5760405162461bcd60e51b815260206004820152601560248201527411d85b5948185b1c9958591e481c185a59081bdd5d605a1b6044820152606401610a54565b600a546000828152600c602052604081206007015490916124ed916064916124e79190612d8b565b90612d9e565b6000838152600c60205260408120600701549192509061250d9083612daa565b905061252a6125246000546001600160a01b031690565b83612c23565b61253f612538836002612d9e565b8290612daa565b6000848152600c6020526040902060030154909150612571906001600160a01b031661256c846002612d9e565b612c23565b6000838152600e602052604081205467ffffffffffffffff811115612598576125986131b5565b6040519080825280602002602001820160405280156125d157816020015b6125be612eec565b8152602001906001900390816125b65790505b506000858152600e602090815260408083208054825181850281018501909352808352949550612677949193909284015b8282101561266e5760008481526020908190206040805160a08101825260058602909201805483526001808201546001600160a01b031684860152600282015492840192909252600381015460608401526004015460ff16151560808301529083529092019101612602565b50505050611e4d565b905060005b6000858152600c6020526040902060050154811015612715576000858152600c60205260408120600501546126b2908590612d9e565b90506126db8383815181106126c9576126c96135b0565b60200260200101516020015182612c23565b6127028383815181106126f0576126f06135b0565b60200260200101516020015182612db6565b508061270d8161355d565b91505061267c565b5050506000828152600c60205260409020600b01805461ff0019166101001790555061274060018055565b50565b61274b612c88565b6001600160a01b0381166127b05760405162461bcd60e51b815260206004820152602660248201527f4f776e61626c653a206e6577206f776e657220697320746865207a65726f206160448201526564647265737360d01b6064820152608401610a54565b61274081612ce2565b6001600160a01b03831661281b5760405162461bcd60e51b8152602060048201526024808201527f45524332303a20617070726f76652066726f6d20746865207a65726f206164646044820152637265737360e01b6064820152608401610a54565b6001600160a01b03821661287c5760405162461bcd60e51b815260206004820152602260248201527f45524332303a20617070726f766520746f20746865207a65726f206164647265604482015261737360f01b6064820152608401610a54565b6001600160a01b0383811660008181526003602090815260408083209487168084529482529182902085905590518481527f8c5be1e5ebec7d5bd14f71427d1e84f3dd0314c0f7b2291e5b200ac8c7c3b925910160405180910390a3505050565b60006128eb426103e861377c565b6128f7906103e8613756565b905090565b600061290c600880546001019055565b6129396040518060600160405280600081526020016000815260200160006001600160a01b031681525090565b600854815260208082018481523360408085018281526000888152600d8652828120805460018082018355918352878320895160039092020190815586518183018190559351600290910180546001600160a01b0319166001600160a01b03909216919091179055918152600f8652828120938152928552818320805460ff1916909117905591518152600c90925281206006018054916129d98361355d565b919050555034600960008282546129f09190613756565b909155506001949350505050565b6000612a0a84846123d9565b90506000198114612a725781811015612a655760405162461bcd60e51b815260206004820152601d60248201527f45524332303a20696e73756666696369656e7420616c6c6f77616e63650000006044820152606401610a54565b612a7284848484036127b9565b50505050565b6001600160a01b038316612adc5760405162461bcd60e51b815260206004820152602560248201527f45524332303a207472616e736665722066726f6d20746865207a65726f206164604482015264647265737360d81b6064820152608401610a54565b6001600160a01b038216612b3e5760405162461bcd60e51b815260206004820152602360248201527f45524332303a207472616e7366657220746f20746865207a65726f206164647260448201526265737360e81b6064820152608401610a54565b6001600160a01b03831660009081526002602052604090205481811015612bb65760405162461bcd60e51b815260206004820152602660248201527f45524332303a207472616e7366657220616d6f756e7420657863656564732062604482015265616c616e636560d01b6064820152608401610a54565b6001600160a01b0380851660008181526002602052604080822086860390559286168082529083902080548601905591517fddf252ad1be2c89b69c2b068fc378daa952ba7f163c4a11628f55a4df523b3ef90612c169086815260200190565b60405180910390a3612a72565b6000826001600160a01b03168260405160006040518083038185875af1925050503d8060008114612c70576040519150601f19603f3d011682016040523d82523d6000602084013e612c75565b606091505b5050905080612c8357600080fd5b505050565b6000546001600160a01b031633146115215760405162461bcd60e51b815260206004820181905260248201527f4f776e61626c653a2063616c6c6572206973206e6f7420746865206f776e65726044820152606401610a54565b600080546001600160a01b038381166001600160a01b0319831681178455604051919092169283917f8be0079c531659141344cd1fd0a4f28419497f9722a3daafe3b4186f6b6457e09190a35050565b600260015403612d845760405162461bcd60e51b815260206004820152601f60248201527f5265656e7472616e637947756172643a207265656e7472616e742063616c6c006044820152606401610a54565b6002600155565b6000612d97828461377c565b9392505050565b6000612d978284613793565b6000612d978284613769565b6001600160a01b038216612e0c5760405162461bcd60e51b815260206004820152601f60248201527f45524332303a206d696e7420746f20746865207a65726f2061646472657373006044820152606401610a54565b8060046000828254612e1e9190613756565b90915550506001600160a01b0382166000818152600260209081526040808320805486019055518481527fddf252ad1be2c89b69c2b068fc378daa952ba7f163c4a11628f55a4df523b3ef910160405180910390a35050565b604051806101a0016040528060008152602001606081526020016060815260200160006001600160a01b03168152602001600081526020016000815260200160008152602001600081526020016000815260200160008152602001600081526020016000151581526020016000151581525090565b6040518060a001604052806000815260200160006001600160a01b0316815260200160008152602001600081526020016000151581525090565b6000815180845260005b81811015612f4c57602081850181015186830182015201612f30565b506000602082860101526020601f19601f83011685010191505092915050565b60006101a0825184526020830151816020860152612f8c82860182612f26565b91505060408301518482036040860152612fa68282612f26565b9150506060830151612fc360608601826001600160a01b03169052565b506080830151608085015260a083015160a085015260c083015160c085015260e083015160e0850152610100808401518186015250610120808401518186015250610140808401518186015250610160808401516130248287018215159052565b50506101809283015115159390920192909252919050565b6000602080830181845280855180835260408601915060408160051b870101925083870160005b8281101561309157603f1988860301845261307f858351612f6c565b94509285019290850190600101613063565b5092979650505050505050565b6000602082840312156130b057600080fd5b5035919050565b602080825282518282018190526000919060409081850190868401855b8281101561312357815180518552868101516001600160a01b03168786015285810151868601526060808201519086015260809081015115159085015260a090930192908501906001016130d4565b5091979650505050505050565b602081526000612d976020830184612f26565b80356001600160a01b038116811461315a57600080fd5b919050565b6000806040838503121561317257600080fd5b61317b83613143565b946020939093013593505050565b60008060006060848603121561319e57600080fd5b505081359360208301359350604090920135919050565b634e487b7160e01b600052604160045260246000fd5b60405160a0810167ffffffffffffffff811182821017156131ee576131ee6131b5565b60405290565b604051601f8201601f1916810167ffffffffffffffff8111828210171561321d5761321d6131b5565b604052919050565b600082601f83011261323657600080fd5b813567ffffffffffffffff811115613250576132506131b5565b613263601f8201601f19166020016131f4565b81815284602083860101111561327857600080fd5b816020850160208301376000918101602001919091529392505050565b60008060008060008060c087890312156132ae57600080fd5b863567ffffffffffffffff808211156132c657600080fd5b6132d28a838b01613225565b975060208901359150808211156132e857600080fd5b506132f589828a01613225565b96999698505050506040850135946060810135946080820135945060a09091013592509050565b60008060006060848603121561333157600080fd5b61333a84613143565b925061334860208501613143565b9150604084013590509250925092565b6000806040838503121561336b57600080fd5b50508035926020909101359150565b60006020828403121561338c57600080fd5b612d9782613143565b602080825282518282018190526000919060409081850190868401855b8281101561312357815180518552868101516001600160a01b031687860152858101511515868601526060808201511515908601526080908101519085015260a090930192908501906001016133b2565b602081526000612d976020830184612f6c565b6000602080838503121561342957600080fd5b823567ffffffffffffffff8082111561344157600080fd5b818501915085601f83011261345557600080fd5b813581811115613467576134676131b5565b613475848260051b016131f4565b818152848101925060a091820284018501918883111561349457600080fd5b938501935b828510156135085780858a0312156134b15760008081fd5b6134b96131cb565b853581526134c8878701613143565b81880152604086810135908201526060808701359082015260808087013580151581146134f55760008081fd5b9082015284529384019392850192613499565b50979650505050505050565b6000806040838503121561352757600080fd5b61353083613143565b915061353e60208401613143565b90509250929050565b634e487b7160e01b600052601160045260246000fd5b60006001820161356f5761356f613547565b5060010190565b600181811c9082168061358a57607f821691505b6020821081036135aa57634e487b7160e01b600052602260045260246000fd5b50919050565b634e487b7160e01b600052603260045260246000fd5b602080825260139082015272556e617574686f72697a656420656e7469747960681b604082015260600190565b601f821115612c8357600081815260208120601f850160051c8101602086101561361a5750805b601f850160051c820191505b8181101561363957828155600101613626565b505050505050565b815167ffffffffffffffff81111561365b5761365b6131b5565b61366f816136698454613576565b846135f3565b602080601f8311600181146136a4576000841561368c5750858301515b600019600386901b1c1916600185901b178555613639565b600085815260208120601f198616915b828110156136d3578886015182559484019460019091019084016136b4565b50858210156136f15787850151600019600388901b60f8161c191681555b5050505050600190811b01905550565b6020808252600e908201526d11d85b59481b9bdd08199bdd5b9960921b604082015260600190565b634e487b7160e01b600052603160045260246000fd5b60008161374e5761374e613547565b506000190190565b808201808211156109f3576109f3613547565b818103818111156109f3576109f3613547565b80820281158282048414176109f3576109f3613547565b6000826137b057634e487b7160e01b600052601260045260246000fd5b50049056fea2646970667358221220e4abf3cc2534e634998a5c3a766fe6f15ef8583d8dd46ac52e9a1c5b8eace6e364736f6c63430008110033",
  "linkReferences": {},
  "deployedLinkReferences": {}
}