{
  "_format": "hh-sol-artifact-1",
  "contractName": "PlayToEarnX",
  "sourceName": "contracts/Play2EarnX.sol",
  "abi": [
    {
      "inputs": [
        {
          "internalType": "uint256",
          "name": "_pct",
          "type": "uint256"
        }
      ],
      "stateMutability": "nonpayable",
      "type": "constructor"
    },
    {
      "anonymous": false,
      "inputs": [
        {
          "indexed": true,
          "internalType": "address",
          "name": "owner",
          "type": "address"
        },
        {
          "indexed": true,
          "internalType": "address",
          "name": "spender",
          "type": "address"
        },
        {
          "indexed": false,
          "internalType": "uint256",
          "name": "value",
          "type": "uint256"
        }
      ],
      "name": "Approval",
      "type": "event"
    },
    {
      "anonymous": false,
      "inputs": [
        {
          "indexed": true,
          "internalType": "address",
          "name": "previousOwner",
          "type": "address"
        },
        {
          "indexed": true,
          "internalType": "address",
          "name": "newOwner",
          "type": "address"
        }
      ],
      "name": "OwnershipTransferred",
      "type": "event"
    },
    {
      "anonymous": false,
      "inputs": [
        {
          "indexed": true,
          "internalType": "address",
          "name": "from",
          "type": "address"
        },
        {
          "indexed": true,
          "internalType": "address",
          "name": "to",
          "type": "address"
        },
        {
          "indexed": false,
          "internalType": "uint256",
          "name": "value",
          "type": "uint256"
        }
      ],
      "name": "Transfer",
      "type": "event"
    },
    {
      "inputs": [
        {
          "internalType": "uint256",
          "name": "gameId",
          "type": "uint256"
        },
        {
          "internalType": "uint256",
          "name": "index",
          "type": "uint256"
        }
      ],
      "name": "acceptInvitation",
      "outputs": [],
      "stateMutability": "payable",
      "type": "function"
    },
    {
      "inputs": [
        {
          "internalType": "address",
          "name": "owner",
          "type": "address"
        },
        {
          "internalType": "address",
          "name": "spender",
          "type": "address"
        }
      ],
      "name": "allowance",
      "outputs": [
        {
          "internalType": "uint256",
          "name": "",
          "type": "uint256"
        }
      ],
      "stateMutability": "view",
      "type": "function"
    },
    {
      "inputs": [
        {
          "internalType": "address",
          "name": "spender",
          "type": "address"
        },
        {
          "internalType": "uint256",
          "name": "amount",
          "type": "uint256"
        }
      ],
      "name": "approve",
      "outputs": [
        {
          "internalType": "bool",
          "name": "",
          "type": "bool"
        }
      ],
      "stateMutability": "nonpayable",
      "type": "function"
    },
    {
      "inputs": [
        {
          "internalType": "address",
          "name": "account",
          "type": "address"
        }
      ],
      "name": "balanceOf",
      "outputs": [
        {
          "internalType": "uint256",
          "name": "",
          "type": "uint256"
        }
      ],
      "stateMutability": "view",
      "type": "function"
    },
    {
      "inputs": [
        {
          "internalType": "string",
          "name": "title",
          "type": "string"
        },
        {
          "internalType": "string",
          "name": "description",
          "type": "string"
        },
        {
          "internalType": "uint256",
          "name": "participants",
          "type": "uint256"
        },
        {
          "internalType": "uint256",
          "name": "numberOfWinners",
          "type": "uint256"
        },
        {
          "internalType": "uint256",
          "name": "startDate",
          "type": "uint256"
        },
        {
          "internalType": "uint256",
          "name": "endDate",
          "type": "uint256"
        }
      ],
      "name": "createGame",
      "outputs": [],
      "stateMutability": "payable",
      "type": "function"
    },
    {
      "inputs": [],
      "name": "decimals",
      "outputs": [
        {
          "internalType": "uint8",
          "name": "",
          "type": "uint8"
        }
      ],
      "stateMutability": "view",
      "type": "function"
    },
    {
      "inputs": [
        {
          "internalType": "address",
          "name": "spender",
          "type": "address"
        },
        {
          "internalType": "uint256",
          "name": "subtractedValue",
          "type": "uint256"
        }
      ],
      "name": "decreaseAllowance",
      "outputs": [
        {
          "internalType": "bool",
          "name": "",
          "type": "bool"
        }
      ],
      "stateMutability": "nonpayable",
      "type": "function"
    },
    {
      "inputs": [
        {
          "internalType": "uint256",
          "name": "gameId",
          "type": "uint256"
        }
      ],
      "name": "deleteGame",
      "outputs": [],
      "stateMutability": "nonpayable",
      "type": "function"
    },
    {
      "inputs": [
        {
          "internalType": "uint256",
          "name": "gameId",
          "type": "uint256"
        }
      ],
      "name": "getGame",
      "outputs": [
        {
          "components": [
            {
              "internalType": "uint256",
              "name": "id",
              "type": "uint256"
            },
            {
              "internalType": "string",
              "name": "title",
              "type": "string"
            },
            {
              "internalType": "string",
              "name": "description",
              "type": "string"
            },
            {
              "internalType": "address",
              "name": "owner",
              "type": "address"
            },
            {
              "internalType": "uint256",
              "name": "participants",
              "type": "uint256"
            },
            {
              "internalType": "uint256",
              "name": "numberOfWinners",
              "type": "uint256"
            },
            {
              "internalType": "uint256",
              "name": "acceptees",
              "type": "uint256"
            },
            {
              "internalType": "uint256",
              "name": "stake",
              "type": "uint256"
            },
            {
              "internalType": "uint256",
              "name": "startDate",
              "type": "uint256"
            },
            {
              "internalType": "uint256",
              "name": "endDate",
              "type": "uint256"
            },
            {
              "internalType": "uint256",
              "name": "timestamp",
              "type": "uint256"
            },
            {
              "internalType": "bool",
              "name": "deleted",
              "type": "bool"
            },
            {
              "internalType": "bool",
              "name": "paidOut",
              "type": "bool"
            }
          ],
          "internalType": "struct PlayToEarnX.GameStruct",
          "name": "",
          "type": "tuple"
        }
      ],
      "stateMutability": "view",
      "type": "function"
    },
    {
      "inputs": [],
      "name": "getGames",
      "outputs": [
        {
          "components": [
            {
              "internalType": "uint256",
              "name": "id",
              "type": "uint256"
            },
            {
              "internalType": "string",
              "name": "title",
              "type": "string"
            },
            {
              "internalType": "string",
              "name": "description",
              "type": "string"
            },
            {
              "internalType": "address",
              "name": "owner",
              "type": "address"
            },
            {
              "internalType": "uint256",
              "name": "participants",
              "type": "uint256"
            },
            {
              "internalType": "uint256",
              "name": "numberOfWinners",
              "type": "uint256"
            },
            {
              "internalType": "uint256",
              "name": "acceptees",
              "type": "uint256"
            },
            {
              "internalType": "uint256",
              "name": "stake",
              "type": "uint256"
            },
            {
              "internalType": "uint256",
              "name": "startDate",
              "type": "uint256"
            },
            {
              "internalType": "uint256",
              "name": "endDate",
              "type": "uint256"
            },
            {
              "internalType": "uint256",
              "name": "timestamp",
              "type": "uint256"
            },
            {
              "internalType": "bool",
              "name": "deleted",
              "type": "bool"
            },
            {
              "internalType": "bool",
              "name": "paidOut",
              "type": "bool"
            }
          ],
          "internalType": "struct PlayToEarnX.GameStruct[]",
          "name": "Games",
          "type": "tuple[]"
        }
      ],
      "stateMutability": "view",
      "type": "function"
    },
    {
      "inputs": [
        {
          "internalType": "uint256",
          "name": "gameId",
          "type": "uint256"
        }
      ],
      "name": "getInvitations",
      "outputs": [
        {
          "components": [
            {
              "internalType": "uint256",
              "name": "id",
              "type": "uint256"
            },
            {
              "internalType": "string",
              "name": "title",
              "type": "string"
            },
            {
              "internalType": "uint256",
              "name": "gameId",
              "type": "uint256"
            },
            {
              "internalType": "address",
              "name": "receiver",
              "type": "address"
            },
            {
              "internalType": "address",
              "name": "sender",
              "type": "address"
            },
            {
              "internalType": "bool",
              "name": "responded",
              "type": "bool"
            },
            {
              "internalType": "bool",
              "name": "accepted",
              "type": "bool"
            },
            {
              "internalType": "uint256",
              "name": "stake",
              "type": "uint256"
            },
            {
              "internalType": "uint256",
              "name": "timestamp",
              "type": "uint256"
            }
          ],
          "internalType": "struct PlayToEarnX.InvitationStruct[]",
          "name": "",
          "type": "tuple[]"
        }
      ],
      "stateMutability": "view",
      "type": "function"
    },
    {
      "inputs": [],
      "name": "getMyGames",
      "outputs": [
        {
          "components": [
            {
              "internalType": "uint256",
              "name": "id",
              "type": "uint256"
            },
            {
              "internalType": "string",
              "name": "title",
              "type": "string"
            },
            {
              "internalType": "string",
              "name": "description",
              "type": "string"
            },
            {
              "internalType": "address",
              "name": "owner",
              "type": "address"
            },
            {
              "internalType": "uint256",
              "name": "participants",
              "type": "uint256"
            },
            {
              "internalType": "uint256",
              "name": "numberOfWinners",
              "type": "uint256"
            },
            {
              "internalType": "uint256",
              "name": "acceptees",
              "type": "uint256"
            },
            {
              "internalType": "uint256",
              "name": "stake",
              "type": "uint256"
            },
            {
              "internalType": "uint256",
              "name": "startDate",
              "type": "uint256"
            },
            {
              "internalType": "uint256",
              "name": "endDate",
              "type": "uint256"
            },
            {
              "internalType": "uint256",
              "name": "timestamp",
              "type": "uint256"
            },
            {
              "internalType": "bool",
              "name": "deleted",
              "type": "bool"
            },
            {
              "internalType": "bool",
              "name": "paidOut",
              "type": "bool"
            }
          ],
          "internalType": "struct PlayToEarnX.GameStruct[]",
          "name": "Games",
          "type": "tuple[]"
        }
      ],
      "stateMutability": "view",
      "type": "function"
    },
    {
      "inputs": [],
      "name": "getMyInvitations",
      "outputs": [
        {
          "components": [
            {
              "internalType": "uint256",
              "name": "id",
              "type": "uint256"
            },
            {
              "internalType": "string",
              "name": "title",
              "type": "string"
            },
            {
              "internalType": "uint256",
              "name": "gameId",
              "type": "uint256"
            },
            {
              "internalType": "address",
              "name": "receiver",
              "type": "address"
            },
            {
              "internalType": "address",
              "name": "sender",
              "type": "address"
            },
            {
              "internalType": "bool",
              "name": "responded",
              "type": "bool"
            },
            {
              "internalType": "bool",
              "name": "accepted",
              "type": "bool"
            },
            {
              "internalType": "uint256",
              "name": "stake",
              "type": "uint256"
            },
            {
              "internalType": "uint256",
              "name": "timestamp",
              "type": "uint256"
            }
          ],
          "internalType": "struct PlayToEarnX.InvitationStruct[]",
          "name": "Invitation",
          "type": "tuple[]"
        }
      ],
      "stateMutability": "view",
      "type": "function"
    },
    {
      "inputs": [],
      "name": "getPaidOutGames",
      "outputs": [
        {
          "components": [
            {
              "internalType": "uint256",
              "name": "id",
              "type": "uint256"
            },
            {
              "internalType": "string",
              "name": "title",
              "type": "string"
            },
            {
              "internalType": "string",
              "name": "description",
              "type": "string"
            },
            {
              "internalType": "address",
              "name": "owner",
              "type": "address"
            },
            {
              "internalType": "uint256",
              "name": "participants",
              "type": "uint256"
            },
            {
              "internalType": "uint256",
              "name": "numberOfWinners",
              "type": "uint256"
            },
            {
              "internalType": "uint256",
              "name": "acceptees",
              "type": "uint256"
            },
            {
              "internalType": "uint256",
              "name": "stake",
              "type": "uint256"
            },
            {
              "internalType": "uint256",
              "name": "startDate",
              "type": "uint256"
            },
            {
              "internalType": "uint256",
              "name": "endDate",
              "type": "uint256"
            },
            {
              "internalType": "uint256",
              "name": "timestamp",
              "type": "uint256"
            },
            {
              "internalType": "bool",
              "name": "deleted",
              "type": "bool"
            },
            {
              "internalType": "bool",
              "name": "paidOut",
              "type": "bool"
            }
          ],
          "internalType": "struct PlayToEarnX.GameStruct[]",
          "name": "Games",
          "type": "tuple[]"
        }
      ],
      "stateMutability": "view",
      "type": "function"
    },
    {
      "inputs": [
        {
          "internalType": "uint256",
          "name": "gameId",
          "type": "uint256"
        }
      ],
      "name": "getScores",
      "outputs": [
        {
          "components": [
            {
              "internalType": "uint256",
              "name": "id",
              "type": "uint256"
            },
            {
              "internalType": "uint256",
              "name": "gameId",
              "type": "uint256"
            },
            {
              "internalType": "address",
              "name": "player",
              "type": "address"
            },
            {
              "internalType": "uint256",
              "name": "score",
              "type": "uint256"
            },
            {
              "internalType": "uint256",
              "name": "prize",
              "type": "uint256"
            },
            {
              "internalType": "bool",
              "name": "played",
              "type": "bool"
            }
          ],
          "internalType": "struct PlayToEarnX.ScoreStruct[]",
          "name": "",
          "type": "tuple[]"
        }
      ],
      "stateMutability": "view",
      "type": "function"
    },
    {
      "inputs": [
        {
          "internalType": "address",
          "name": "spender",
          "type": "address"
        },
        {
          "internalType": "uint256",
          "name": "addedValue",
          "type": "uint256"
        }
      ],
      "name": "increaseAllowance",
      "outputs": [
        {
          "internalType": "bool",
          "name": "",
          "type": "bool"
        }
      ],
      "stateMutability": "nonpayable",
      "type": "function"
    },
    {
      "inputs": [
        {
          "internalType": "address",
          "name": "receiver",
          "type": "address"
        },
        {
          "internalType": "uint256",
          "name": "gameId",
          "type": "uint256"
        }
      ],
      "name": "invitePlayer",
      "outputs": [],
      "stateMutability": "nonpayable",
      "type": "function"
    },
    {
      "inputs": [],
      "name": "name",
      "outputs": [
        {
          "internalType": "string",
          "name": "",
          "type": "string"
        }
      ],
      "stateMutability": "view",
      "type": "function"
    },
    {
      "inputs": [],
      "name": "owner",
      "outputs": [
        {
          "internalType": "address",
          "name": "",
          "type": "address"
        }
      ],
      "stateMutability": "view",
      "type": "function"
    },
    {
      "inputs": [
        {
          "internalType": "uint256",
          "name": "gameId",
          "type": "uint256"
        }
      ],
      "name": "payout",
      "outputs": [],
      "stateMutability": "nonpayable",
      "type": "function"
    },
    {
      "inputs": [
        {
          "internalType": "uint256",
          "name": "gameId",
          "type": "uint256"
        },
        {
          "internalType": "uint256",
          "name": "index",
          "type": "uint256"
        }
      ],
      "name": "rejectInvitation",
      "outputs": [],
      "stateMutability": "nonpayable",
      "type": "function"
    },
    {
      "inputs": [],
      "name": "renounceOwnership",
      "outputs": [],
      "stateMutability": "nonpayable",
      "type": "function"
    },
    {
      "inputs": [
        {
          "internalType": "uint256",
          "name": "gameId",
          "type": "uint256"
        },
        {
          "internalType": "uint256",
          "name": "index",
          "type": "uint256"
        },
        {
          "internalType": "uint256",
          "name": "score",
          "type": "uint256"
        }
      ],
      "name": "saveScore",
      "outputs": [],
      "stateMutability": "nonpayable",
      "type": "function"
    },
    {
      "inputs": [
        {
          "internalType": "uint256",
          "name": "_pct",
          "type": "uint256"
        }
      ],
      "name": "setFeePercent",
      "outputs": [],
      "stateMutability": "nonpayable",
      "type": "function"
    },
    {
      "inputs": [
        {
          "components": [
            {
              "internalType": "uint256",
              "name": "id",
              "type": "uint256"
            },
            {
              "internalType": "uint256",
              "name": "gameId",
              "type": "uint256"
            },
            {
              "internalType": "address",
              "name": "player",
              "type": "address"
            },
            {
              "internalType": "uint256",
              "name": "score",
              "type": "uint256"
            },
            {
              "internalType": "uint256",
              "name": "prize",
              "type": "uint256"
            },
            {
              "internalType": "bool",
              "name": "played",
              "type": "bool"
            }
          ],
          "internalType": "struct PlayToEarnX.ScoreStruct[]",
          "name": "scoreSheet",
          "type": "tuple[]"
        }
      ],
      "name": "sortScores",
      "outputs": [
        {
          "components": [
            {
              "internalType": "uint256",
              "name": "id",
              "type": "uint256"
            },
            {
              "internalType": "uint256",
              "name": "gameId",
              "type": "uint256"
            },
            {
              "internalType": "address",
              "name": "player",
              "type": "address"
            },
            {
              "internalType": "uint256",
              "name": "score",
              "type": "uint256"
            },
            {
              "internalType": "uint256",
              "name": "prize",
              "type": "uint256"
            },
            {
              "internalType": "bool",
              "name": "played",
              "type": "bool"
            }
          ],
          "internalType": "struct PlayToEarnX.ScoreStruct[]",
          "name": "",
          "type": "tuple[]"
        }
      ],
      "stateMutability": "pure",
      "type": "function"
    },
    {
      "inputs": [],
      "name": "symbol",
      "outputs": [
        {
          "internalType": "string",
          "name": "",
          "type": "string"
        }
      ],
      "stateMutability": "view",
      "type": "function"
    },
    {
      "inputs": [],
      "name": "totalSupply",
      "outputs": [
        {
          "internalType": "uint256",
          "name": "",
          "type": "uint256"
        }
      ],
      "stateMutability": "view",
      "type": "function"
    },
    {
      "inputs": [
        {
          "internalType": "address",
          "name": "to",
          "type": "address"
        },
        {
          "internalType": "uint256",
          "name": "amount",
          "type": "uint256"
        }
      ],
      "name": "transfer",
      "outputs": [
        {
          "internalType": "bool",
          "name": "",
          "type": "bool"
        }
      ],
      "stateMutability": "nonpayable",
      "type": "function"
    },
    {
      "inputs": [
        {
          "internalType": "address",
          "name": "from",
          "type": "address"
        },
        {
          "internalType": "address",
          "name": "to",
          "type": "address"
        },
        {
          "internalType": "uint256",
          "name": "amount",
          "type": "uint256"
        }
      ],
      "name": "transferFrom",
      "outputs": [
        {
          "internalType": "bool",
          "name": "",
          "type": "bool"
        }
      ],
      "stateMutability": "nonpayable",
      "type": "function"
    },
    {
      "inputs": [
        {
          "internalType": "address",
          "name": "newOwner",
          "type": "address"
        }
      ],
      "name": "transferOwnership",
      "outputs": [],
      "stateMutability": "nonpayable",
      "type": "function"
    }
  ],
  "bytecode": "0x60806040523480156200001157600080fd5b50604051620043c2380380620043c2833981016040819052620000349162000110565b6040518060400160405280600c81526020016b283630bc902a379022b0b93760a11b8152506040518060400160405280600381526020016250324560e81b8152506200008f62000089620000bc60201b60201c565b620000c0565b600180556005620000a18382620001cf565b506006620000b08282620001cf565b505050600b556200029b565b3390565b600080546001600160a01b038381166001600160a01b0319831681178455604051919092169283917f8be0079c531659141344cd1fd0a4f28419497f9722a3daafe3b4186f6b6457e09190a35050565b6000602082840312156200012357600080fd5b5051919050565b634e487b7160e01b600052604160045260246000fd5b600181811c908216806200015557607f821691505b6020821081036200017657634e487b7160e01b600052602260045260246000fd5b50919050565b601f821115620001ca57600081815260208120601f850160051c81016020861015620001a55750805b601f850160051c820191505b81811015620001c657828155600101620001b1565b5050505b505050565b81516001600160401b03811115620001eb57620001eb6200012a565b6200020381620001fc845462000140565b846200017c565b602080601f8311600181146200023b5760008415620002225750858301515b600019600386901b1c1916600185901b178555620001c6565b600085815260208120601f198616915b828110156200026c578886015182559484019460019091019084016200024b565b50858210156200028b5787850151600019600388901b60f8161c191681555b5050505050600190811b01905550565b61411780620002ab6000396000f3fe6080604052600436106101cd5760003560e01c8063715018a6116100f7578063a09621c711610095578063c04c594711610064578063c04c59471461052b578063dd62ed3e14610540578063e115234314610560578063f2fde38b1461058057600080fd5b8063a09621c71461049e578063a2f77bcc146104be578063a457c2d7146104eb578063a9059cbb1461050b57600080fd5b8063872ff923116100d1578063872ff9231461042a5780638da5cb5b1461043f57806390d559a71461046757806395d89b411461048957600080fd5b8063715018a6146103e25780637a2f2136146103f75780637ce3489b1461040a57600080fd5b80632246fe0b1161016f578063337b67db1161013e578063337b67db1461034c578063395093511461036c57806339bd3bbb1461038c57806370a08231146103ac57600080fd5b80632246fe0b146102d057806323b872dd146102f0578063248a55a114610310578063313ce5671461033057600080fd5b8063095ea7b3116101ab578063095ea7b31461024c5780630af87c581461027c57806318160ddd1461029e5780631eb4a1e5146102bd57600080fd5b80630210d751146101d257806304527d90146101fd57806306fdde031461022a575b600080fd5b3480156101de57600080fd5b506101e76105a0565b6040516101f491906138e6565b60405180910390f35b34801561020957600080fd5b5061021d610218366004613948565b6108c1565b6040516101f49190613961565b34801561023657600080fd5b5061023f610977565b6040516101f491906139e4565b34801561025857600080fd5b5061026c610267366004613a13565b610a09565b60405190151581526020016101f4565b34801561028857600080fd5b5061029c610297366004613a3d565b610a23565b005b3480156102aa57600080fd5b506004545b6040519081526020016101f4565b61029c6102cb366004613b49565b610cc2565b3480156102dc57600080fd5b5061029c6102eb366004613a13565b61116f565b3480156102fc57600080fd5b5061026c61030b366004613bd0565b61145c565b34801561031c57600080fd5b5061029c61032b366004613948565b611480565b34801561033c57600080fd5b50604051601281526020016101f4565b34801561035857600080fd5b5061021d610367366004613c0c565b611611565b34801561037857600080fd5b5061026c610387366004613a13565b611886565b34801561039857600080fd5b5061029c6103a7366004613d14565b6118a8565b3480156103b857600080fd5b506102af6103c7366004613d36565b6001600160a01b031660009081526002602052604090205490565b3480156103ee57600080fd5b5061029c611983565b61029c610405366004613d14565b611997565b34801561041657600080fd5b5061029c610425366004613948565b611c02565b34801561043657600080fd5b506101e7611c82565b34801561044b57600080fd5b506000546040516001600160a01b0390911681526020016101f4565b34801561047357600080fd5b5061047c611f97565b6040516101f49190613d51565b34801561049557600080fd5b5061023f612232565b3480156104aa57600080fd5b5061047c6104b9366004613948565b612241565b3480156104ca57600080fd5b506104de6104d9366004613948565b6123ad565b6040516101f49190613e2d565b3480156104f757600080fd5b5061026c610506366004613a13565b612587565b34801561051757600080fd5b5061026c610526366004613a13565b612602565b34801561053757600080fd5b506101e7612610565b34801561054c57600080fd5b506102af61055b366004613e40565b612927565b34801561056c57600080fd5b5061029c61057b366004613948565b612952565b34801561058c57600080fd5b5061029c61059b366004613d36565b612f7e565b6060600060015b6007548111610610576000818152600d60205260409020600b015460ff161580156105eb57506000818152600d60205260409020600301546001600160a01b031633145b156105fe57816105fa81613e89565b9250505b8061060881613e89565b9150506105a7565b508067ffffffffffffffff81111561062a5761062a613a69565b60405190808252806020026020018201604052801561066357816020015b6106506136b8565b8152602001906001900390816106485790505b509150600060015b60075481116108bb576000818152600d60205260409020600b015460ff161580156106af57506000818152600d60205260409020600301546001600160a01b031633145b156108a957600d6000828152602001908152602001600020604051806101a0016040529081600082015481526020016001820180546106ed90613ea2565b80601f016020809104026020016040519081016040528092919081815260200182805461071990613ea2565b80156107665780601f1061073b57610100808354040283529160200191610766565b820191906000526020600020905b81548152906001019060200180831161074957829003601f168201915b5050505050815260200160028201805461077f90613ea2565b80601f01602080910402602001604051908101604052809291908181526020018280546107ab90613ea2565b80156107f85780601f106107cd576101008083540402835291602001916107f8565b820191906000526020600020905b8154815290600101906020018083116107db57829003601f168201915b505050918352505060038201546001600160a01b03166020820152600482015460408201526005820154606082015260068201546080820152600782015460a0820152600882015460c0820152600982015460e0820152600a82015461010080830191909152600b9092015460ff8082161515610120840152929004909116151561014090910152848361088b81613e89565b94508151811061089d5761089d613edc565b60200260200101819052505b806108b381613e89565b91505061066b565b50505090565b6060600f6000838152602001908152602001600020805480602002602001604051908101604052809291908181526020016000905b8282101561096c5760008481526020908190206040805160c08101825260068602909201805483526001808201548486015260028201546001600160a01b03169284019290925260038101546060840152600481015460808401526005015460ff16151560a083015290835290920191016108f6565b505050509050919050565b60606005805461098690613ea2565b80601f01602080910402602001604051908101604052809291908181526020018280546109b290613ea2565b80156109ff5780601f106109d4576101008083540402835291602001916109ff565b820191906000526020600020905b8154815290600101906020018083116109e257829003601f168201915b5050505050905090565b600033610a17818585612ff4565b60019150505b92915050565b6000838152600d60205260409020600581015460069091015411610a875760405162461bcd60e51b8152602060048201526016602482015275139bdd08195b9bdd59da081c1b185e595c9cc81e595d60521b60448201526064015b60405180910390fd5b6000838152600f60205260409020805484919084908110610aaa57610aaa613edc565b90600052602060002090600602016001015414610afc5760405162461bcd60e51b815260206004820152601060248201526f141b185e595c881b9bdd08199bdd5b9960821b6044820152606401610a7e565b6000838152600f60205260409020805483908110610b1c57610b1c613edc565b600091825260209091206005600690920201015460ff1615610b805760405162461bcd60e51b815260206004820152601760248201527f506c6179657220616c7265616479207265636f726465640000000000000000006044820152606401610a7e565b6000838152600f60205260409020805433919084908110610ba357610ba3613edc565b60009182526020909120600260069092020101546001600160a01b031614610bdd5760405162461bcd60e51b8152600401610a7e90613ef2565b6000838152600f60205260409020805482919084908110610c0057610c00613edc565b9060005260206000209060060201600301819055506001600f60008581526020019081526020016000208381548110610c3b57610c3b613edc565b906000526020600020906006020160050160006101000a81548160ff02191690831515021790555033600f60008581526020019081526020016000208381548110610c8857610c88613edc565b906000526020600020906006020160020160006101000a8154816001600160a01b0302191690836001600160a01b03160217905550505050565b60003411610d125760405162461bcd60e51b815260206004820152601f60248201527f5374616b65206d7573742062652067726561746572207468616e207a65726f006044820152606401610a7e565b60018411610d715760405162461bcd60e51b815260206004820152602660248201527f506172746974696370616e7473206d7573742062652067726561746572207468604482015265616e206f6e6560d01b6064820152608401610a7e565b6000865111610dba5760405162461bcd60e51b81526020600482015260156024820152745469746c652063616e6e6f7420626520656d70747960581b6044820152606401610a7e565b6000855111610e0b5760405162461bcd60e51b815260206004820152601b60248201527f4465736372697074696f6e2063616e6e6f7420626520656d70747900000000006044820152606401610a7e565b60008211610e675760405162461bcd60e51b8152602060048201526024808201527f53746172742064617465206d7573742062652067726561746572207468616e206044820152637a65726f60e01b6064820152608401610a7e565b818111610ec75760405162461bcd60e51b815260206004820152602860248201527f456e642064617465206d7573742062652067726561746572207468616e207374604482015267617274206461746560c01b6064820152608401610a7e565b60008311610f175760405162461bcd60e51b815260206004820181905260248201527f4e756d626572204f662077696e6e6572732063616e6e6f74206265207a65726f6044820152606401610a7e565b610f25600780546001019055565b610f2d6136b8565b600754815260208101879052604081018690526080810185905260a08101849052610100810183905261012081018290523460e0820152336060820152610f72613118565b610140820152610f8061372d565b81516000908152600f6020818152604080842054855285518583019081523386830190815287518652938352818520805460018082018355918752848720885160069092020190815591518282015593516002820180546001600160a01b0319166001600160a01b03909216919091179055606086015160038201556080860151600482015560a08601516005909101805460ff191691151591909117905585518452600d825290922084518155918401518492918201906110429082613f6d565b50604082015160028201906110579082613f6d565b5060608201516003820180546001600160a01b0319166001600160a01b039092169190911790556080820151600482015560a0820151600582015560c0820151600682015560e082015160078201556101008083015160088301556101208301516009830155610140830151600a830155610160830151600b90920180546101809094015161ffff1990941692151561ff001916929092179215150291909117905581516000908152600c60205260409020805460ff19166001179055815161111f90613137565b6111655760405162461bcd60e51b81526020600482015260176024820152762330b4b632b2103a379031b932b0ba3290383630bcb2b960491b6044820152606401610a7e565b5050505050505050565b6000818152600c602052604090205460ff1661119d5760405162461bcd60e51b8152600401610a7e9061402d565b6000818152600d60205260409020600481015460069091015411156111f65760405162461bcd60e51b815260206004820152600f60248201526e4f7574206f6620636170616369747960881b6044820152606401610a7e565b60008181526010602090815260408083206001600160a01b038616845290915290205460ff16156112695760405162461bcd60e51b815260206004820152601e60248201527f506c6179657220697320616c726561647920696e20746869732067616d6500006044820152606401610a7e565b611277600980546001019055565b61127f61376e565b600954815260408082018390526000838152600d6020522060010180546112a590613ea2565b80601f01602080910402602001604051908101604052809291908181526020018280546112d190613ea2565b801561131e5780601f106112f35761010080835404028352916020019161131e565b820191906000526020600020905b81548152906001019060200180831161130157829003601f168201915b505050505060208201526001600160a01b0383166060820152336080820152611345613118565b6101008201526000828152600d6020908152604080832060079081015460e0860152858452601183528184206001600160a01b03881685528352818420805460ff1916600190811790915586855260128452918420805480840182559085529383902085519490910201928355908301518392918201906113c69082613f6d565b506040820151600282015560608201516003820180546001600160a01b0319166001600160a01b03928316179055608083015160048301805460a086015160c0870151939094166001600160a81b031990911617600160a01b931515939093029290921760ff60a81b1916600160a81b9115159190910217905560e0820151600582015561010090910151600690910155505050565b60003361146a858285613239565b6114758585856132b3565b506001949350505050565b6000818152600c602052604090205460ff166114ae5760405162461bcd60e51b8152600401610a7e9061402d565b6000818152600d60205260409020600301546001600160a01b031633146114e75760405162461bcd60e51b8152600401610a7e90613ef2565b6000818152600d60205260409020600601546001146115485760405162461bcd60e51b815260206004820152601c60248201527f5061727469636970616e747320616c726561647920696e2067616d65000000006044820152606401610a7e565b6000818152600e6020526040902080548061156557611565614055565b600082815260208082206003600019909401938402018281556001810183905560020180546001600160a01b03191690559190925582825260108152604080832033808552908352818420805460ff19169055848452600d909252909120600701546115d1919061345e565b6000818152600d602052604081206006018054916115ee8361406b565b90915550506000908152600d60205260409020600b01805460ff19166001179055565b805160609060005b611624600183614082565b81101561187e5760005b600161163a8385614082565b6116449190614082565b81101561186b5784818151811061165d5761165d613edc565b602002602001015160a00151801561169957508461167c826001614095565b8151811061168c5761168c613edc565b602002602001015160a001515b1561177a57846116aa826001614095565b815181106116ba576116ba613edc565b6020026020010151606001518582815181106116d8576116d8613edc565b60200260200101516060015111156117755760008582815181106116fe576116fe613edc565b60200260200101519050858260016117169190614095565b8151811061172657611726613edc565b602002602001015186838151811061174057611740613edc565b60209081029190910101528086611758846001614095565b8151811061176857611768613edc565b6020026020010181905250505b611859565b84818151811061178c5761178c613edc565b602002602001015160a001511580156117c95750846117ac826001614095565b815181106117bc576117bc613edc565b602002602001015160a001515b156118595760008582815181106117e2576117e2613edc565b60200260200101519050858260016117fa9190614095565b8151811061180a5761180a613edc565b602002602001015186838151811061182457611824613edc565b6020908102919091010152808661183c846001614095565b8151811061184c5761184c613edc565b6020026020010181905250505b8061186381613e89565b91505061162e565b508061187681613e89565b915050611619565b509192915050565b600033610a178185856118998383612927565b6118a39190614095565b612ff4565b6000828152600c602052604090205460ff166118d65760405162461bcd60e51b8152600401610a7e9061402d565b60008281526012602052604090208054339190839081106118f9576118f9613edc565b60009182526020909120600360079092020101546001600160a01b0316146119335760405162461bcd60e51b8152600401610a7e90613ef2565b60008281526012602052604090208054600191908390811061195757611957613edc565b906000526020600020906007020160040160146101000a81548160ff0219169083151502179055505050565b61198b6134c3565b611995600061351d565b565b6000828152600c602052604090205460ff166119c55760405162461bcd60e51b8152600401610a7e9061402d565b6000828152600d6020526040902060070154341015611a1a5760405162461bcd60e51b8152602060048201526011602482015270496e737566666369656e742066756e647360781b6044820152606401610a7e565b6000828152601260205260409020805433919083908110611a3d57611a3d613edc565b60009182526020909120600360079092020101546001600160a01b031614611a775760405162461bcd60e51b8152600401610a7e90613ef2565b611a8082613137565b611ac65760405162461bcd60e51b81526020600482015260176024820152762330b4b632b2103a379031b932b0ba3290383630bcb2b960491b6044820152606401610a7e565b600082815260126020526040902080546001919083908110611aea57611aea613edc565b906000526020600020906007020160040160146101000a81548160ff0219169083151502179055506001601260008481526020019081526020016000208281548110611b3857611b38613edc565b906000526020600020906007020160040160156101000a81548160ff021916908315150217905550611b6861372d565b6000838152600f6020818152604080842080548087528684019889523392870192835293835260018085018255908552919093208451600690930201918255945194810194909455516002840180546001600160a01b0319166001600160a01b03909216919091179055606081015160038401556080810151600484015560a001516005909201805460ff19169215159290921790915550565b611c0a6134c3565b600081118015611c1b575060648111155b611c7d5760405162461bcd60e51b815260206004820152602d60248201527f4665652070657263656e74206d75737420626520696e207468652072616e676560448201526c206f66202831202d203130302960981b6064820152608401610a7e565b600b55565b6060600060015b6007548111611cef576000818152600d60205260409020600b015460ff16158015611cca57506000818152600d60205260409020600b0154610100900460ff165b15611cdd5781611cd981613e89565b9250505b80611ce781613e89565b915050611c89565b508067ffffffffffffffff811115611d0957611d09613a69565b604051908082528060200260200182016040528015611d4257816020015b611d2f6136b8565b815260200190600190039081611d275790505b509150600060015b60075481116108bb576000818152600d60205260409020600b015460ff16158015611d8b57506000818152600d60205260409020600b0154610100900460ff165b15611f8557600d6000828152602001908152602001600020604051806101a001604052908160008201548152602001600182018054611dc990613ea2565b80601f0160208091040260200160405190810160405280929190818152602001828054611df590613ea2565b8015611e425780601f10611e1757610100808354040283529160200191611e42565b820191906000526020600020905b815481529060010190602001808311611e2557829003601f168201915b50505050508152602001600282018054611e5b90613ea2565b80601f0160208091040260200160405190810160405280929190818152602001828054611e8790613ea2565b8015611ed45780601f10611ea957610100808354040283529160200191611ed4565b820191906000526020600020905b815481529060010190602001808311611eb757829003601f168201915b505050918352505060038201546001600160a01b03166020820152600482015460408201526005820154606082015260068201546080820152600782015460a0820152600882015460c0820152600982015460e0820152600a82015461010080830191909152600b9092015460ff80821615156101208401529290049091161515610140909101528483611f6781613e89565b945081518110611f7957611f79613edc565b60200260200101819052505b80611f8f81613e89565b915050611d4a565b6060600060015b6007548111611fe957600081815260116020908152604080832033845290915290205460ff1615611fd75781611fd381613e89565b9250505b80611fe181613e89565b915050611f9e565b508067ffffffffffffffff81111561200357612003613a69565b60405190808252806020026020018201604052801561203c57816020015b61202961376e565b8152602001906001900390816120215790505b509150600060015b60075481116108bb57600081815260116020908152604080832033845290915290205460ff16156122205760005b6000828152601260205260409020548110156122115760008281526012602052604090208054829081106120a8576120a8613edc565b906000526020600020906007020160405180610120016040529081600082015481526020016001820180546120dc90613ea2565b80601f016020809104026020016040519081016040528092919081815260200182805461210890613ea2565b80156121555780601f1061212a57610100808354040283529160200191612155565b820191906000526020600020905b81548152906001019060200180831161213857829003601f168201915b50505091835250506002820154602082015260038201546001600160a01b0390811660408301526004830154908116606083015260ff600160a01b8204811615156080840152600160a81b90910416151560a0820152600582015460c082015260069091015460e09091015285518690859081106121d5576121d5613edc565b6020026020010181905250808584815181106121f3576121f3613edc565b6020908102919091010151528061220981613e89565b915050612072565b508161221c81613e89565b9250505b8061222a81613e89565b915050612044565b60606006805461098690613ea2565b606060126000838152602001908152602001600020805480602002602001604051908101604052809291908181526020016000905b8282101561096c578382906000526020600020906007020160405180610120016040529081600082015481526020016001820180546122b490613ea2565b80601f01602080910402602001604051908101604052809291908181526020018280546122e090613ea2565b801561232d5780601f106123025761010080835404028352916020019161232d565b820191906000526020600020905b81548152906001019060200180831161231057829003601f168201915b5050509183525050600282015460208083019190915260038301546001600160a01b0390811660408401526004840154908116606084015260ff600160a01b8204811615156080850152600160a81b90910416151560a0830152600583015460c083015260069092015460e0909101529082526001929092019101612276565b6123b56136b8565b600d6000838152602001908152602001600020604051806101a0016040529081600082015481526020016001820180546123ee90613ea2565b80601f016020809104026020016040519081016040528092919081815260200182805461241a90613ea2565b80156124675780601f1061243c57610100808354040283529160200191612467565b820191906000526020600020905b81548152906001019060200180831161244a57829003601f168201915b5050505050815260200160028201805461248090613ea2565b80601f01602080910402602001604051908101604052809291908181526020018280546124ac90613ea2565b80156124f95780601f106124ce576101008083540402835291602001916124f9565b820191906000526020600020905b8154815290600101906020018083116124dc57829003601f168201915b505050918352505060038201546001600160a01b03166020820152600482015460408201526005820154606082015260068201546080820152600782015460a0820152600882015460c0820152600982015460e0820152600a82015461010080830191909152600b9092015460ff808216151561012084015292900490911615156101409091015292915050565b600033816125958286612927565b9050838110156125f55760405162461bcd60e51b815260206004820152602560248201527f45524332303a2064656372656173656420616c6c6f77616e63652062656c6f77604482015264207a65726f60d81b6064820152608401610a7e565b6114758286868403612ff4565b600033610a178185856132b3565b6060600060015b600754811161267e576000818152600d60205260409020600b015460ff1615801561265957506000818152600d60205260409020600b0154610100900460ff16155b1561266c578161266881613e89565b9250505b8061267681613e89565b915050612617565b508067ffffffffffffffff81111561269857612698613a69565b6040519080825280602002602001820160405280156126d157816020015b6126be6136b8565b8152602001906001900390816126b65790505b509150600060015b60075481116108bb576000818152600d60205260409020600b015460ff1615801561271b57506000818152600d60205260409020600b0154610100900460ff16155b1561291557600d6000828152602001908152602001600020604051806101a00160405290816000820154815260200160018201805461275990613ea2565b80601f016020809104026020016040519081016040528092919081815260200182805461278590613ea2565b80156127d25780601f106127a7576101008083540402835291602001916127d2565b820191906000526020600020905b8154815290600101906020018083116127b557829003601f168201915b505050505081526020016002820180546127eb90613ea2565b80601f016020809104026020016040519081016040528092919081815260200182805461281790613ea2565b80156128645780601f1061283957610100808354040283529160200191612864565b820191906000526020600020905b81548152906001019060200180831161284757829003601f168201915b505050918352505060038201546001600160a01b03166020820152600482015460408201526005820154606082015260068201546080820152600782015460a0820152600882015460c0820152600982015460e0820152600a82015461010080830191909152600b9092015460ff808216151561012084015292900490911615156101409091015284836128f781613e89565b94508151811061290957612909613edc565b60200260200101819052505b8061291f81613e89565b9150506126d9565b6001600160a01b03918216600090815260036020908152604080832093909416825291909152205490565b61295a61356d565b6000818152600c602052604090205460ff166129ae5760405162461bcd60e51b815260206004820152601360248201527211d85b5948191bd95cc81b9bdd08195e1a5cdd606a1b6044820152606401610a7e565b6000818152600d60205260409020600901546129c8613118565b11612a0d5760405162461bcd60e51b815260206004820152601560248201527423b0b6b29039ba34b6361034b71039b2b9b9b4b7b760591b6044820152606401610a7e565b6000818152600d60205260409020600b0154610100900460ff1615612a6c5760405162461bcd60e51b815260206004820152601560248201527411d85b5948185b1c9958591e481c185a59081bdd5d605a1b6044820152606401610a7e565b6000600d6000838152602001908152602001600020604051806101a001604052908160008201548152602001600182018054612aa790613ea2565b80601f0160208091040260200160405190810160405280929190818152602001828054612ad390613ea2565b8015612b205780601f10612af557610100808354040283529160200191612b20565b820191906000526020600020905b815481529060010190602001808311612b0357829003601f168201915b50505050508152602001600282018054612b3990613ea2565b80601f0160208091040260200160405190810160405280929190818152602001828054612b6590613ea2565b8015612bb25780601f10612b8757610100808354040283529160200191612bb2565b820191906000526020600020905b815481529060010190602001808311612b9557829003601f168201915b505050918352505060038201546001600160a01b03166020820152600482015460408201526005820154606082015260068201546080820152600782015460a0820152600882015460c080830191909152600983015460e080840191909152600a84015461010080850191909152600b9094015460ff808216151561012086015294900490931615156101409092019190915282015190820151919250600091612c5b916135c6565b90506000612c7f6064612c79600b54856135c690919063ffffffff16565b906135d9565b90506000612c98612c918360026135d9565b83906135e5565b90506000612cb082612caa86866135e5565b906135e5565b9050612ccd612cc76000546001600160a01b031690565b8461345e565b612cdb85606001518361345e565b6000868152600f602052604081205467ffffffffffffffff811115612d0257612d02613a69565b604051908082528060200260200182016040528015612d3b57816020015b612d2861372d565b815260200190600190039081612d205790505b506000888152600f602090815260408083208054825181850281018501909352808352949550612deb949193909284015b82821015612de25760008481526020908190206040805160c08101825260068602909201805483526001808201548486015260028201546001600160a01b03169284019290925260038101546060840152600481015460808401526005015460ff16151560a08301529083529092019101612d6c565b50505050611611565b905060005b8660a00151811015612f4c576000612e158860a00151856135d990919063ffffffff16565b9050612e3e838381518110612e2c57612e2c613edc565b6020026020010151604001518261345e565b612e65838381518110612e5357612e53613edc565b602002602001015160400151826135f1565b60005b60008a8152600f6020526040902054811015612f375760008a8152600f60205260409020805482908110612e9e57612e9e613edc565b600091825260209091206002600690920201015484516001600160a01b0390911690859085908110612ed257612ed2613edc565b6020026020010151604001516001600160a01b031603612f255760008a8152600f60205260409020805483919083908110612f0f57612f0f613edc565b9060005260206000209060060201600401819055505b80612f2f81613e89565b915050612e68565b50508080612f4490613e89565b915050612df0565b5050506000858152600d60205260409020600b01805461ff00191661010017905550612f7b92506136b2915050565b50565b612f866134c3565b6001600160a01b038116612feb5760405162461bcd60e51b815260206004820152602660248201527f4f776e61626c653a206e6577206f776e657220697320746865207a65726f206160448201526564647265737360d01b6064820152608401610a7e565b612f7b8161351d565b6001600160a01b0383166130565760405162461bcd60e51b8152602060048201526024808201527f45524332303a20617070726f76652066726f6d20746865207a65726f206164646044820152637265737360e01b6064820152608401610a7e565b6001600160a01b0382166130b75760405162461bcd60e51b815260206004820152602260248201527f45524332303a20617070726f766520746f20746865207a65726f206164647265604482015261737360f01b6064820152608401610a7e565b6001600160a01b0383811660008181526003602090815260408083209487168084529482529182902085905590518481527f8c5be1e5ebec7d5bd14f71427d1e84f3dd0314c0f7b2291e5b200ac8c7c3b925910160405180910390a3505050565b6000613126426103e86140a8565b613132906103e8614095565b905090565b6000613147600880546001019055565b6131746040518060600160405280600081526020016000815260200160006001600160a01b031681525090565b600854815260208082018481523360408085018281526000888152600e8652828120805460018082018355918352878320895160039092020190815586518183018190559351600290910180546001600160a01b0319166001600160a01b0390921691909117905591815260108652828120938152928552818320805460ff1916909117905591518152600d909252812060060180549161321483613e89565b919050555034600a600082825461322b9190614095565b909155506001949350505050565b60006132458484612927565b905060001981146132ad57818110156132a05760405162461bcd60e51b815260206004820152601d60248201527f45524332303a20696e73756666696369656e7420616c6c6f77616e63650000006044820152606401610a7e565b6132ad8484848403612ff4565b50505050565b6001600160a01b0383166133175760405162461bcd60e51b815260206004820152602560248201527f45524332303a207472616e736665722066726f6d20746865207a65726f206164604482015264647265737360d81b6064820152608401610a7e565b6001600160a01b0382166133795760405162461bcd60e51b815260206004820152602360248201527f45524332303a207472616e7366657220746f20746865207a65726f206164647260448201526265737360e81b6064820152608401610a7e565b6001600160a01b038316600090815260026020526040902054818110156133f15760405162461bcd60e51b815260206004820152602660248201527f45524332303a207472616e7366657220616d6f756e7420657863656564732062604482015265616c616e636560d01b6064820152608401610a7e565b6001600160a01b0380851660008181526002602052604080822086860390559286168082529083902080548601905591517fddf252ad1be2c89b69c2b068fc378daa952ba7f163c4a11628f55a4df523b3ef906134519086815260200190565b60405180910390a36132ad565b6000826001600160a01b03168260405160006040518083038185875af1925050503d80600081146134ab576040519150601f19603f3d011682016040523d82523d6000602084013e6134b0565b606091505b50509050806134be57600080fd5b505050565b6000546001600160a01b031633146119955760405162461bcd60e51b815260206004820181905260248201527f4f776e61626c653a2063616c6c6572206973206e6f7420746865206f776e65726044820152606401610a7e565b600080546001600160a01b038381166001600160a01b0319831681178455604051919092169283917f8be0079c531659141344cd1fd0a4f28419497f9722a3daafe3b4186f6b6457e09190a35050565b6002600154036135bf5760405162461bcd60e51b815260206004820152601f60248201527f5265656e7472616e637947756172643a207265656e7472616e742063616c6c006044820152606401610a7e565b6002600155565b60006135d282846140a8565b9392505050565b60006135d282846140bf565b60006135d28284614082565b6001600160a01b0382166136475760405162461bcd60e51b815260206004820152601f60248201527f45524332303a206d696e7420746f20746865207a65726f2061646472657373006044820152606401610a7e565b80600460008282546136599190614095565b90915550506001600160a01b0382166000818152600260209081526040808320805486019055518481527fddf252ad1be2c89b69c2b068fc378daa952ba7f163c4a11628f55a4df523b3ef910160405180910390a35050565b60018055565b604051806101a0016040528060008152602001606081526020016060815260200160006001600160a01b03168152602001600081526020016000815260200160008152602001600081526020016000815260200160008152602001600081526020016000151581526020016000151581525090565b6040518060c00160405280600081526020016000815260200160006001600160a01b0316815260200160008152602001600081526020016000151581525090565b60405180610120016040528060008152602001606081526020016000815260200160006001600160a01b0316815260200160006001600160a01b0316815260200160001515815260200160001515815260200160008152602001600081525090565b6000815180845260005b818110156137f6576020818501810151868301820152016137da565b506000602082860101526020601f19601f83011685010191505092915050565b60006101a0825184526020830151816020860152613836828601826137d0565b9150506040830151848203604086015261385082826137d0565b915050606083015161386d60608601826001600160a01b03169052565b506080830151608085015260a083015160a085015260c083015160c085015260e083015160e0850152610100808401518186015250610120808401518186015250610140808401518186015250610160808401516138ce8287018215159052565b50506101809283015115159390920192909252919050565b6000602080830181845280855180835260408601915060408160051b870101925083870160005b8281101561393b57603f19888603018452613929858351613816565b9450928501929085019060010161390d565b5092979650505050505050565b60006020828403121561395a57600080fd5b5035919050565b602080825282518282018190526000919060409081850190868401855b828110156139d7578151805185528681015187860152858101516001600160a01b031686860152606080820151908601526080808201519086015260a09081015115159085015260c0909301929085019060010161397e565b5091979650505050505050565b6020815260006135d260208301846137d0565b80356001600160a01b0381168114613a0e57600080fd5b919050565b60008060408385031215613a2657600080fd5b613a2f836139f7565b946020939093013593505050565b600080600060608486031215613a5257600080fd5b505081359360208301359350604090920135919050565b634e487b7160e01b600052604160045260246000fd5b60405160c0810167ffffffffffffffff81118282101715613aa257613aa2613a69565b60405290565b604051601f8201601f1916810167ffffffffffffffff81118282101715613ad157613ad1613a69565b604052919050565b600082601f830112613aea57600080fd5b813567ffffffffffffffff811115613b0457613b04613a69565b613b17601f8201601f1916602001613aa8565b818152846020838601011115613b2c57600080fd5b816020850160208301376000918101602001919091529392505050565b60008060008060008060c08789031215613b6257600080fd5b863567ffffffffffffffff80821115613b7a57600080fd5b613b868a838b01613ad9565b97506020890135915080821115613b9c57600080fd5b50613ba989828a01613ad9565b96999698505050506040850135946060810135946080820135945060a09091013592509050565b600080600060608486031215613be557600080fd5b613bee846139f7565b9250613bfc602085016139f7565b9150604084013590509250925092565b60006020808385031215613c1f57600080fd5b823567ffffffffffffffff80821115613c3757600080fd5b818501915085601f830112613c4b57600080fd5b813581811115613c5d57613c5d613a69565b613c6b848260051b01613aa8565b818152848101925060c0918202840185019188831115613c8a57600080fd5b938501935b82851015613d085780858a031215613ca75760008081fd5b613caf613a7f565b8535815286860135878201526040613cc88188016139f7565b90820152606086810135908201526080808701359082015260a0808701358015158114613cf55760008081fd5b9082015284529384019392850192613c8f565b50979650505050505050565b60008060408385031215613d2757600080fd5b50508035926020909101359150565b600060208284031215613d4857600080fd5b6135d2826139f7565b60006020808301818452808551808352604092508286019150828160051b87010184880160005b83811015613e1f57603f1989840301855281516101208151855288820151818a870152613da7828701826137d0565b9150508782015188860152606080830151613dcc828801826001600160a01b03169052565b50506080828101516001600160a01b03169086015260a08083015115159086015260c08083015115159086015260e080830151908601526101009182015191909401529386019390860190600101613d78565b509098975050505050505050565b6020815260006135d26020830184613816565b60008060408385031215613e5357600080fd5b613e5c836139f7565b9150613e6a602084016139f7565b90509250929050565b634e487b7160e01b600052601160045260246000fd5b600060018201613e9b57613e9b613e73565b5060010190565b600181811c90821680613eb657607f821691505b602082108103613ed657634e487b7160e01b600052602260045260246000fd5b50919050565b634e487b7160e01b600052603260045260246000fd5b602080825260139082015272556e617574686f72697a656420656e7469747960681b604082015260600190565b601f8211156134be57600081815260208120601f850160051c81016020861015613f465750805b601f850160051c820191505b81811015613f6557828155600101613f52565b505050505050565b815167ffffffffffffffff811115613f8757613f87613a69565b613f9b81613f958454613ea2565b84613f1f565b602080601f831160018114613fd05760008415613fb85750858301515b600019600386901b1c1916600185901b178555613f65565b600085815260208120601f198616915b82811015613fff57888601518255948401946001909101908401613fe0565b508582101561401d5787850151600019600388901b60f8161c191681555b5050505050600190811b01905550565b6020808252600e908201526d11d85b59481b9bdd08199bdd5b9960921b604082015260600190565b634e487b7160e01b600052603160045260246000fd5b60008161407a5761407a613e73565b506000190190565b81810381811115610a1d57610a1d613e73565b80820180821115610a1d57610a1d613e73565b8082028115828204841417610a1d57610a1d613e73565b6000826140dc57634e487b7160e01b600052601260045260246000fd5b50049056fea2646970667358221220b12d5067a3a351f63a225f4dac9a10c65d49c189942e9b64b7e7849b2ea935b064736f6c63430008110033",
  "linkReferences": {},
  "deployedLinkReferences": {}
}