{
  "_format": "hh-sol-artifact-1",
  "contractName": "PlayToEarnX",
  "sourceName": "contracts/Play2EarnX.sol",
  "abi": [
    {
      "inputs": [
        {
          "internalType": "uint256",
          "name": "_pct",
          "type": "uint256"
        }
      ],
      "stateMutability": "nonpayable",
      "type": "constructor"
    },
    {
      "anonymous": false,
      "inputs": [
        {
          "indexed": true,
          "internalType": "address",
          "name": "previousOwner",
          "type": "address"
        },
        {
          "indexed": true,
          "internalType": "address",
          "name": "newOwner",
          "type": "address"
        }
      ],
      "name": "OwnershipTransferred",
      "type": "event"
    },
    {
      "inputs": [
        {
          "internalType": "uint256",
          "name": "gameId",
          "type": "uint256"
        },
        {
          "internalType": "uint256",
          "name": "index",
          "type": "uint256"
        }
      ],
      "name": "acceptInvitation",
      "outputs": [],
      "stateMutability": "payable",
      "type": "function"
    },
    {
      "inputs": [
        {
          "internalType": "string",
          "name": "title",
          "type": "string"
        },
        {
          "internalType": "string",
          "name": "description",
          "type": "string"
        },
        {
          "internalType": "uint256",
          "name": "participants",
          "type": "uint256"
        },
        {
          "internalType": "uint256",
          "name": "numberOfWinners",
          "type": "uint256"
        },
        {
          "internalType": "uint256",
          "name": "startDate",
          "type": "uint256"
        },
        {
          "internalType": "uint256",
          "name": "endDate",
          "type": "uint256"
        }
      ],
      "name": "createGame",
      "outputs": [],
      "stateMutability": "payable",
      "type": "function"
    },
    {
      "inputs": [
        {
          "internalType": "uint256",
          "name": "gameId",
          "type": "uint256"
        }
      ],
      "name": "deleteGame",
      "outputs": [],
      "stateMutability": "nonpayable",
      "type": "function"
    },
    {
      "inputs": [
        {
          "internalType": "uint256",
          "name": "id",
          "type": "uint256"
        }
      ],
      "name": "getGame",
      "outputs": [
        {
          "components": [
            {
              "internalType": "uint256",
              "name": "id",
              "type": "uint256"
            },
            {
              "internalType": "string",
              "name": "title",
              "type": "string"
            },
            {
              "internalType": "string",
              "name": "description",
              "type": "string"
            },
            {
              "internalType": "address",
              "name": "owner",
              "type": "address"
            },
            {
              "internalType": "uint256",
              "name": "participants",
              "type": "uint256"
            },
            {
              "internalType": "uint256",
              "name": "numberOfWinners",
              "type": "uint256"
            },
            {
              "internalType": "uint256",
              "name": "plays",
              "type": "uint256"
            },
            {
              "internalType": "uint256",
              "name": "acceptees",
              "type": "uint256"
            },
            {
              "internalType": "uint256",
              "name": "stake",
              "type": "uint256"
            },
            {
              "internalType": "uint256",
              "name": "startDate",
              "type": "uint256"
            },
            {
              "internalType": "uint256",
              "name": "endDate",
              "type": "uint256"
            },
            {
              "internalType": "uint256",
              "name": "timestamp",
              "type": "uint256"
            },
            {
              "internalType": "bool",
              "name": "deleted",
              "type": "bool"
            },
            {
              "internalType": "bool",
              "name": "paidOut",
              "type": "bool"
            }
          ],
          "internalType": "struct PlayToEarnX.GameStruct",
          "name": "",
          "type": "tuple"
        }
      ],
      "stateMutability": "view",
      "type": "function"
    },
    {
      "inputs": [],
      "name": "getGames",
      "outputs": [
        {
          "components": [
            {
              "internalType": "uint256",
              "name": "id",
              "type": "uint256"
            },
            {
              "internalType": "string",
              "name": "title",
              "type": "string"
            },
            {
              "internalType": "string",
              "name": "description",
              "type": "string"
            },
            {
              "internalType": "address",
              "name": "owner",
              "type": "address"
            },
            {
              "internalType": "uint256",
              "name": "participants",
              "type": "uint256"
            },
            {
              "internalType": "uint256",
              "name": "numberOfWinners",
              "type": "uint256"
            },
            {
              "internalType": "uint256",
              "name": "plays",
              "type": "uint256"
            },
            {
              "internalType": "uint256",
              "name": "acceptees",
              "type": "uint256"
            },
            {
              "internalType": "uint256",
              "name": "stake",
              "type": "uint256"
            },
            {
              "internalType": "uint256",
              "name": "startDate",
              "type": "uint256"
            },
            {
              "internalType": "uint256",
              "name": "endDate",
              "type": "uint256"
            },
            {
              "internalType": "uint256",
              "name": "timestamp",
              "type": "uint256"
            },
            {
              "internalType": "bool",
              "name": "deleted",
              "type": "bool"
            },
            {
              "internalType": "bool",
              "name": "paidOut",
              "type": "bool"
            }
          ],
          "internalType": "struct PlayToEarnX.GameStruct[]",
          "name": "Games",
          "type": "tuple[]"
        }
      ],
      "stateMutability": "view",
      "type": "function"
    },
    {
      "inputs": [
        {
          "internalType": "uint256",
          "name": "gameId",
          "type": "uint256"
        }
      ],
      "name": "getInvitations",
      "outputs": [
        {
          "components": [
            {
              "internalType": "uint256",
              "name": "gameId",
              "type": "uint256"
            },
            {
              "internalType": "address",
              "name": "account",
              "type": "address"
            },
            {
              "internalType": "bool",
              "name": "responded",
              "type": "bool"
            },
            {
              "internalType": "bool",
              "name": "accepted",
              "type": "bool"
            },
            {
              "internalType": "uint256",
              "name": "stake",
              "type": "uint256"
            }
          ],
          "internalType": "struct PlayToEarnX.InvitationStruct[]",
          "name": "",
          "type": "tuple[]"
        }
      ],
      "stateMutability": "view",
      "type": "function"
    },
    {
      "inputs": [],
      "name": "getMyGames",
      "outputs": [
        {
          "components": [
            {
              "internalType": "uint256",
              "name": "id",
              "type": "uint256"
            },
            {
              "internalType": "string",
              "name": "title",
              "type": "string"
            },
            {
              "internalType": "string",
              "name": "description",
              "type": "string"
            },
            {
              "internalType": "address",
              "name": "owner",
              "type": "address"
            },
            {
              "internalType": "uint256",
              "name": "participants",
              "type": "uint256"
            },
            {
              "internalType": "uint256",
              "name": "numberOfWinners",
              "type": "uint256"
            },
            {
              "internalType": "uint256",
              "name": "plays",
              "type": "uint256"
            },
            {
              "internalType": "uint256",
              "name": "acceptees",
              "type": "uint256"
            },
            {
              "internalType": "uint256",
              "name": "stake",
              "type": "uint256"
            },
            {
              "internalType": "uint256",
              "name": "startDate",
              "type": "uint256"
            },
            {
              "internalType": "uint256",
              "name": "endDate",
              "type": "uint256"
            },
            {
              "internalType": "uint256",
              "name": "timestamp",
              "type": "uint256"
            },
            {
              "internalType": "bool",
              "name": "deleted",
              "type": "bool"
            },
            {
              "internalType": "bool",
              "name": "paidOut",
              "type": "bool"
            }
          ],
          "internalType": "struct PlayToEarnX.GameStruct[]",
          "name": "Games",
          "type": "tuple[]"
        }
      ],
      "stateMutability": "view",
      "type": "function"
    },
    {
      "inputs": [],
      "name": "getPaidOutGames",
      "outputs": [
        {
          "components": [
            {
              "internalType": "uint256",
              "name": "id",
              "type": "uint256"
            },
            {
              "internalType": "string",
              "name": "title",
              "type": "string"
            },
            {
              "internalType": "string",
              "name": "description",
              "type": "string"
            },
            {
              "internalType": "address",
              "name": "owner",
              "type": "address"
            },
            {
              "internalType": "uint256",
              "name": "participants",
              "type": "uint256"
            },
            {
              "internalType": "uint256",
              "name": "numberOfWinners",
              "type": "uint256"
            },
            {
              "internalType": "uint256",
              "name": "plays",
              "type": "uint256"
            },
            {
              "internalType": "uint256",
              "name": "acceptees",
              "type": "uint256"
            },
            {
              "internalType": "uint256",
              "name": "stake",
              "type": "uint256"
            },
            {
              "internalType": "uint256",
              "name": "startDate",
              "type": "uint256"
            },
            {
              "internalType": "uint256",
              "name": "endDate",
              "type": "uint256"
            },
            {
              "internalType": "uint256",
              "name": "timestamp",
              "type": "uint256"
            },
            {
              "internalType": "bool",
              "name": "deleted",
              "type": "bool"
            },
            {
              "internalType": "bool",
              "name": "paidOut",
              "type": "bool"
            }
          ],
          "internalType": "struct PlayToEarnX.GameStruct[]",
          "name": "Games",
          "type": "tuple[]"
        }
      ],
      "stateMutability": "view",
      "type": "function"
    },
    {
      "inputs": [
        {
          "internalType": "uint256",
          "name": "gameId",
          "type": "uint256"
        }
      ],
      "name": "getScores",
      "outputs": [
        {
          "components": [
            {
              "internalType": "uint256",
              "name": "gameId",
              "type": "uint256"
            },
            {
              "internalType": "address",
              "name": "player",
              "type": "address"
            },
            {
              "internalType": "uint256",
              "name": "score",
              "type": "uint256"
            },
            {
              "internalType": "uint256",
              "name": "prize",
              "type": "uint256"
            },
            {
              "internalType": "bool",
              "name": "played",
              "type": "bool"
            }
          ],
          "internalType": "struct PlayToEarnX.ScoreStruct[]",
          "name": "",
          "type": "tuple[]"
        }
      ],
      "stateMutability": "view",
      "type": "function"
    },
    {
      "inputs": [
        {
          "internalType": "address",
          "name": "account",
          "type": "address"
        },
        {
          "internalType": "uint256",
          "name": "gameId",
          "type": "uint256"
        }
      ],
      "name": "invitePlayer",
      "outputs": [],
      "stateMutability": "nonpayable",
      "type": "function"
    },
    {
      "inputs": [],
      "name": "owner",
      "outputs": [
        {
          "internalType": "address",
          "name": "",
          "type": "address"
        }
      ],
      "stateMutability": "view",
      "type": "function"
    },
    {
      "inputs": [
        {
          "internalType": "uint256",
          "name": "gameId",
          "type": "uint256"
        }
      ],
      "name": "payout",
      "outputs": [],
      "stateMutability": "nonpayable",
      "type": "function"
    },
    {
      "inputs": [
        {
          "internalType": "uint256",
          "name": "gameId",
          "type": "uint256"
        },
        {
          "internalType": "uint256",
          "name": "index",
          "type": "uint256"
        }
      ],
      "name": "rejectInvitation",
      "outputs": [],
      "stateMutability": "nonpayable",
      "type": "function"
    },
    {
      "inputs": [],
      "name": "renounceOwnership",
      "outputs": [],
      "stateMutability": "nonpayable",
      "type": "function"
    },
    {
      "inputs": [
        {
          "internalType": "uint256",
          "name": "gameId",
          "type": "uint256"
        },
        {
          "internalType": "uint256",
          "name": "index",
          "type": "uint256"
        },
        {
          "internalType": "uint256",
          "name": "score",
          "type": "uint256"
        }
      ],
      "name": "saveScore",
      "outputs": [],
      "stateMutability": "nonpayable",
      "type": "function"
    },
    {
      "inputs": [
        {
          "internalType": "uint256",
          "name": "_pct",
          "type": "uint256"
        }
      ],
      "name": "setFeePercent",
      "outputs": [],
      "stateMutability": "nonpayable",
      "type": "function"
    },
    {
      "inputs": [
        {
          "components": [
            {
              "internalType": "uint256",
              "name": "gameId",
              "type": "uint256"
            },
            {
              "internalType": "address",
              "name": "player",
              "type": "address"
            },
            {
              "internalType": "uint256",
              "name": "score",
              "type": "uint256"
            },
            {
              "internalType": "uint256",
              "name": "prize",
              "type": "uint256"
            },
            {
              "internalType": "bool",
              "name": "played",
              "type": "bool"
            }
          ],
          "internalType": "struct PlayToEarnX.ScoreStruct[]",
          "name": "scoreSheet",
          "type": "tuple[]"
        }
      ],
      "name": "sortScores",
      "outputs": [
        {
          "components": [
            {
              "internalType": "uint256",
              "name": "gameId",
              "type": "uint256"
            },
            {
              "internalType": "address",
              "name": "player",
              "type": "address"
            },
            {
              "internalType": "uint256",
              "name": "score",
              "type": "uint256"
            },
            {
              "internalType": "uint256",
              "name": "prize",
              "type": "uint256"
            },
            {
              "internalType": "bool",
              "name": "played",
              "type": "bool"
            }
          ],
          "internalType": "struct PlayToEarnX.ScoreStruct[]",
          "name": "",
          "type": "tuple[]"
        }
      ],
      "stateMutability": "pure",
      "type": "function"
    },
    {
      "inputs": [
        {
          "internalType": "address",
          "name": "newOwner",
          "type": "address"
        }
      ],
      "name": "transferOwnership",
      "outputs": [],
      "stateMutability": "nonpayable",
      "type": "function"
    }
  ],
  "bytecode": "0x60806040523480156200001157600080fd5b5060405162002e9f38038062002e9f83398101604081905262000034916200009c565b6200003f336200004c565b60018055600555620000b6565b600080546001600160a01b038381166001600160a01b0319831681178455604051919092169283917f8be0079c531659141344cd1fd0a4f28419497f9722a3daafe3b4186f6b6457e09190a35050565b600060208284031215620000af57600080fd5b5051919050565b612dd980620000c66000396000f3fe6080604052600436106101095760003560e01c80637ce3489b11610095578063a2f77bcc11610064578063a2f77bcc146102ad578063b3c33603146102da578063c04c5947146102fa578063e11523431461030f578063f2fde38b1461032f57600080fd5b80637ce3489b14610223578063872ff923146102435780638da5cb5b14610258578063a09621c71461028057600080fd5b80632246fe0b116100dc5780632246fe0b1461019b578063248a55a1146101bb57806339bd3bbb146101db578063715018a6146101fb5780637a2f21361461021057600080fd5b80630210d7511461010e57806304527d90146101395780630af87c58146101665780631eb4a1e514610188575b600080fd5b34801561011a57600080fd5b5061012361034f565b60405161013091906126d9565b60405180910390f35b34801561014557600080fd5b5061015961015436600461273b565b61067b565b6040516101309190612754565b34801561017257600080fd5b506101866101813660046127cd565b610727565b005b6101866101963660046128d9565b610a23565b3480156101a757600080fd5b506101866101b636600461297c565b610e3d565b3480156101c757600080fd5b506101866101d636600461273b565b610fef565b3480156101e757600080fd5b506101866101f63660046129a6565b611074565b34801561020757600080fd5b5061018661114f565b61018661021e3660046129a6565b611163565b34801561022f57600080fd5b5061018661023e36600461273b565b6113b9565b34801561024f57600080fd5b50610123611439565b34801561026457600080fd5b506000546040516001600160a01b039091168152602001610130565b34801561028c57600080fd5b506102a061029b36600461273b565b611759565b60405161013091906129c8565b3480156102b957600080fd5b506102cd6102c836600461273b565b611805565b6040516101309190612a36565b3480156102e657600080fd5b506101596102f5366004612a49565b6119ea565b34801561030657600080fd5b50610123611c5f565b34801561031b57600080fd5b5061018661032a36600461273b565b611f81565b34801561033b57600080fd5b5061018661034a366004612b47565b61224c565b6060600060015b60025481116103bf576000818152600760205260409020600c015460ff1615801561039a57506000818152600760205260409020600301546001600160a01b031633145b156103ad57816103a981612b78565b9250505b806103b781612b78565b915050610356565b508067ffffffffffffffff8111156103d9576103d96127f9565b60405190808252806020026020018201604052801561041257816020015b6103ff61250f565b8152602001906001900390816103f75790505b509150600060015b6002548111610675576000818152600760205260409020600c015460ff1615801561045e57506000818152600760205260409020600301546001600160a01b031633145b156106635760076000828152602001908152602001600020604051806101c00160405290816000820154815260200160018201805461049c90612b91565b80601f01602080910402602001604051908101604052809291908181526020018280546104c890612b91565b80156105155780601f106104ea57610100808354040283529160200191610515565b820191906000526020600020905b8154815290600101906020018083116104f857829003601f168201915b5050505050815260200160028201805461052e90612b91565b80601f016020809104026020016040519081016040528092919081815260200182805461055a90612b91565b80156105a75780601f1061057c576101008083540402835291602001916105a7565b820191906000526020600020905b81548152906001019060200180831161058a57829003601f168201915b505050918352505060038201546001600160a01b03166020820152600482015460408201526005820154606082015260068201546080820152600782015460a0820152600882015460c0820152600982015460e0820152600a82015461010080830191909152600b830154610120830152600c9092015460ff8082161515610140840152929004909116151561016090910152848361064581612b78565b94508151811061065757610657612bcb565b60200260200101819052505b8061066d81612b78565b91505061041a565b50505090565b606060096000838152602001908152602001600020805480602002602001604051908101604052809291908181526020016000905b8282101561071c5760008481526020908190206040805160a08101825260058602909201805483526001808201546001600160a01b031684860152600282015492840192909252600381015460608401526004015460ff161515608083015290835290920191016106b0565b505050509050919050565b60008381526007602081905260409091209081015460059091015461074d906001612be1565b146107985760405162461bcd60e51b8152602060048201526016602482015275139bdd08195b9bdd59da081c1b185e595c9cc81e595d60521b60448201526064015b60405180910390fd5b60008381526009602052604090208054849190849081106107bb576107bb612bcb565b9060005260206000209060050201600001541461080d5760405162461bcd60e51b815260206004820152601060248201526f141b185e595c881b9bdd08199bdd5b9960821b604482015260640161078f565b600083815260096020526040902080548390811061082d5761082d612bcb565b600091825260209091206004600590920201015460ff16156108915760405162461bcd60e51b815260206004820152601760248201527f506c6179657220616c7265616479207265636f72646564000000000000000000604482015260640161078f565b6000838152600760205260409020600901546108ab6122c5565b101580156108d057506000838152600760205260409020600a01546108ce6122c5565b105b61091c5760405162461bcd60e51b815260206004820152601c60248201527f47616d6520706c6179206d75737420626520696e2073657373696f6e00000000604482015260640161078f565b600083815260076020526040812060060180549161093983612b78565b9091555050600083815260096020526040902080548291908490811061096157610961612bcb565b906000526020600020906005020160020181905550600160096000858152602001908152602001600020838154811061099c5761099c612bcb565b906000526020600020906005020160040160006101000a81548160ff021916908315150217905550336009600085815260200190815260200160002083815481106109e9576109e9612bcb565b906000526020600020906005020160010160006101000a8154816001600160a01b0302191690836001600160a01b03160217905550505050565b60003411610a735760405162461bcd60e51b815260206004820152601f60248201527f5374616b65206d7573742062652067726561746572207468616e207a65726f00604482015260640161078f565b60018411610ad25760405162461bcd60e51b815260206004820152602660248201527f506172746974696370616e7473206d7573742062652067726561746572207468604482015265616e206f6e6560d01b606482015260840161078f565b6000865111610b1b5760405162461bcd60e51b81526020600482015260156024820152745469746c652063616e6e6f7420626520656d70747960581b604482015260640161078f565b6000855111610b6c5760405162461bcd60e51b815260206004820152601b60248201527f4465736372697074696f6e2063616e6e6f7420626520656d7074790000000000604482015260640161078f565b60008211610bc85760405162461bcd60e51b8152602060048201526024808201527f53746172742064617465206d7573742062652067726561746572207468616e206044820152637a65726f60e01b606482015260840161078f565b818111610c285760405162461bcd60e51b815260206004820152602860248201527f456e642064617465206d7573742062652067726561746572207468616e207374604482015267617274206461746560c01b606482015260840161078f565b60008311610c785760405162461bcd60e51b815260206004820181905260248201527f4e756d626572204f662077696e6e6572732063616e6e6f74206265207a65726f604482015260640161078f565b610c86600280546001019055565b610c8e61250f565b600254815260208101879052604081018690526080810185905260a081018490526101208101839052610140810182905234610100820152610cce6122c5565b6101608201528051600090815260076020908152604090912082518155908201518291906001820190610d019082612c42565b5060408201516002820190610d169082612c42565b5060608201516003820180546001600160a01b0319166001600160a01b039092169190911790556080820151600482015560a0820151600582015560c082015160068083019190915560e083015160078301556101008084015160088401556101208401516009840155610140840151600a840155610160840151600b840155610180840151600c90930180546101a09095015161ffff1990951693151561ff00191693909317931515029290921790558151600090815260209190915260409020805460ff191660011790558051610dee906122e4565b610e345760405162461bcd60e51b81526020600482015260176024820152762330b4b632b2103a379031b932b0ba3290383630bcb2b960491b604482015260640161078f565b50505050505050565b60008181526006602052604090205460ff16610e6b5760405162461bcd60e51b815260040161078f90612d02565b600081815260076020819052604090912060048101549101541115610ec45760405162461bcd60e51b815260206004820152600f60248201526e4f7574206f6620636170616369747960881b604482015260640161078f565b6000818152600a602090815260408083206001600160a01b038616845290915290205460ff1615610f375760405162461bcd60e51b815260206004820152601e60248201527f506c6179657220697320616c726561647920696e20746869732067616d650000604482015260640161078f565b6040805160a081018252600081830181815260608301828152608084018381528685526001600160a01b03978816602080870191825288865260078152878620600801548352978552600b8852958420805460018082018355918652979094209451600390970290940195865593519185018054915194511515600160a81b0260ff60a81b19951515600160a01b026001600160a81b0319909316939097169290921717929092169390931790559051600290910155565b60008181526006602052604090205460ff1661101d5760405162461bcd60e51b815260040161078f90612d02565b6000818152600760205260409020600301546001600160a01b031633146110565760405162461bcd60e51b815260040161078f90612d2a565b6000908152600760205260409020600c01805460ff19166001179055565b60008281526006602052604090205460ff166110a25760405162461bcd60e51b815260040161078f90612d02565b6000828152600b602052604090208054339190839081106110c5576110c5612bcb565b60009182526020909120600160039092020101546001600160a01b0316146110ff5760405162461bcd60e51b815260040161078f90612d2a565b6000828152600b602052604090208054600191908390811061112357611123612bcb565b906000526020600020906003020160010160146101000a81548160ff0219169083151502179055505050565b6111576123d3565b611161600061242d565b565b60008281526006602052604090205460ff166111915760405162461bcd60e51b815260040161078f90612d02565b6000828152600760205260409020600801543410156111e65760405162461bcd60e51b8152602060048201526011602482015270496e737566666369656e742066756e647360781b604482015260640161078f565b6000828152600b6020526040902080543391908390811061120957611209612bcb565b60009182526020909120600160039092020101546001600160a01b0316146112435760405162461bcd60e51b815260040161078f90612d2a565b61124c826122e4565b6112925760405162461bcd60e51b81526020600482015260176024820152762330b4b632b2103a379031b932b0ba3290383630bcb2b960491b604482015260640161078f565b6000828152600b60205260409020805460019190839081106112b6576112b6612bcb565b60009182526020808320600160039093020182018054941515600160a01b0260ff60a01b1990951694909417909355848252600b9092526040902080548390811061130357611303612bcb565b906000526020600020906003020160010160156101000a81548160ff02191690831515021790555061133361258b565b8281523360208083019182526000948552600981526040808620805460018082018355918852929096208451600590930201918255915194810180546001600160a01b0319166001600160a01b0390961695909517909455810151600284015560608101516003840155608001516004909201805460ff19169215159290921790915550565b6113c16123d3565b6000811180156113d2575060648111155b6114345760405162461bcd60e51b815260206004820152602d60248201527f4665652070657263656e74206d75737420626520696e207468652072616e676560448201526c206f66202831202d203130302960981b606482015260840161078f565b600555565b6060600060015b60025481116114a6576000818152600760205260409020600c015460ff1615801561148157506000818152600760205260409020600c0154610100900460ff165b15611494578161149081612b78565b9250505b8061149e81612b78565b915050611440565b508067ffffffffffffffff8111156114c0576114c06127f9565b6040519080825280602002602001820160405280156114f957816020015b6114e661250f565b8152602001906001900390816114de5790505b509150600060015b6002548111610675576000818152600760205260409020600c015460ff1615801561154257506000818152600760205260409020600c0154610100900460ff165b156117475760076000828152602001908152602001600020604051806101c00160405290816000820154815260200160018201805461158090612b91565b80601f01602080910402602001604051908101604052809291908181526020018280546115ac90612b91565b80156115f95780601f106115ce576101008083540402835291602001916115f9565b820191906000526020600020905b8154815290600101906020018083116115dc57829003601f168201915b5050505050815260200160028201805461161290612b91565b80601f016020809104026020016040519081016040528092919081815260200182805461163e90612b91565b801561168b5780601f106116605761010080835404028352916020019161168b565b820191906000526020600020905b81548152906001019060200180831161166e57829003601f168201915b505050918352505060038201546001600160a01b03166020820152600482015460408201526005820154606082015260068201546080820152600782015460a0820152600882015460c0820152600982015460e0820152600a82015461010080830191909152600b830154610120830152600c9092015460ff8082161515610140840152929004909116151561016090910152848361172981612b78565b94508151811061173b5761173b612bcb565b60200260200101819052505b8061175181612b78565b915050611501565b6060600b6000838152602001908152602001600020805480602002602001604051908101604052809291908181526020016000905b8282101561071c5760008481526020908190206040805160a08101825260038602909201805483526001808201546001600160a01b0381168587015260ff600160a01b82048116151594860194909452600160a81b900490921615156060840152600201546080830152908352909201910161178e565b61180d61250f565b60076000838152602001908152602001600020604051806101c00160405290816000820154815260200160018201805461184690612b91565b80601f016020809104026020016040519081016040528092919081815260200182805461187290612b91565b80156118bf5780601f10611894576101008083540402835291602001916118bf565b820191906000526020600020905b8154815290600101906020018083116118a257829003601f168201915b505050505081526020016002820180546118d890612b91565b80601f016020809104026020016040519081016040528092919081815260200182805461190490612b91565b80156119515780601f1061192657610100808354040283529160200191611951565b820191906000526020600020905b81548152906001019060200180831161193457829003601f168201915b505050918352505060038201546001600160a01b03166020820152600482015460408201526005820154606082015260068201546080820152600782015460a0820152600882015460c0820152600982015460e0820152600a82015461010080830191909152600b830154610120830152600c9092015460ff808216151561014084015292900490911615156101609091015292915050565b805160609060005b6119fd600183612d57565b811015611c575760005b6001611a138385612d57565b611a1d9190612d57565b811015611c4457848181518110611a3657611a36612bcb565b6020026020010151608001518015611a72575084611a55826001612be1565b81518110611a6557611a65612bcb565b6020026020010151608001515b15611b535784611a83826001612be1565b81518110611a9357611a93612bcb565b602002602001015160400151858281518110611ab157611ab1612bcb565b6020026020010151604001511115611b4e576000858281518110611ad757611ad7612bcb565b6020026020010151905085826001611aef9190612be1565b81518110611aff57611aff612bcb565b6020026020010151868381518110611b1957611b19612bcb565b60209081029190910101528086611b31846001612be1565b81518110611b4157611b41612bcb565b6020026020010181905250505b611c32565b848181518110611b6557611b65612bcb565b602002602001015160800151158015611ba2575084611b85826001612be1565b81518110611b9557611b95612bcb565b6020026020010151608001515b15611c32576000858281518110611bbb57611bbb612bcb565b6020026020010151905085826001611bd39190612be1565b81518110611be357611be3612bcb565b6020026020010151868381518110611bfd57611bfd612bcb565b60209081029190910101528086611c15846001612be1565b81518110611c2557611c25612bcb565b6020026020010181905250505b80611c3c81612b78565b915050611a07565b5080611c4f81612b78565b9150506119f2565b509192915050565b6060600060015b6002548111611ccd576000818152600760205260409020600c015460ff16158015611ca857506000818152600760205260409020600c0154610100900460ff16155b15611cbb5781611cb781612b78565b9250505b80611cc581612b78565b915050611c66565b508067ffffffffffffffff811115611ce757611ce76127f9565b604051908082528060200260200182016040528015611d2057816020015b611d0d61250f565b815260200190600190039081611d055790505b509150600060015b6002548111610675576000818152600760205260409020600c015460ff16158015611d6a57506000818152600760205260409020600c0154610100900460ff16155b15611f6f5760076000828152602001908152602001600020604051806101c001604052908160008201548152602001600182018054611da890612b91565b80601f0160208091040260200160405190810160405280929190818152602001828054611dd490612b91565b8015611e215780601f10611df657610100808354040283529160200191611e21565b820191906000526020600020905b815481529060010190602001808311611e0457829003601f168201915b50505050508152602001600282018054611e3a90612b91565b80601f0160208091040260200160405190810160405280929190818152602001828054611e6690612b91565b8015611eb35780601f10611e8857610100808354040283529160200191611eb3565b820191906000526020600020905b815481529060010190602001808311611e9657829003601f168201915b505050918352505060038201546001600160a01b03166020820152600482015460408201526005820154606082015260068201546080820152600782015460a0820152600882015460c0820152600982015460e0820152600a82015461010080830191909152600b830154610120830152600c9092015460ff80821615156101408401529290049091161515610160909101528483611f5181612b78565b945081518110611f6357611f63612bcb565b60200260200101819052505b80611f7981612b78565b915050611d28565b60008181526006602052604090205460ff16611fd55760405162461bcd60e51b815260206004820152601360248201527211d85b5948191bd95cc81b9bdd08195e1a5cdd606a1b604482015260640161078f565b6000818152600760205260409020600a0154611fef6122c5565b116120345760405162461bcd60e51b815260206004820152601560248201527423b0b6b29039ba34b6361034b71039b2b9b9b4b7b760591b604482015260640161078f565b6000818152600760205260409020600c0154610100900460ff16156120935760405162461bcd60e51b815260206004820152601560248201527411d85b5948185b1c9958591e481c185a59081bdd5d605a1b604482015260640161078f565b60055460008281526007602052604081206008015490916120c1916064916120bb919061247d565b90612492565b600083815260076020526040812060080154919250906120e1908361249e565b90506120fe6120f86000546001600160a01b031690565b836124aa565b61211361210c836002612492565b829061249e565b600084815260076020526040902060030154909150612145906001600160a01b0316612140846002612492565b6124aa565b60008381526009602052604081205467ffffffffffffffff81111561216c5761216c6127f9565b6040519080825280602002602001820160405280156121a557816020015b61219261258b565b81526020019060019003908161218a5790505b5090506121b1816119ea565b905060005b600085815260076020526040902060050154811015612228576000858152600760205260408120600501546121ec908590612492565b905061221583838151811061220357612203612bcb565b602002602001015160200151826124aa565b508061222081612b78565b9150506121b6565b505050600091825250600760205260409020600c01805461ff001916610100179055565b6122546123d3565b6001600160a01b0381166122b95760405162461bcd60e51b815260206004820152602660248201527f4f776e61626c653a206e6577206f776e657220697320746865207a65726f206160448201526564647265737360d01b606482015260840161078f565b6122c28161242d565b50565b60006122d3426103e8612d6a565b6122df906103e8612be1565b905090565b60006122f4600380546001019055565b6123216040518060600160405280600081526020016000815260200160006001600160a01b031681525090565b600354808252602080830185815233604080860182815260009586526008855281862087518155845160018083018290559251600290920180546001600160a01b0319166001600160a01b03909316929092179091558652600a8552818620928652918452808520805460ff1916909217909155905183526007918290528220018054916123ae83612b78565b919050555034600460008282546123c59190612be1565b909155506001949350505050565b6000546001600160a01b031633146111615760405162461bcd60e51b815260206004820181905260248201527f4f776e61626c653a2063616c6c6572206973206e6f7420746865206f776e6572604482015260640161078f565b600080546001600160a01b038381166001600160a01b0319831681178455604051919092169283917f8be0079c531659141344cd1fd0a4f28419497f9722a3daafe3b4186f6b6457e09190a35050565b60006124898284612d6a565b90505b92915050565b60006124898284612d81565b60006124898284612d57565b6000826001600160a01b03168260405160006040518083038185875af1925050503d80600081146124f7576040519150601f19603f3d011682016040523d82523d6000602084013e6124fc565b606091505b505090508061250a57600080fd5b505050565b604051806101c0016040528060008152602001606081526020016060815260200160006001600160a01b0316815260200160008152602001600081526020016000815260200160008152602001600081526020016000815260200160008152602001600081526020016000151581526020016000151581525090565b6040518060a001604052806000815260200160006001600160a01b0316815260200160008152602001600081526020016000151581525090565b6000815180845260005b818110156125eb576020818501810151868301820152016125cf565b506000602082860101526020601f19601f83011685010191505092915050565b60006101c082518452602083015181602086015261262b828601826125c5565b9150506040830151848203604086015261264582826125c5565b915050606083015161266260608601826001600160a01b03169052565b506080838101519085015260a0808401519085015260c0808401519085015260e080840151908501526101008084015190850152610120808401519085015261014080840151908501526101608084015190850152610180808401511515908501526101a092830151151592909301919091525090565b6000602080830181845280855180835260408601915060408160051b870101925083870160005b8281101561272e57603f1988860301845261271c85835161260b565b94509285019290850190600101612700565b5092979650505050505050565b60006020828403121561274d57600080fd5b5035919050565b602080825282518282018190526000919060409081850190868401855b828110156127c057815180518552868101516001600160a01b03168786015285810151868601526060808201519086015260809081015115159085015260a09093019290850190600101612771565b5091979650505050505050565b6000806000606084860312156127e257600080fd5b505081359360208301359350604090920135919050565b634e487b7160e01b600052604160045260246000fd5b60405160a0810167ffffffffffffffff81118282101715612832576128326127f9565b60405290565b604051601f8201601f1916810167ffffffffffffffff81118282101715612861576128616127f9565b604052919050565b600082601f83011261287a57600080fd5b813567ffffffffffffffff811115612894576128946127f9565b6128a7601f8201601f1916602001612838565b8181528460208386010111156128bc57600080fd5b816020850160208301376000918101602001919091529392505050565b60008060008060008060c087890312156128f257600080fd5b863567ffffffffffffffff8082111561290a57600080fd5b6129168a838b01612869565b9750602089013591508082111561292c57600080fd5b5061293989828a01612869565b96999698505050506040850135946060810135946080820135945060a09091013592509050565b80356001600160a01b038116811461297757600080fd5b919050565b6000806040838503121561298f57600080fd5b61299883612960565b946020939093013593505050565b600080604083850312156129b957600080fd5b50508035926020909101359150565b602080825282518282018190526000919060409081850190868401855b828110156127c057815180518552868101516001600160a01b031687860152858101511515868601526060808201511515908601526080908101519085015260a090930192908501906001016129e5565b602081526000612489602083018461260b565b60006020808385031215612a5c57600080fd5b823567ffffffffffffffff80821115612a7457600080fd5b818501915085601f830112612a8857600080fd5b813581811115612a9a57612a9a6127f9565b612aa8848260051b01612838565b818152848101925060a0918202840185019188831115612ac757600080fd5b938501935b82851015612b3b5780858a031215612ae45760008081fd5b612aec61280f565b85358152612afb878701612960565b8188015260408681013590820152606080870135908201526080808701358015158114612b285760008081fd5b9082015284529384019392850192612acc565b50979650505050505050565b600060208284031215612b5957600080fd5b61248982612960565b634e487b7160e01b600052601160045260246000fd5b600060018201612b8a57612b8a612b62565b5060010190565b600181811c90821680612ba557607f821691505b602082108103612bc557634e487b7160e01b600052602260045260246000fd5b50919050565b634e487b7160e01b600052603260045260246000fd5b8082018082111561248c5761248c612b62565b601f82111561250a57600081815260208120601f850160051c81016020861015612c1b5750805b601f850160051c820191505b81811015612c3a57828155600101612c27565b505050505050565b815167ffffffffffffffff811115612c5c57612c5c6127f9565b612c7081612c6a8454612b91565b84612bf4565b602080601f831160018114612ca55760008415612c8d5750858301515b600019600386901b1c1916600185901b178555612c3a565b600085815260208120601f198616915b82811015612cd457888601518255948401946001909101908401612cb5565b5085821015612cf25787850151600019600388901b60f8161c191681555b5050505050600190811b01905550565b6020808252600e908201526d11d85b59481b9bdd08199bdd5b9960921b604082015260600190565b602080825260139082015272556e617574686f72697a656420656e7469747960681b604082015260600190565b8181038181111561248c5761248c612b62565b808202811582820484141761248c5761248c612b62565b600082612d9e57634e487b7160e01b600052601260045260246000fd5b50049056fea2646970667358221220dbe6815e104c1b8e07d774e4db5de31d524cc14a03d9ea4e80fa179065bad03e64736f6c63430008110033",
  "linkReferences": {},
  "deployedLinkReferences": {}
}